{
  "_format": "hh-sol-artifact-1",
  "contractName": "ProtectedTransparentUpgradeableSubProxy",
  "sourceName": "src/ProtectedProxies/ProtectedTransparentUpgradeableSubProxy.sol",
  "abi": [
    {
      "inputs": [
        {
          "internalType": "address",
          "name": "_logic",
          "type": "address"
        },
        {
          "internalType": "address",
          "name": "admin_",
          "type": "address"
        },
        {
          "internalType": "bytes",
          "name": "_data",
          "type": "bytes"
        }
      ],
      "stateMutability": "nonpayable",
      "type": "constructor"
    },
    {
      "anonymous": false,
      "inputs": [
        {
          "indexed": false,
          "internalType": "bytes4[]",
          "name": "patterns",
          "type": "bytes4[]"
        }
      ],
      "name": "AddedProtectedFuncSigs",
      "type": "event"
    },
    {
      "anonymous": false,
      "inputs": [
        {
          "indexed": false,
          "internalType": "address",
          "name": "previousAdmin",
          "type": "address"
        },
        {
          "indexed": false,
          "internalType": "address",
          "name": "newAdmin",
          "type": "address"
        }
      ],
      "name": "AdminChanged",
      "type": "event"
    },
    {
      "anonymous": false,
      "inputs": [
        {
          "indexed": true,
          "internalType": "address",
          "name": "beacon",
          "type": "address"
        }
      ],
      "name": "BeaconUpgraded",
      "type": "event"
    },
    {
      "anonymous": false,
      "inputs": [
        {
          "indexed": false,
          "internalType": "address",
          "name": "oldEngineAddress",
          "type": "address"
        },
        {
          "indexed": false,
          "internalType": "address",
          "name": "newEngineAddress",
          "type": "address"
        }
      ],
      "name": "ChangedSpherexEngineAddress",
      "type": "event"
    },
    {
      "anonymous": false,
      "inputs": [
        {
          "indexed": false,
          "internalType": "address",
          "name": "oldSphereXAdmin",
          "type": "address"
        },
        {
          "indexed": false,
          "internalType": "address",
          "name": "newSphereXAdmin",
          "type": "address"
        }
      ],
      "name": "ChangedSpherexOperator",
      "type": "event"
    },
    {
      "anonymous": false,
      "inputs": [
        {
          "indexed": false,
          "internalType": "bytes4[]",
          "name": "patterns",
          "type": "bytes4[]"
        }
      ],
      "name": "RemovedProtectedFuncSigs",
      "type": "event"
    },
    {
      "anonymous": false,
      "inputs": [
        {
          "indexed": false,
          "internalType": "address",
          "name": "oldAdmin",
          "type": "address"
        },
        {
          "indexed": false,
          "internalType": "address",
          "name": "newAdmin",
          "type": "address"
        }
      ],
      "name": "SpherexAdminTransferCompleted",
      "type": "event"
    },
    {
      "anonymous": false,
      "inputs": [
        {
          "indexed": false,
          "internalType": "address",
          "name": "currentAdmin",
          "type": "address"
        },
        {
          "indexed": false,
          "internalType": "address",
          "name": "pendingAdmin",
          "type": "address"
        }
      ],
      "name": "SpherexAdminTransferStarted",
      "type": "event"
    },
    {
      "anonymous": false,
      "inputs": [
        {
          "indexed": true,
          "internalType": "address",
          "name": "implementation",
          "type": "address"
        }
      ],
      "name": "Upgraded",
      "type": "event"
    },
    {
      "stateMutability": "payable",
      "type": "fallback"
    },
    {
      "inputs": [
        {
          "internalType": "address",
          "name": "admin",
          "type": "address"
        },
        {
          "internalType": "address",
          "name": "operator",
          "type": "address"
        },
        {
          "internalType": "address",
          "name": "engine",
          "type": "address"
        },
        {
          "internalType": "address",
          "name": "_logic",
          "type": "address"
        }
      ],
      "name": "__SphereXProtectedSubProXy_init",
      "outputs": [],
      "stateMutability": "nonpayable",
      "type": "function"
    },
    {
      "inputs": [],
      "name": "acceptSphereXAdminRole",
      "outputs": [],
      "stateMutability": "nonpayable",
      "type": "function"
    },
    {
      "inputs": [
        {
          "internalType": "bytes4[]",
          "name": "keys",
          "type": "bytes4[]"
        }
      ],
      "name": "addProtectedFuncSigs",
      "outputs": [],
      "stateMutability": "nonpayable",
      "type": "function"
    },
    {
      "inputs": [
        {
          "internalType": "address",
          "name": "newSphereXEngine",
          "type": "address"
        }
      ],
      "name": "changeSphereXEngine",
      "outputs": [],
      "stateMutability": "nonpayable",
      "type": "function"
    },
    {
      "inputs": [
        {
          "internalType": "address",
          "name": "newSphereXOperator",
          "type": "address"
        }
      ],
      "name": "changeSphereXOperator",
      "outputs": [],
      "stateMutability": "nonpayable",
      "type": "function"
    },
    {
      "inputs": [],
      "name": "isInitialized",
      "outputs": [
        {
          "internalType": "bool",
          "name": "",
          "type": "bool"
        }
      ],
      "stateMutability": "view",
      "type": "function"
    },
    {
      "inputs": [
        {
          "internalType": "bytes4",
          "name": "func_sig",
          "type": "bytes4"
        }
      ],
      "name": "isProtectedFuncSig",
      "outputs": [
        {
          "internalType": "bool",
          "name": "value",
          "type": "bool"
        }
      ],
      "stateMutability": "view",
      "type": "function"
    },
    {
      "inputs": [],
      "name": "pendingSphereXAdmin",
      "outputs": [
        {
          "internalType": "address",
          "name": "",
          "type": "address"
        }
      ],
      "stateMutability": "view",
      "type": "function"
    },
    {
      "inputs": [
        {
          "internalType": "bytes4[]",
          "name": "keys",
          "type": "bytes4[]"
        }
      ],
      "name": "removeProtectedFuncSigs",
      "outputs": [],
      "stateMutability": "nonpayable",
      "type": "function"
    },
    {
      "inputs": [],
      "name": "sphereXAdmin",
      "outputs": [
        {
          "internalType": "address",
          "name": "",
          "type": "address"
        }
      ],
      "stateMutability": "view",
      "type": "function"
    },
    {
      "inputs": [],
      "name": "sphereXEngine",
      "outputs": [
        {
          "internalType": "address",
          "name": "",
          "type": "address"
        }
      ],
      "stateMutability": "view",
      "type": "function"
    },
    {
      "inputs": [],
      "name": "sphereXOperator",
      "outputs": [
        {
          "internalType": "address",
          "name": "",
          "type": "address"
        }
      ],
      "stateMutability": "view",
      "type": "function"
    },
    {
      "inputs": [
        {
          "internalType": "address",
          "name": "newAdmin",
          "type": "address"
        }
      ],
      "name": "transferSphereXAdminRole",
      "outputs": [],
      "stateMutability": "nonpayable",
      "type": "function"
    },
    {
      "stateMutability": "payable",
      "type": "receive"
    }
  ],
  "bytecode": "0x60806040523480156200001157600080fd5b506040516200433f3803806200433f833981810160405281019062000037919062000aba565b828282828160008060008282828282826200005a838383620000a660201b60201c565b505050505050620000706200024260201b60201c565b50505062000087828260006200025660201b60201c565b50506200009a826200029460201b60201c565b50505050505062000fd1565b620000ec60017fca334bf49ef20e9cbff039feda3bc1c2a853aff17b1b5187e4aa1380ec55829d60001c620000dc919062000b6e565b60001b84620002f260201b60201c565b7f67ebaebcd2ca5a91a404e898110f221747e8d15567f2388a34794aab151cf3e66000846040516200012092919062000bba565b60405180910390a16200016e60017fadf90d75f0f2d657d5a22fa0f6e4dabb83c4598b77158eb4119cb38f1d86446360001c6200015e919062000b6e565b60001b83620002f260201b60201c565b7f2ac55ae7ba47db34b5334622acafeb34a65daf143b47019273185d64c73a35a5600083604051620001a292919062000bba565b60405180910390a1620001bb81620002f960201b60201c565b6200020160017f1777adabd324f814e2b0e28f6edf876dce01d7d66358c9acfe87b1b5f38338d660001c620001f1919062000b6e565b60001b82620002f260201b60201c565b7ff33499cccaa0611882086224cc48cd82ef54b66a4d2edf4ed67108dd516896d56000826040516200023592919062000bba565b60405180910390a1505050565b6200025460016200041560201b60201c565b565b62000267836200047860201b60201c565b600082511180620002755750805b156200028f576200028d8383620004cf60201b60201c565b505b505050565b7f7e644d79422f17c01e4894b5f4f588d331ebfa28653d42ae832dc59e38c9798f620002c56200050560201b60201c565b82604051620002d692919062000bba565b60405180910390a1620002ef816200056460201b60201c565b50565b8082555050565b600073ffffffffffffffffffffffffffffffffffffffff168173ffffffffffffffffffffffffffffffffffffffff161480620003d057508073ffffffffffffffffffffffffffffffffffffffff166301ffc9a77f53e41baa000000000000000000000000000000000000000000000000000000006040518263ffffffff1660e01b81526004016200038b919062000c24565b602060405180830381865afa158015620003a9573d6000803e3d6000fd5b505050506040513d601f19601f82011682018060405250810190620003cf919062000c7e565b5b62000412576040517f08c379a0000000000000000000000000000000000000000000000000000000008152600401620004099062000d37565b60405180910390fd5b50565b806200045b60017f4ba08d60f56c6cd2d9ec913ce014292084e5d1b185ce0693b39fad239282845960001c6200044c919062000b6e565b60001b6200064f60201b60201c565b60000160006101000a81548160ff02191690831515021790555050565b62000489816200065960201b60201c565b8073ffffffffffffffffffffffffffffffffffffffff167fbc7cd75a20ee27fd9adebab32041f755214dbc6bffa90cc0225b39da2e5c2d3b60405160405180910390a250565b6060620004fd838360405180606001604052806027815260200162004318602791396200072560201b60201c565b905092915050565b60006200053b7fb53127684a568b3173ae13b9f8a6016e243e63b6e8ee1178d6a717850b5d610360001b620007b760201b60201c565b60000160009054906101000a900473ffffffffffffffffffffffffffffffffffffffff16905090565b600073ffffffffffffffffffffffffffffffffffffffff168173ffffffffffffffffffffffffffffffffffffffff1603620005d6576040517f08c379a0000000000000000000000000000000000000000000000000000000008152600401620005cd9062000dcf565b60405180910390fd5b806200060b7fb53127684a568b3173ae13b9f8a6016e243e63b6e8ee1178d6a717850b5d610360001b620007b760201b60201c565b60000160006101000a81548173ffffffffffffffffffffffffffffffffffffffff021916908373ffffffffffffffffffffffffffffffffffffffff16021790555050565b6000819050919050565b6200066a81620007c160201b60201c565b620006ac576040517f08c379a0000000000000000000000000000000000000000000000000000000008152600401620006a39062000e67565b60405180910390fd5b80620006e17f360894a13ba1a3210667c828492db98dca3e2076cc3735a920a3ca505d382bbc60001b620007b760201b60201c565b60000160006101000a81548173ffffffffffffffffffffffffffffffffffffffff021916908373ffffffffffffffffffffffffffffffffffffffff16021790555050565b60606000808573ffffffffffffffffffffffffffffffffffffffff168560405162000751919062000ed6565b600060405180830381855af49150503d80600081146200078e576040519150601f19603f3d011682016040523d82523d6000602084013e62000793565b606091505b5091509150620007ac86838387620007e460201b60201c565b925050509392505050565b6000819050919050565b6000808273ffffffffffffffffffffffffffffffffffffffff163b119050919050565b60608315620008545760008351036200084b576200080885620007c160201b60201c565b6200084a576040517f08c379a0000000000000000000000000000000000000000000000000000000008152600401620008419062000f3f565b60405180910390fd5b5b82905062000867565b6200086683836200086f60201b60201c565b5b949350505050565b600082511115620008835781518083602001fd5b806040517f08c379a0000000000000000000000000000000000000000000000000000000008152600401620008b9919062000fad565b60405180910390fd5b6000604051905090565b600080fd5b600080fd5b600073ffffffffffffffffffffffffffffffffffffffff82169050919050565b60006200090382620008d6565b9050919050565b6200091581620008f6565b81146200092157600080fd5b50565b60008151905062000935816200090a565b92915050565b600080fd5b600080fd5b6000601f19601f8301169050919050565b7f4e487b7100000000000000000000000000000000000000000000000000000000600052604160045260246000fd5b620009908262000945565b810181811067ffffffffffffffff82111715620009b257620009b162000956565b5b80604052505050565b6000620009c7620008c2565b9050620009d5828262000985565b919050565b600067ffffffffffffffff821115620009f857620009f762000956565b5b62000a038262000945565b9050602081019050919050565b60005b8381101562000a3057808201518184015260208101905062000a13565b60008484015250505050565b600062000a5362000a4d84620009da565b620009bb565b90508281526020810184848401111562000a725762000a7162000940565b5b62000a7f84828562000a10565b509392505050565b600082601f83011262000a9f5762000a9e6200093b565b5b815162000ab184826020860162000a3c565b91505092915050565b60008060006060848603121562000ad65762000ad5620008cc565b5b600062000ae68682870162000924565b935050602062000af98682870162000924565b925050604084015167ffffffffffffffff81111562000b1d5762000b1c620008d1565b5b62000b2b8682870162000a87565b9150509250925092565b6000819050919050565b7f4e487b7100000000000000000000000000000000000000000000000000000000600052601160045260246000fd5b600062000b7b8262000b35565b915062000b888362000b35565b925082820390508181111562000ba35762000ba262000b3f565b5b92915050565b62000bb481620008f6565b82525050565b600060408201905062000bd1600083018562000ba9565b62000be0602083018462000ba9565b9392505050565b60007fffffffff0000000000000000000000000000000000000000000000000000000082169050919050565b62000c1e8162000be7565b82525050565b600060208201905062000c3b600083018462000c13565b92915050565b60008115159050919050565b62000c588162000c41565b811462000c6457600080fd5b50565b60008151905062000c788162000c4d565b92915050565b60006020828403121562000c975762000c96620008cc565b5b600062000ca78482850162000c67565b91505092915050565b600082825260208201905092915050565b7f53706865726558206572726f723a206e6f7420612053706865726558456e676960008201527f6e65000000000000000000000000000000000000000000000000000000000000602082015250565b600062000d1f60228362000cb0565b915062000d2c8262000cc1565b604082019050919050565b6000602082019050818103600083015262000d528162000d10565b9050919050565b7f455243313936373a206e65772061646d696e20697320746865207a65726f206160008201527f6464726573730000000000000000000000000000000000000000000000000000602082015250565b600062000db760268362000cb0565b915062000dc48262000d59565b604082019050919050565b6000602082019050818103600083015262000dea8162000da8565b9050919050565b7f455243313936373a206e657720696d706c656d656e746174696f6e206973206e60008201527f6f74206120636f6e747261637400000000000000000000000000000000000000602082015250565b600062000e4f602d8362000cb0565b915062000e5c8262000df1565b604082019050919050565b6000602082019050818103600083015262000e828162000e40565b9050919050565b600081519050919050565b600081905092915050565b600062000eac8262000e89565b62000eb8818562000e94565b935062000eca81856020860162000a10565b80840191505092915050565b600062000ee4828462000e9f565b915081905092915050565b7f416464726573733a2063616c6c20746f206e6f6e2d636f6e7472616374000000600082015250565b600062000f27601d8362000cb0565b915062000f348262000eef565b602082019050919050565b6000602082019050818103600083015262000f5a8162000f18565b9050919050565b600081519050919050565b600062000f798262000f61565b62000f85818562000cb0565b935062000f9781856020860162000a10565b62000fa28162000945565b840191505092915050565b6000602082019050818103600083015262000fc9818462000f6c565b905092915050565b6133378062000fe16000396000f3fe6080604052600436106100c65760003560e01c806399e80f3b1161007f578063a7fdd04711610059578063a7fdd0471461025a578063cc5b745014610283578063daba7ef7146102ac578063e7e5db4f146102d5576100d5565b806399e80f3b146101db5780639aa9019e14610206578063a28aec7514610231576100d5565b8063021a5fe5146100df578063392e53cd1461011c5780633c231166146101475780634c6c848f146101725780634ee8f8581461019b5780638426b968146101c4576100d5565b366100d5576100d3610300565b005b6100dd610300565b005b3480156100eb57600080fd5b5061010660048036038101906101019190612131565b6104d2565b6040516101139190612179565b60405180910390f35b34801561012857600080fd5b5061013161053c565b60405161013e9190612179565b60405180910390f35b34801561015357600080fd5b5061015c61058f565b60405161016991906121d5565b60405180910390f35b34801561017e57600080fd5b506101996004803603810190610194919061221c565b6105d1565b005b3480156101a757600080fd5b506101c260048036038101906101bd919061221c565b61073a565b005b3480156101d057600080fd5b506101d961089a565b005b3480156101e757600080fd5b506101f06109d0565b6040516101fd91906121d5565b60405180910390f35b34801561021257600080fd5b5061021b610a12565b60405161022891906121d5565b60405180910390f35b34801561023d57600080fd5b5061025860048036038101906102539190612249565b610a54565b005b34801561026657600080fd5b50610281600480360381019061027c9190612409565b610af3565b005b34801561028f57600080fd5b506102aa60048036038101906102a59190612409565b610c18565b005b3480156102b857600080fd5b506102d360048036038101906102ce919061221c565b610d3d565b005b3480156102e157600080fd5b506102ea610e64565b6040516102f791906121d5565b60405180910390f35b6103086109d0565b73ffffffffffffffffffffffffffffffffffffffff163373ffffffffffffffffffffffffffffffffffffffff16036104c7576303430bf860e01b7bffffffffffffffffffffffffffffffffffffffffffffffffffffffff19166000357fffffffff00000000000000000000000000000000000000000000000000000000167bffffffffffffffffffffffffffffffffffffffffffffffffffffffff1916036103dd576000803660049080926103bf9392919061245c565b8101906103cc91906124d5565b90506103d781610ea6565b506104c2565b634fef73cc60e01b7bffffffffffffffffffffffffffffffffffffffffffffffffffffffff19166000357fffffffff00000000000000000000000000000000000000000000000000000000167bffffffffffffffffffffffffffffffffffffffffffffffffffffffff1916036104865760008060003660049080926104649392919061245c565b81019061047191906125b7565b9150915061047f8282610ee5565b50506104c1565b6040517f08c379a00000000000000000000000000000000000000000000000000000000081526004016104b8906126bc565b60405180910390fd5b5b6104d0565b6104cf610f3b565b5b565b6000808260017f9a7afc584486ebd3e91191a9ac2c2e986b3aaa4084656fc915fe0843ff009c6b60001c6105069190612715565b60001b60405160200161051a929190612795565b6040516020818303038152906040528051906020012090508054915050919050565b600061057960017f4ba08d60f56c6cd2d9ec913ce014292084e5d1b185ce0693b39fad239282845960001c6105719190612715565b60001b6111b7565b60000160009054906101000a900460ff16905090565b60006105cc60017f1777adabd324f814e2b0e28f6edf876dce01d7d66358c9acfe87b1b5f38338d660001c6105c49190612715565b60001b6111c1565b905090565b61060c60017fadf90d75f0f2d657d5a22fa0f6e4dabb83c4598b77158eb4119cb38f1d86446360001c6106049190612715565b60001b6111c1565b73ffffffffffffffffffffffffffffffffffffffff163373ffffffffffffffffffffffffffffffffffffffff1614610679576040517f08c379a00000000000000000000000000000000000000000000000000000000081526004016106709061280d565b60405180910390fd5b610682816111cc565b60006106bf60017f1777adabd324f814e2b0e28f6edf876dce01d7d66358c9acfe87b1b5f38338d660001c6106b79190612715565b60001b6111c1565b90506106fd60017f1777adabd324f814e2b0e28f6edf876dce01d7d66358c9acfe87b1b5f38338d660001c6106f49190612715565b60001b836112df565b7ff33499cccaa0611882086224cc48cd82ef54b66a4d2edf4ed67108dd516896d5818360405161072e92919061282d565b60405180910390a15050565b61077560017fca334bf49ef20e9cbff039feda3bc1c2a853aff17b1b5187e4aa1380ec55829d60001c61076d9190612715565b60001b6111c1565b73ffffffffffffffffffffffffffffffffffffffff163373ffffffffffffffffffffffffffffffffffffffff16146107e2576040517f08c379a00000000000000000000000000000000000000000000000000000000081526004016107d9906128a2565b60405180910390fd5b600061081f60017fadf90d75f0f2d657d5a22fa0f6e4dabb83c4598b77158eb4119cb38f1d86446360001c6108179190612715565b60001b6111c1565b905061085d60017fadf90d75f0f2d657d5a22fa0f6e4dabb83c4598b77158eb4119cb38f1d86446360001c6108549190612715565b60001b836112df565b7f2ac55ae7ba47db34b5334622acafeb34a65daf143b47019273185d64c73a35a5818360405161088e92919061282d565b60405180910390a15050565b3373ffffffffffffffffffffffffffffffffffffffff166108b9610a12565b73ffffffffffffffffffffffffffffffffffffffff161461090f576040517f08c379a000000000000000000000000000000000000000000000000000000000815260040161090690612934565b60405180910390fd5b60006109196109d0565b905061095760017fca334bf49ef20e9cbff039feda3bc1c2a853aff17b1b5187e4aa1380ec55829d60001c61094e9190612715565b60001b336112df565b61099460017f3a517dd736309b905c692160a21b5439bdc56db1dc77d6982b66d44814e3fa9760001c61098a9190612715565b60001b60006112df565b7f67ebaebcd2ca5a91a404e898110f221747e8d15567f2388a34794aab151cf3e681336040516109c592919061282d565b60405180910390a150565b6000610a0d60017fca334bf49ef20e9cbff039feda3bc1c2a853aff17b1b5187e4aa1380ec55829d60001c610a059190612715565b60001b6111c1565b905090565b6000610a4f60017f3a517dd736309b905c692160a21b5439bdc56db1dc77d6982b66d44814e3fa9760001c610a479190612715565b60001b6111c1565b905090565b610a5c61053c565b15610a9c576040517f08c379a0000000000000000000000000000000000000000000000000000000008152600401610a93906129c6565b60405180910390fd5b610aa660016112e6565b610ab184848461133f565b610aed60017f3fa91f2555a723d9492031a1ea7e19bafb88d46accb27838b1930ba6a3553a4060001c610ae49190612715565b60001b826112df565b50505050565b610b2e60017fadf90d75f0f2d657d5a22fa0f6e4dabb83c4598b77158eb4119cb38f1d86446360001c610b269190612715565b60001b6111c1565b73ffffffffffffffffffffffffffffffffffffffff163373ffffffffffffffffffffffffffffffffffffffff1614610b9b576040517f08c379a0000000000000000000000000000000000000000000000000000000008152600401610b929061280d565b60405180910390fd5b60005b8151811015610bdd57610bcc828281518110610bbd57610bbc6129e6565b5b602002602001015160006114af565b80610bd690612a15565b9050610b9e565b507f754b9f3148ad4cf227ecdf9a64810fa2d0b8682a2de15dfad5310a12b7281a5f81604051610c0d9190612b1b565b60405180910390a150565b610c5360017fadf90d75f0f2d657d5a22fa0f6e4dabb83c4598b77158eb4119cb38f1d86446360001c610c4b9190612715565b60001b6111c1565b73ffffffffffffffffffffffffffffffffffffffff163373ffffffffffffffffffffffffffffffffffffffff1614610cc0576040517f08c379a0000000000000000000000000000000000000000000000000000000008152600401610cb79061280d565b60405180910390fd5b60005b8151811015610d0257610cf1828281518110610ce257610ce16129e6565b5b602002602001015160016114af565b80610cfb90612a15565b9050610cc3565b507f45fc6a4de33dfc2fa6f40e48f353bf7ff006086db3ecf80c077f788082cc7d5a81604051610d329190612b1b565b60405180910390a150565b610d7860017fca334bf49ef20e9cbff039feda3bc1c2a853aff17b1b5187e4aa1380ec55829d60001c610d709190612715565b60001b6111c1565b73ffffffffffffffffffffffffffffffffffffffff163373ffffffffffffffffffffffffffffffffffffffff1614610de5576040517f08c379a0000000000000000000000000000000000000000000000000000000008152600401610ddc906128a2565b60405180910390fd5b610e2160017f3a517dd736309b905c692160a21b5439bdc56db1dc77d6982b66d44814e3fa9760001c610e189190612715565b60001b826112df565b7f5778f1547abbbb86090a43c32aec38334b31df4beeb6f8f3fa063f593b53a526610e4a6109d0565b82604051610e5992919061282d565b60405180910390a150565b6000610ea160017fadf90d75f0f2d657d5a22fa0f6e4dabb83c4598b77158eb4119cb38f1d86446360001c610e999190612715565b60001b6111c1565b905090565b610ee260017f3fa91f2555a723d9492031a1ea7e19bafb88d46accb27838b1930ba6a3553a4060001c610ed99190612715565b60001b826112df565b50565b610f2160017f3fa91f2555a723d9492031a1ea7e19bafb88d46accb27838b1930ba6a3553a4060001c610f189190612715565b60001b836112df565b600081511115610f3757610f358282611516565b505b5050565b610f43611543565b73ffffffffffffffffffffffffffffffffffffffff163373ffffffffffffffffffffffffffffffffffffffff16036111ad576060600080357fffffffff00000000000000000000000000000000000000000000000000000000169050633659cfe660e01b7bffffffffffffffffffffffffffffffffffffffffffffffffffffffff1916817bffffffffffffffffffffffffffffffffffffffffffffffffffffffff191603610ffa57610ff361159a565b91506111a5565b634f1ef28660e01b7bffffffffffffffffffffffffffffffffffffffffffffffffffffffff1916817bffffffffffffffffffffffffffffffffffffffffffffffffffffffff1916036110555761104e6115f9565b91506111a4565b638f28397060e01b7bffffffffffffffffffffffffffffffffffffffffffffffffffffffff1916817bffffffffffffffffffffffffffffffffffffffffffffffffffffffff1916036110b0576110a9611646565b91506111a3565b63f851a44060e01b7bffffffffffffffffffffffffffffffffffffffffffffffffffffffff1916817bffffffffffffffffffffffffffffffffffffffffffffffffffffffff19160361110b57611104611693565b91506111a2565b635c60da1b60e01b7bffffffffffffffffffffffffffffffffffffffffffffffffffffffff1916817bffffffffffffffffffffffffffffffffffffffffffffffffffffffff1916036111665761115f6116cf565b91506111a1565b6040517f08c379a000000000000000000000000000000000000000000000000000000000815260040161119890612bd5565b60405180910390fd5b5b5b5b5b815160208301f35b6111b561170b565b565b6000819050919050565b600081549050919050565b600073ffffffffffffffffffffffffffffffffffffffff168173ffffffffffffffffffffffffffffffffffffffff16148061129d57508073ffffffffffffffffffffffffffffffffffffffff166301ffc9a77f53e41baa000000000000000000000000000000000000000000000000000000006040518263ffffffff1660e01b815260040161125b9190612c04565b602060405180830381865afa158015611278573d6000803e3d6000fd5b505050506040513d601f19601f8201168201806040525081019061129c9190612c4b565b5b6112dc576040517f08c379a00000000000000000000000000000000000000000000000000000000081526004016112d390612cea565b60405180910390fd5b50565b8082555050565b8061132260017f4ba08d60f56c6cd2d9ec913ce014292084e5d1b185ce0693b39fad239282845960001c61131a9190612715565b60001b6111b7565b60000160006101000a81548160ff02191690831515021790555050565b61137b60017fca334bf49ef20e9cbff039feda3bc1c2a853aff17b1b5187e4aa1380ec55829d60001c6113729190612715565b60001b846112df565b7f67ebaebcd2ca5a91a404e898110f221747e8d15567f2388a34794aab151cf3e66000846040516113ad92919061282d565b60405180910390a16113f160017fadf90d75f0f2d657d5a22fa0f6e4dabb83c4598b77158eb4119cb38f1d86446360001c6113e89190612715565b60001b836112df565b7f2ac55ae7ba47db34b5334622acafeb34a65daf143b47019273185d64c73a35a560008360405161142392919061282d565b60405180910390a1611434816111cc565b61147060017f1777adabd324f814e2b0e28f6edf876dce01d7d66358c9acfe87b1b5f38338d660001c6114679190612715565b60001b826112df565b7ff33499cccaa0611882086224cc48cd82ef54b66a4d2edf4ed67108dd516896d56000826040516114a292919061282d565b60405180910390a1505050565b60008260017f9a7afc584486ebd3e91191a9ac2c2e986b3aaa4084656fc915fe0843ff009c6b60001c6114e29190612715565b60001b6040516020016114f6929190612795565b604051602081830303815290604052805190602001209050818155505050565b606061153b83836040518060600160405280602781526020016132db60279139611725565b905092915050565b60006115717fb53127684a568b3173ae13b9f8a6016e243e63b6e8ee1178d6a717850b5d610360001b6117ab565b60000160009054906101000a900473ffffffffffffffffffffffffffffffffffffffff16905090565b60606115a46117b5565b6000803660049080926115b99392919061245c565b8101906115c691906124d5565b90506115e3816040518060200160405280600081525060006117c4565b6040518060200160405280600081525091505090565b606060008060003660049080926116129392919061245c565b81019061161f91906125b7565b9150915061162f828260016117c4565b604051806020016040528060008152509250505090565b60606116506117b5565b6000803660049080926116659392919061245c565b81019061167291906124d5565b905061167d816117f0565b6040518060200160405280600081525091505090565b606061169d6117b5565b60006116a7611543565b9050806040516020016116ba91906121d5565b60405160208183030381529060405291505090565b60606116d96117b5565b60006116e361183c565b9050806040516020016116f691906121d5565b60405160208183030381529060405291505090565b61171361184b565b61172361171e61183c565b61184d565b565b60606000808573ffffffffffffffffffffffffffffffffffffffff168560405161174f9190612d7b565b600060405180830381855af49150503d806000811461178a576040519150601f19603f3d011682016040523d82523d6000602084013e61178f565b606091505b50915091506117a086838387611859565b925050509392505050565b6000819050919050565b600034146117c257600080fd5b565b6117cd836118ce565b6000825111806117da5750805b156117eb576117e98383611516565b505b505050565b7f7e644d79422f17c01e4894b5f4f588d331ebfa28653d42ae832dc59e38c9798f611819611543565b8260405161182892919061282d565b60405180910390a16118398161191d565b50565b60006118466119fd565b905090565b565b61185681611a3f565b50565b606083156118bb5760008351036118b35761187385611a97565b6118b2576040517f08c379a00000000000000000000000000000000000000000000000000000000081526004016118a990612dde565b60405180910390fd5b5b8290506118c6565b6118c58383611aba565b5b949350505050565b6118d781611b0a565b8073ffffffffffffffffffffffffffffffffffffffff167fbc7cd75a20ee27fd9adebab32041f755214dbc6bffa90cc0225b39da2e5c2d3b60405160405180910390a250565b600073ffffffffffffffffffffffffffffffffffffffff168173ffffffffffffffffffffffffffffffffffffffff160361198c576040517f08c379a000000000000000000000000000000000000000000000000000000000815260040161198390612e70565b60405180910390fd5b806119b97fb53127684a568b3173ae13b9f8a6016e243e63b6e8ee1178d6a717850b5d610360001b6117ab565b60000160006101000a81548173ffffffffffffffffffffffffffffffffffffffff021916908373ffffffffffffffffffffffffffffffffffffffff16021790555050565b6000611a3a60017f3fa91f2555a723d9492031a1ea7e19bafb88d46accb27838b1930ba6a3553a4060001c611a329190612715565b60001b6111c1565b905090565b611a6c6000357fffffffff00000000000000000000000000000000000000000000000000000000166104d2565b15611a8b576000611a7c82611bc3565b90506000815190508060208301f35b611a9481611c6f565b50565b6000808273ffffffffffffffffffffffffffffffffffffffff163b119050919050565b600082511115611acd5781518083602001fd5b806040517f08c379a0000000000000000000000000000000000000000000000000000000008152600401611b019190612ed4565b60405180910390fd5b611b1381611a97565b611b52576040517f08c379a0000000000000000000000000000000000000000000000000000000008152600401611b4990612f68565b60405180910390fd5b80611b7f7f360894a13ba1a3210667c828492db98dca3e2076cc3735a920a3ca505d382bbc60001b6117ab565b60000160006101000a81548173ffffffffffffffffffffffffffffffffffffffff021916908373ffffffffffffffffffffffffffffffffffffffff16021790555050565b60606000357fffffffff000000000000000000000000000000000000000000000000000000001660e01c63ffffffff166000611c00826001611c95565b9050611c51846000368080601f016020809104026020016040519081016040528093929190818152602001838380828437600081840152601f19601f82011690508083019250505050505050611516565b9250611c6882611c6090612f92565b600183611e31565b5050919050565b3660008037600080366000845af43d6000803e8060008114611c90573d6000f35b3d6000fd5b611c9d6120a4565b600073ffffffffffffffffffffffffffffffffffffffff16611cbd611f9d565b73ffffffffffffffffffffffffffffffffffffffff160315611e2b576000611ce3611f9d565b90508215611d80578073ffffffffffffffffffffffffffffffffffffffff16638925ca5a85336000366040518563ffffffff1660e01b8152600401611d2b9493929190613027565b6000604051808303816000875af1158015611d4a573d6000803e3d6000fd5b505050506040513d6000823e3d601f19601f82011682018060405250810190611d739190613156565b8260000181905250611e0a565b8073ffffffffffffffffffffffffffffffffffffffff16633e884943856040518263ffffffff1660e01b8152600401611db9919061319f565b6000604051808303816000875af1158015611dd8573d6000803e3d6000fd5b505050506040513d6000823e3d601f19601f82011682018060405250810190611e019190613156565b82600001819052505b611e178260000151611fdf565b82602001819052505a826040018181525050505b92915050565b600073ffffffffffffffffffffffffffffffffffffffff16611e51611f9d565b73ffffffffffffffffffffffffffffffffffffffff160315611f985760005a8260400151611e7f9190612715565b90506000611e8b611f9d565b90506060611e9c8460000151611fdf565b90508415611f1e578173ffffffffffffffffffffffffffffffffffffffff1663f0bd946887858760200151856040518563ffffffff1660e01b8152600401611ee79493929190613287565b600060405180830381600087803b158015611f0157600080fd5b505af1158015611f15573d6000803e3d6000fd5b50505050611f94565b8173ffffffffffffffffffffffffffffffffffffffff166304e6279a87858760200151856040518563ffffffff1660e01b8152600401611f619493929190613287565b600060405180830381600087803b158015611f7b57600080fd5b505af1158015611f8f573d6000803e3d6000fd5b505050505b5050505b505050565b6000611fda60017f1777adabd324f814e2b0e28f6edf876dce01d7d66358c9acfe87b1b5f38338d660001c611fd29190612715565b60001b6111c1565b905090565b606060008251905060008167ffffffffffffffff811115612003576120026122c6565b5b6040519080825280602002602001820160405280156120315781602001602082028036833780820191505090505b50905060005b82811015612099576000858281518110612054576120536129e6565b5b6020026020010151905060008154905080848481518110612078576120776129e6565b5b6020026020010181815250505050808061209190612a15565b915050612037565b508092505050919050565b60405180606001604052806060815260200160608152602001600081525090565b6000604051905090565b600080fd5b600080fd5b60007fffffffff0000000000000000000000000000000000000000000000000000000082169050919050565b61210e816120d9565b811461211957600080fd5b50565b60008135905061212b81612105565b92915050565b600060208284031215612147576121466120cf565b5b60006121558482850161211c565b91505092915050565b60008115159050919050565b6121738161215e565b82525050565b600060208201905061218e600083018461216a565b92915050565b600073ffffffffffffffffffffffffffffffffffffffff82169050919050565b60006121bf82612194565b9050919050565b6121cf816121b4565b82525050565b60006020820190506121ea60008301846121c6565b92915050565b6121f9816121b4565b811461220457600080fd5b50565b600081359050612216816121f0565b92915050565b600060208284031215612232576122316120cf565b5b600061224084828501612207565b91505092915050565b60008060008060808587031215612263576122626120cf565b5b600061227187828801612207565b945050602061228287828801612207565b935050604061229387828801612207565b92505060606122a487828801612207565b91505092959194509250565b600080fd5b6000601f19601f8301169050919050565b7f4e487b7100000000000000000000000000000000000000000000000000000000600052604160045260246000fd5b6122fe826122b5565b810181811067ffffffffffffffff8211171561231d5761231c6122c6565b5b80604052505050565b60006123306120c5565b905061233c82826122f5565b919050565b600067ffffffffffffffff82111561235c5761235b6122c6565b5b602082029050602081019050919050565b600080fd5b600061238561238084612341565b612326565b905080838252602082019050602084028301858111156123a8576123a761236d565b5b835b818110156123d157806123bd888261211c565b8452602084019350506020810190506123aa565b5050509392505050565b600082601f8301126123f0576123ef6122b0565b5b8135612400848260208601612372565b91505092915050565b60006020828403121561241f5761241e6120cf565b5b600082013567ffffffffffffffff81111561243d5761243c6120d4565b5b612449848285016123db565b91505092915050565b600080fd5b600080fd5b600080858511156124705761246f612452565b5b8386111561248157612480612457565b5b6001850283019150848603905094509492505050565b60006124a282612194565b9050919050565b6124b281612497565b81146124bd57600080fd5b50565b6000813590506124cf816124a9565b92915050565b6000602082840312156124eb576124ea6120cf565b5b60006124f9848285016124c0565b91505092915050565b600080fd5b600067ffffffffffffffff821115612522576125216122c6565b5b61252b826122b5565b9050602081019050919050565b82818337600083830152505050565b600061255a61255584612507565b612326565b90508281526020810184848401111561257657612575612502565b5b612581848285612538565b509392505050565b600082601f83011261259e5761259d6122b0565b5b81356125ae848260208601612547565b91505092915050565b600080604083850312156125ce576125cd6120cf565b5b60006125dc858286016124c0565b925050602083013567ffffffffffffffff8111156125fd576125fc6120d4565b5b61260985828601612589565b9150509250929050565b600082825260208201905092915050565b7f50726f7465637465645472616e73706172656e745570677261646561626c655360008201527f756250726f78793a2061646d696e2063616e6e6f742066616c6c6261636b207460208201527f6f207375622d70726f7879207461726765740000000000000000000000000000604082015250565b60006126a6605283612613565b91506126b182612624565b606082019050919050565b600060208201905081810360008301526126d581612699565b9050919050565b6000819050919050565b7f4e487b7100000000000000000000000000000000000000000000000000000000600052601160045260246000fd5b6000612720826126dc565b915061272b836126dc565b9250828203905081811115612743576127426126e6565b5b92915050565b6000819050919050565b61276461275f826120d9565b612749565b82525050565b6000819050919050565b6000819050919050565b61278f61278a8261276a565b612774565b82525050565b60006127a18285612753565b6004820191506127b1828461277e565b6020820191508190509392505050565b7f53706865726558206572726f723a206f70657261746f72207265717569726564600082015250565b60006127f7602083612613565b9150612802826127c1565b602082019050919050565b60006020820190508181036000830152612826816127ea565b9050919050565b600060408201905061284260008301856121c6565b61284f60208301846121c6565b9392505050565b7f53706865726558206572726f723a2061646d696e207265717569726564000000600082015250565b600061288c601d83612613565b915061289782612856565b602082019050919050565b600060208201905081810360008301526128bb8161287f565b9050919050565b7f53706865726558206572726f723a206e6f74207468652070656e64696e67206160008201527f63636f756e740000000000000000000000000000000000000000000000000000602082015250565b600061291e602683612613565b9150612929826128c2565b604082019050919050565b6000602082019050818103600083015261294d81612911565b9050919050565b7f53706865726558496e697469616c697a61626c653a20636f6e7472616374206960008201527f7320616c726561647920696e697469616c697a65640000000000000000000000602082015250565b60006129b0603583612613565b91506129bb82612954565b604082019050919050565b600060208201905081810360008301526129df816129a3565b9050919050565b7f4e487b7100000000000000000000000000000000000000000000000000000000600052603260045260246000fd5b6000612a20826126dc565b91507fffffffffffffffffffffffffffffffffffffffffffffffffffffffffffffffff8203612a5257612a516126e6565b5b600182019050919050565b600081519050919050565b600082825260208201905092915050565b6000819050602082019050919050565b612a92816120d9565b82525050565b6000612aa48383612a89565b60208301905092915050565b6000602082019050919050565b6000612ac882612a5d565b612ad28185612a68565b9350612add83612a79565b8060005b83811015612b0e578151612af58882612a98565b9750612b0083612ab0565b925050600181019050612ae1565b5085935050505092915050565b60006020820190508181036000830152612b358184612abd565b905092915050565b7f5472616e73706172656e745570677261646561626c6550726f78793a2061646d60008201527f696e2063616e6e6f742066616c6c6261636b20746f2070726f7879207461726760208201527f6574000000000000000000000000000000000000000000000000000000000000604082015250565b6000612bbf604283612613565b9150612bca82612b3d565b606082019050919050565b60006020820190508181036000830152612bee81612bb2565b9050919050565b612bfe816120d9565b82525050565b6000602082019050612c196000830184612bf5565b92915050565b612c288161215e565b8114612c3357600080fd5b50565b600081519050612c4581612c1f565b92915050565b600060208284031215612c6157612c606120cf565b5b6000612c6f84828501612c36565b91505092915050565b7f53706865726558206572726f723a206e6f7420612053706865726558456e676960008201527f6e65000000000000000000000000000000000000000000000000000000000000602082015250565b6000612cd4602283612613565b9150612cdf82612c78565b604082019050919050565b60006020820190508181036000830152612d0381612cc7565b9050919050565b600081519050919050565b600081905092915050565b60005b83811015612d3e578082015181840152602081019050612d23565b60008484015250505050565b6000612d5582612d0a565b612d5f8185612d15565b9350612d6f818560208601612d20565b80840191505092915050565b6000612d878284612d4a565b915081905092915050565b7f416464726573733a2063616c6c20746f206e6f6e2d636f6e7472616374000000600082015250565b6000612dc8601d83612613565b9150612dd382612d92565b602082019050919050565b60006020820190508181036000830152612df781612dbb565b9050919050565b7f455243313936373a206e65772061646d696e20697320746865207a65726f206160008201527f6464726573730000000000000000000000000000000000000000000000000000602082015250565b6000612e5a602683612613565b9150612e6582612dfe565b604082019050919050565b60006020820190508181036000830152612e8981612e4d565b9050919050565b600081519050919050565b6000612ea682612e90565b612eb08185612613565b9350612ec0818560208601612d20565b612ec9816122b5565b840191505092915050565b60006020820190508181036000830152612eee8184612e9b565b905092915050565b7f455243313936373a206e657720696d706c656d656e746174696f6e206973206e60008201527f6f74206120636f6e747261637400000000000000000000000000000000000000602082015250565b6000612f52602d83612613565b9150612f5d82612ef6565b604082019050919050565b60006020820190508181036000830152612f8181612f45565b9050919050565b6000819050919050565b6000612f9d82612f88565b91507f80000000000000000000000000000000000000000000000000000000000000008203612fcf57612fce6126e6565b5b816000039050919050565b612fe381612f88565b82525050565b600082825260208201905092915050565b60006130068385612fe9565b9350613013838584612538565b61301c836122b5565b840190509392505050565b600060608201905061303c6000830187612fda565b61304960208301866121c6565b818103604083015261305c818486612ffa565b905095945050505050565b600067ffffffffffffffff821115613082576130816122c6565b5b602082029050602081019050919050565b61309c8161276a565b81146130a757600080fd5b50565b6000815190506130b981613093565b92915050565b60006130d26130cd84613067565b612326565b905080838252602082019050602084028301858111156130f5576130f461236d565b5b835b8181101561311e578061310a88826130aa565b8452602084019350506020810190506130f7565b5050509392505050565b600082601f83011261313d5761313c6122b0565b5b815161314d8482602086016130bf565b91505092915050565b60006020828403121561316c5761316b6120cf565b5b600082015167ffffffffffffffff81111561318a576131896120d4565b5b61319684828501613128565b91505092915050565b60006020820190506131b46000830184612fda565b92915050565b6131c3816126dc565b82525050565b600081519050919050565b600082825260208201905092915050565b6000819050602082019050919050565b6131fe8161276a565b82525050565b600061321083836131f5565b60208301905092915050565b6000602082019050919050565b6000613234826131c9565b61323e81856131d4565b9350613249836131e5565b8060005b8381101561327a5781516132618882613204565b975061326c8361321c565b92505060018101905061324d565b5085935050505092915050565b600060808201905061329c6000830187612fda565b6132a960208301866131ba565b81810360408301526132bb8185613229565b905081810360608301526132cf8184613229565b90509594505050505056fe416464726573733a206c6f772d6c6576656c2064656c65676174652063616c6c206661696c6564a26469706673582212207b0dad45c80af7f3258224bb8b3cf7659cf40dc0f97ba1379e9761b60c64618064736f6c63430008130033416464726573733a206c6f772d6c6576656c2064656c65676174652063616c6c206661696c6564",
  "linkReferences": {},
  "deployedLinkReferences": {}
}