{
  "_format": "hh-sol-artifact-1",
  "contractName": "ProtectedERC1967Proxy",
  "sourceName": "src/ProtectedProxies/ProtectedERC1967Proxy.sol",
  "abi": [
    {
      "inputs": [
        {
          "internalType": "address",
          "name": "_logic",
          "type": "address"
        },
        {
          "internalType": "bytes",
          "name": "_data",
          "type": "bytes"
        }
      ],
      "stateMutability": "nonpayable",
      "type": "constructor"
    },
    {
      "anonymous": false,
      "inputs": [
        {
          "indexed": false,
          "internalType": "bytes4[]",
          "name": "patterns",
          "type": "bytes4[]"
        }
      ],
      "name": "AddedProtectedFuncSigs",
      "type": "event"
    },
    {
      "anonymous": false,
      "inputs": [
        {
          "indexed": false,
          "internalType": "address",
          "name": "previousAdmin",
          "type": "address"
        },
        {
          "indexed": false,
          "internalType": "address",
          "name": "newAdmin",
          "type": "address"
        }
      ],
      "name": "AdminChanged",
      "type": "event"
    },
    {
      "anonymous": false,
      "inputs": [
        {
          "indexed": true,
          "internalType": "address",
          "name": "beacon",
          "type": "address"
        }
      ],
      "name": "BeaconUpgraded",
      "type": "event"
    },
    {
      "anonymous": false,
      "inputs": [
        {
          "indexed": false,
          "internalType": "address",
          "name": "oldEngineAddress",
          "type": "address"
        },
        {
          "indexed": false,
          "internalType": "address",
          "name": "newEngineAddress",
          "type": "address"
        }
      ],
      "name": "ChangedSpherexEngineAddress",
      "type": "event"
    },
    {
      "anonymous": false,
      "inputs": [
        {
          "indexed": false,
          "internalType": "address",
          "name": "oldSphereXAdmin",
          "type": "address"
        },
        {
          "indexed": false,
          "internalType": "address",
          "name": "newSphereXAdmin",
          "type": "address"
        }
      ],
      "name": "ChangedSpherexOperator",
      "type": "event"
    },
    {
      "anonymous": false,
      "inputs": [
        {
          "indexed": false,
          "internalType": "bytes4[]",
          "name": "patterns",
          "type": "bytes4[]"
        }
      ],
      "name": "RemovedProtectedFuncSigs",
      "type": "event"
    },
    {
      "anonymous": false,
      "inputs": [
        {
          "indexed": false,
          "internalType": "address",
          "name": "oldAdmin",
          "type": "address"
        },
        {
          "indexed": false,
          "internalType": "address",
          "name": "newAdmin",
          "type": "address"
        }
      ],
      "name": "SpherexAdminTransferCompleted",
      "type": "event"
    },
    {
      "anonymous": false,
      "inputs": [
        {
          "indexed": false,
          "internalType": "address",
          "name": "currentAdmin",
          "type": "address"
        },
        {
          "indexed": false,
          "internalType": "address",
          "name": "pendingAdmin",
          "type": "address"
        }
      ],
      "name": "SpherexAdminTransferStarted",
      "type": "event"
    },
    {
      "anonymous": false,
      "inputs": [
        {
          "indexed": true,
          "internalType": "address",
          "name": "implementation",
          "type": "address"
        }
      ],
      "name": "Upgraded",
      "type": "event"
    },
    {
      "stateMutability": "payable",
      "type": "fallback"
    },
    {
      "inputs": [],
      "name": "acceptSphereXAdminRole",
      "outputs": [],
      "stateMutability": "nonpayable",
      "type": "function"
    },
    {
      "inputs": [
        {
          "internalType": "bytes4[]",
          "name": "keys",
          "type": "bytes4[]"
        }
      ],
      "name": "addProtectedFuncSigs",
      "outputs": [],
      "stateMutability": "nonpayable",
      "type": "function"
    },
    {
      "inputs": [
        {
          "internalType": "address",
          "name": "newSphereXEngine",
          "type": "address"
        }
      ],
      "name": "changeSphereXEngine",
      "outputs": [],
      "stateMutability": "nonpayable",
      "type": "function"
    },
    {
      "inputs": [
        {
          "internalType": "address",
          "name": "newSphereXOperator",
          "type": "address"
        }
      ],
      "name": "changeSphereXOperator",
      "outputs": [],
      "stateMutability": "nonpayable",
      "type": "function"
    },
    {
      "inputs": [
        {
          "internalType": "bytes4",
          "name": "func_sig",
          "type": "bytes4"
        }
      ],
      "name": "isProtectedFuncSig",
      "outputs": [
        {
          "internalType": "bool",
          "name": "value",
          "type": "bool"
        }
      ],
      "stateMutability": "view",
      "type": "function"
    },
    {
      "inputs": [],
      "name": "pendingSphereXAdmin",
      "outputs": [
        {
          "internalType": "address",
          "name": "",
          "type": "address"
        }
      ],
      "stateMutability": "view",
      "type": "function"
    },
    {
      "inputs": [
        {
          "internalType": "bytes4[]",
          "name": "keys",
          "type": "bytes4[]"
        }
      ],
      "name": "removeProtectedFuncSigs",
      "outputs": [],
      "stateMutability": "nonpayable",
      "type": "function"
    },
    {
      "inputs": [],
      "name": "sphereXAdmin",
      "outputs": [
        {
          "internalType": "address",
          "name": "",
          "type": "address"
        }
      ],
      "stateMutability": "view",
      "type": "function"
    },
    {
      "inputs": [],
      "name": "sphereXEngine",
      "outputs": [
        {
          "internalType": "address",
          "name": "",
          "type": "address"
        }
      ],
      "stateMutability": "view",
      "type": "function"
    },
    {
      "inputs": [],
      "name": "sphereXOperator",
      "outputs": [
        {
          "internalType": "address",
          "name": "",
          "type": "address"
        }
      ],
      "stateMutability": "view",
      "type": "function"
    },
    {
      "inputs": [
        {
          "internalType": "address",
          "name": "newAdmin",
          "type": "address"
        }
      ],
      "name": "transferSphereXAdminRole",
      "outputs": [],
      "stateMutability": "nonpayable",
      "type": "function"
    },
    {
      "stateMutability": "payable",
      "type": "receive"
    }
  ],
  "bytecode": "0x60806040523480156200001157600080fd5b5060405162002f4b38038062002f4b8339818101604052810190620000379190620008a2565b81813360008082828282828262000056838383620000e760201b60201c565b50505050505050505060017f360894a13ba1a3210667c828492db98dca3e2076cc3735a920a3ca505d382bbd60001c62000091919062000941565b60001b7f360894a13ba1a3210667c828492db98dca3e2076cc3735a920a3ca505d382bbc60001b14620000c957620000c86200097c565b5b620000dd828260006200028360201b60201c565b5050505062000d61565b6200012d60017fca334bf49ef20e9cbff039feda3bc1c2a853aff17b1b5187e4aa1380ec55829d60001c6200011d919062000941565b60001b84620002c160201b60201c565b7f67ebaebcd2ca5a91a404e898110f221747e8d15567f2388a34794aab151cf3e660008460405162000161929190620009bc565b60405180910390a1620001af60017fadf90d75f0f2d657d5a22fa0f6e4dabb83c4598b77158eb4119cb38f1d86446360001c6200019f919062000941565b60001b83620002c160201b60201c565b7f2ac55ae7ba47db34b5334622acafeb34a65daf143b47019273185d64c73a35a5600083604051620001e3929190620009bc565b60405180910390a1620001fc81620002c860201b60201c565b6200024260017f1777adabd324f814e2b0e28f6edf876dce01d7d66358c9acfe87b1b5f38338d660001c62000232919062000941565b60001b82620002c160201b60201c565b7ff33499cccaa0611882086224cc48cd82ef54b66a4d2edf4ed67108dd516896d560008260405162000276929190620009bc565b60405180910390a1505050565b6200029483620003e460201b60201c565b600082511180620002a25750805b15620002bc57620002ba83836200043b60201b60201c565b505b505050565b8082555050565b600073ffffffffffffffffffffffffffffffffffffffff168173ffffffffffffffffffffffffffffffffffffffff1614806200039f57508073ffffffffffffffffffffffffffffffffffffffff166301ffc9a77f53e41baa000000000000000000000000000000000000000000000000000000006040518263ffffffff1660e01b81526004016200035a919062000a26565b602060405180830381865afa15801562000378573d6000803e3d6000fd5b505050506040513d601f19601f820116820180604052508101906200039e919062000a80565b5b620003e1576040517f08c379a0000000000000000000000000000000000000000000000000000000008152600401620003d89062000b39565b60405180910390fd5b50565b620003f5816200047160201b60201c565b8073ffffffffffffffffffffffffffffffffffffffff167fbc7cd75a20ee27fd9adebab32041f755214dbc6bffa90cc0225b39da2e5c2d3b60405160405180910390a250565b606062000469838360405180606001604052806027815260200162002f24602791396200053d60201b60201c565b905092915050565b62000482816200062160201b60201c565b620004c4576040517f08c379a0000000000000000000000000000000000000000000000000000000008152600401620004bb9062000bd1565b60405180910390fd5b80620004f97f360894a13ba1a3210667c828492db98dca3e2076cc3735a920a3ca505d382bbc60001b6200063460201b60201c565b60000160006101000a81548173ffffffffffffffffffffffffffffffffffffffff021916908373ffffffffffffffffffffffffffffffffffffffff16021790555050565b606062000550846200062160201b60201c565b62000592576040517f08c379a0000000000000000000000000000000000000000000000000000000008152600401620005899062000c69565b60405180910390fd5b6000808573ffffffffffffffffffffffffffffffffffffffff1685604051620005bc919062000cd8565b600060405180830381855af49150503d8060008114620005f9576040519150601f19603f3d011682016040523d82523d6000602084013e620005fe565b606091505b5091509150620006168282866200063e60201b60201c565b925050509392505050565b600080823b905060008111915050919050565b6000819050919050565b606083156200065057829050620006a3565b600083511115620006645782518084602001fd5b816040517f08c379a00000000000000000000000000000000000000000000000000000000081526004016200069a919062000d3d565b60405180910390fd5b9392505050565b6000604051905090565b600080fd5b600080fd5b600073ffffffffffffffffffffffffffffffffffffffff82169050919050565b6000620006eb82620006be565b9050919050565b620006fd81620006de565b81146200070957600080fd5b50565b6000815190506200071d81620006f2565b92915050565b600080fd5b600080fd5b6000601f19601f8301169050919050565b7f4e487b7100000000000000000000000000000000000000000000000000000000600052604160045260246000fd5b62000778826200072d565b810181811067ffffffffffffffff821117156200079a57620007996200073e565b5b80604052505050565b6000620007af620006aa565b9050620007bd82826200076d565b919050565b600067ffffffffffffffff821115620007e057620007df6200073e565b5b620007eb826200072d565b9050602081019050919050565b60005b8381101562000818578082015181840152602081019050620007fb565b60008484015250505050565b60006200083b6200083584620007c2565b620007a3565b9050828152602081018484840111156200085a576200085962000728565b5b62000867848285620007f8565b509392505050565b600082601f83011262000887576200088662000723565b5b81516200089984826020860162000824565b91505092915050565b60008060408385031215620008bc57620008bb620006b4565b5b6000620008cc858286016200070c565b925050602083015167ffffffffffffffff811115620008f057620008ef620006b9565b5b620008fe858286016200086f565b9150509250929050565b6000819050919050565b7f4e487b7100000000000000000000000000000000000000000000000000000000600052601160045260246000fd5b60006200094e8262000908565b91506200095b8362000908565b925082820390508181111562000976576200097562000912565b5b92915050565b7f4e487b7100000000000000000000000000000000000000000000000000000000600052600160045260246000fd5b620009b681620006de565b82525050565b6000604082019050620009d36000830185620009ab565b620009e26020830184620009ab565b9392505050565b60007fffffffff0000000000000000000000000000000000000000000000000000000082169050919050565b62000a2081620009e9565b82525050565b600060208201905062000a3d600083018462000a15565b92915050565b60008115159050919050565b62000a5a8162000a43565b811462000a6657600080fd5b50565b60008151905062000a7a8162000a4f565b92915050565b60006020828403121562000a995762000a98620006b4565b5b600062000aa98482850162000a69565b91505092915050565b600082825260208201905092915050565b7f53706865726558206572726f723a206e6f7420612053706865726558456e676960008201527f6e65000000000000000000000000000000000000000000000000000000000000602082015250565b600062000b2160228362000ab2565b915062000b2e8262000ac3565b604082019050919050565b6000602082019050818103600083015262000b548162000b12565b9050919050565b7f455243313936373a206e657720696d706c656d656e746174696f6e206973206e60008201527f6f74206120636f6e747261637400000000000000000000000000000000000000602082015250565b600062000bb9602d8362000ab2565b915062000bc68262000b5b565b604082019050919050565b6000602082019050818103600083015262000bec8162000baa565b9050919050565b7f416464726573733a2064656c65676174652063616c6c20746f206e6f6e2d636f60008201527f6e74726163740000000000000000000000000000000000000000000000000000602082015250565b600062000c5160268362000ab2565b915062000c5e8262000bf3565b604082019050919050565b6000602082019050818103600083015262000c848162000c42565b9050919050565b600081519050919050565b600081905092915050565b600062000cae8262000c8b565b62000cba818562000c96565b935062000ccc818560208601620007f8565b80840191505092915050565b600062000ce6828462000ca1565b915081905092915050565b600081519050919050565b600062000d098262000cf1565b62000d15818562000ab2565b935062000d27818560208601620007f8565b62000d32816200072d565b840191505092915050565b6000602082019050818103600083015262000d59818462000cfc565b905092915050565b6121b38062000d716000396000f3fe6080604052600436106100a05760003560e01c806399e80f3b1161006457806399e80f3b1461018a5780639aa9019e146101b5578063a7fdd047146101e0578063cc5b745014610209578063daba7ef714610232578063e7e5db4f1461025b576100af565b8063021a5fe5146100b95780633c231166146100f65780634c6c848f146101215780634ee8f8581461014a5780638426b96814610173576100af565b366100af576100ad610286565b005b6100b7610286565b005b3480156100c557600080fd5b506100e060048036038101906100db91906114c6565b6102a0565b6040516100ed919061150e565b60405180910390f35b34801561010257600080fd5b5061010b61030a565b604051610118919061156a565b60405180910390f35b34801561012d57600080fd5b50610148600480360381019061014391906115b1565b61034c565b005b34801561015657600080fd5b50610171600480360381019061016c91906115b1565b6104b5565b005b34801561017f57600080fd5b50610188610615565b005b34801561019657600080fd5b5061019f61074b565b6040516101ac919061156a565b60405180910390f35b3480156101c157600080fd5b506101ca61078d565b6040516101d7919061156a565b60405180910390f35b3480156101ec57600080fd5b5061020760048036038101906102029190611737565b6107cf565b005b34801561021557600080fd5b50610230600480360381019061022b9190611737565b6108f4565b005b34801561023e57600080fd5b50610259600480360381019061025491906115b1565b610a19565b005b34801561026757600080fd5b50610270610b40565b60405161027d919061156a565b60405180910390f35b61028e610b82565b61029e610299610b84565b610b93565b565b6000808260017f9a7afc584486ebd3e91191a9ac2c2e986b3aaa4084656fc915fe0843ff009c6b60001c6102d491906117b9565b60001b6040516020016102e8929190611839565b6040516020818303038152906040528051906020012090508054915050919050565b600061034760017f1777adabd324f814e2b0e28f6edf876dce01d7d66358c9acfe87b1b5f38338d660001c61033f91906117b9565b60001b610b9f565b905090565b61038760017fadf90d75f0f2d657d5a22fa0f6e4dabb83c4598b77158eb4119cb38f1d86446360001c61037f91906117b9565b60001b610b9f565b73ffffffffffffffffffffffffffffffffffffffff163373ffffffffffffffffffffffffffffffffffffffff16146103f4576040517f08c379a00000000000000000000000000000000000000000000000000000000081526004016103eb906118c2565b60405180910390fd5b6103fd81610baa565b600061043a60017f1777adabd324f814e2b0e28f6edf876dce01d7d66358c9acfe87b1b5f38338d660001c61043291906117b9565b60001b610b9f565b905061047860017f1777adabd324f814e2b0e28f6edf876dce01d7d66358c9acfe87b1b5f38338d660001c61046f91906117b9565b60001b83610cbd565b7ff33499cccaa0611882086224cc48cd82ef54b66a4d2edf4ed67108dd516896d581836040516104a99291906118e2565b60405180910390a15050565b6104f060017fca334bf49ef20e9cbff039feda3bc1c2a853aff17b1b5187e4aa1380ec55829d60001c6104e891906117b9565b60001b610b9f565b73ffffffffffffffffffffffffffffffffffffffff163373ffffffffffffffffffffffffffffffffffffffff161461055d576040517f08c379a000000000000000000000000000000000000000000000000000000000815260040161055490611957565b60405180910390fd5b600061059a60017fadf90d75f0f2d657d5a22fa0f6e4dabb83c4598b77158eb4119cb38f1d86446360001c61059291906117b9565b60001b610b9f565b90506105d860017fadf90d75f0f2d657d5a22fa0f6e4dabb83c4598b77158eb4119cb38f1d86446360001c6105cf91906117b9565b60001b83610cbd565b7f2ac55ae7ba47db34b5334622acafeb34a65daf143b47019273185d64c73a35a581836040516106099291906118e2565b60405180910390a15050565b3373ffffffffffffffffffffffffffffffffffffffff1661063461078d565b73ffffffffffffffffffffffffffffffffffffffff161461068a576040517f08c379a0000000000000000000000000000000000000000000000000000000008152600401610681906119e9565b60405180910390fd5b600061069461074b565b90506106d260017fca334bf49ef20e9cbff039feda3bc1c2a853aff17b1b5187e4aa1380ec55829d60001c6106c991906117b9565b60001b33610cbd565b61070f60017f3a517dd736309b905c692160a21b5439bdc56db1dc77d6982b66d44814e3fa9760001c61070591906117b9565b60001b6000610cbd565b7f67ebaebcd2ca5a91a404e898110f221747e8d15567f2388a34794aab151cf3e681336040516107409291906118e2565b60405180910390a150565b600061078860017fca334bf49ef20e9cbff039feda3bc1c2a853aff17b1b5187e4aa1380ec55829d60001c61078091906117b9565b60001b610b9f565b905090565b60006107ca60017f3a517dd736309b905c692160a21b5439bdc56db1dc77d6982b66d44814e3fa9760001c6107c291906117b9565b60001b610b9f565b905090565b61080a60017fadf90d75f0f2d657d5a22fa0f6e4dabb83c4598b77158eb4119cb38f1d86446360001c61080291906117b9565b60001b610b9f565b73ffffffffffffffffffffffffffffffffffffffff163373ffffffffffffffffffffffffffffffffffffffff1614610877576040517f08c379a000000000000000000000000000000000000000000000000000000000815260040161086e906118c2565b60405180910390fd5b60005b81518110156108b9576108a882828151811061089957610898611a09565b5b60200260200101516000610cc4565b806108b290611a38565b905061087a565b507f754b9f3148ad4cf227ecdf9a64810fa2d0b8682a2de15dfad5310a12b7281a5f816040516108e99190611b3e565b60405180910390a150565b61092f60017fadf90d75f0f2d657d5a22fa0f6e4dabb83c4598b77158eb4119cb38f1d86446360001c61092791906117b9565b60001b610b9f565b73ffffffffffffffffffffffffffffffffffffffff163373ffffffffffffffffffffffffffffffffffffffff161461099c576040517f08c379a0000000000000000000000000000000000000000000000000000000008152600401610993906118c2565b60405180910390fd5b60005b81518110156109de576109cd8282815181106109be576109bd611a09565b5b60200260200101516001610cc4565b806109d790611a38565b905061099f565b507f45fc6a4de33dfc2fa6f40e48f353bf7ff006086db3ecf80c077f788082cc7d5a81604051610a0e9190611b3e565b60405180910390a150565b610a5460017fca334bf49ef20e9cbff039feda3bc1c2a853aff17b1b5187e4aa1380ec55829d60001c610a4c91906117b9565b60001b610b9f565b73ffffffffffffffffffffffffffffffffffffffff163373ffffffffffffffffffffffffffffffffffffffff1614610ac1576040517f08c379a0000000000000000000000000000000000000000000000000000000008152600401610ab890611957565b60405180910390fd5b610afd60017f3a517dd736309b905c692160a21b5439bdc56db1dc77d6982b66d44814e3fa9760001c610af491906117b9565b60001b82610cbd565b7f5778f1547abbbb86090a43c32aec38334b31df4beeb6f8f3fa063f593b53a526610b2661074b565b82604051610b359291906118e2565b60405180910390a150565b6000610b7d60017fadf90d75f0f2d657d5a22fa0f6e4dabb83c4598b77158eb4119cb38f1d86446360001c610b7591906117b9565b60001b610b9f565b905090565b565b6000610b8e610d2b565b905090565b610b9c81610d82565b50565b600081549050919050565b600073ffffffffffffffffffffffffffffffffffffffff168173ffffffffffffffffffffffffffffffffffffffff161480610c7b57508073ffffffffffffffffffffffffffffffffffffffff166301ffc9a77f53e41baa000000000000000000000000000000000000000000000000000000006040518263ffffffff1660e01b8152600401610c399190611b6f565b602060405180830381865afa158015610c56573d6000803e3d6000fd5b505050506040513d601f19601f82011682018060405250810190610c7a9190611bb6565b5b610cba576040517f08c379a0000000000000000000000000000000000000000000000000000000008152600401610cb190611c55565b60405180910390fd5b50565b8082555050565b60008260017f9a7afc584486ebd3e91191a9ac2c2e986b3aaa4084656fc915fe0843ff009c6b60001c610cf791906117b9565b60001b604051602001610d0b929190611839565b604051602081830303815290604052805190602001209050818155505050565b6000610d597f360894a13ba1a3210667c828492db98dca3e2076cc3735a920a3ca505d382bbc60001b610dda565b60000160009054906101000a900473ffffffffffffffffffffffffffffffffffffffff16905090565b610daf6000357fffffffff00000000000000000000000000000000000000000000000000000000166102a0565b15610dce576000610dbf82610de4565b90506000815190508060208301f35b610dd781610e90565b50565b6000819050919050565b60606000357fffffffff000000000000000000000000000000000000000000000000000000001660e01c63ffffffff166000610e21826001610eb6565b9050610e72846000368080601f016020809104026020016040519081016040528093929190818152602001838380828437600081840152601f19601f82011690508083019250505050505050611052565b9250610e8982610e8190611c7f565b60018361107f565b5050919050565b3660008037600080366000845af43d6000803e8060008114610eb1573d6000f35b3d6000fd5b610ebe611439565b600073ffffffffffffffffffffffffffffffffffffffff16610ede6111eb565b73ffffffffffffffffffffffffffffffffffffffff16031561104c576000610f046111eb565b90508215610fa1578073ffffffffffffffffffffffffffffffffffffffff16638925ca5a85336000366040518563ffffffff1660e01b8152600401610f4c9493929190611d23565b6000604051808303816000875af1158015610f6b573d6000803e3d6000fd5b505050506040513d6000823e3d601f19601f82011682018060405250810190610f949190611e52565b826000018190525061102b565b8073ffffffffffffffffffffffffffffffffffffffff16633e884943856040518263ffffffff1660e01b8152600401610fda9190611e9b565b6000604051808303816000875af1158015610ff9573d6000803e3d6000fd5b505050506040513d6000823e3d601f19601f820116820180604052508101906110229190611e52565b82600001819052505b611038826000015161122d565b82602001819052505a826040018181525050505b92915050565b60606110778383604051806060016040528060278152602001612157602791396112f2565b905092915050565b600073ffffffffffffffffffffffffffffffffffffffff1661109f6111eb565b73ffffffffffffffffffffffffffffffffffffffff1603156111e65760005a82604001516110cd91906117b9565b905060006110d96111eb565b905060606110ea846000015161122d565b9050841561116c578173ffffffffffffffffffffffffffffffffffffffff1663f0bd946887858760200151856040518563ffffffff1660e01b81526004016111359493929190611f83565b600060405180830381600087803b15801561114f57600080fd5b505af1158015611163573d6000803e3d6000fd5b505050506111e2565b8173ffffffffffffffffffffffffffffffffffffffff166304e6279a87858760200151856040518563ffffffff1660e01b81526004016111af9493929190611f83565b600060405180830381600087803b1580156111c957600080fd5b505af11580156111dd573d6000803e3d6000fd5b505050505b5050505b505050565b600061122860017f1777adabd324f814e2b0e28f6edf876dce01d7d66358c9acfe87b1b5f38338d660001c61122091906117b9565b60001b610b9f565b905090565b606060008251905060008167ffffffffffffffff811115611251576112506115f4565b5b60405190808252806020026020018201604052801561127f5781602001602082028036833780820191505090505b50905060005b828110156112e75760008582815181106112a2576112a1611a09565b5b60200260200101519050600081549050808484815181106112c6576112c5611a09565b5b602002602001018181525050505080806112df90611a38565b915050611285565b508092505050919050565b60606112fd846113bf565b61133c576040517f08c379a000000000000000000000000000000000000000000000000000000000815260040161133390612048565b60405180910390fd5b6000808573ffffffffffffffffffffffffffffffffffffffff168560405161136491906120d9565b600060405180830381855af49150503d806000811461139f576040519150601f19603f3d011682016040523d82523d6000602084013e6113a4565b606091505b50915091506113b48282866113d2565b925050509392505050565b600080823b905060008111915050919050565b606083156113e257829050611432565b6000835111156113f55782518084602001fd5b816040517f08c379a00000000000000000000000000000000000000000000000000000000081526004016114299190612134565b60405180910390fd5b9392505050565b60405180606001604052806060815260200160608152602001600081525090565b6000604051905090565b600080fd5b600080fd5b60007fffffffff0000000000000000000000000000000000000000000000000000000082169050919050565b6114a38161146e565b81146114ae57600080fd5b50565b6000813590506114c08161149a565b92915050565b6000602082840312156114dc576114db611464565b5b60006114ea848285016114b1565b91505092915050565b60008115159050919050565b611508816114f3565b82525050565b600060208201905061152360008301846114ff565b92915050565b600073ffffffffffffffffffffffffffffffffffffffff82169050919050565b600061155482611529565b9050919050565b61156481611549565b82525050565b600060208201905061157f600083018461155b565b92915050565b61158e81611549565b811461159957600080fd5b50565b6000813590506115ab81611585565b92915050565b6000602082840312156115c7576115c6611464565b5b60006115d58482850161159c565b91505092915050565b600080fd5b6000601f19601f8301169050919050565b7f4e487b7100000000000000000000000000000000000000000000000000000000600052604160045260246000fd5b61162c826115e3565b810181811067ffffffffffffffff8211171561164b5761164a6115f4565b5b80604052505050565b600061165e61145a565b905061166a8282611623565b919050565b600067ffffffffffffffff82111561168a576116896115f4565b5b602082029050602081019050919050565b600080fd5b60006116b36116ae8461166f565b611654565b905080838252602082019050602084028301858111156116d6576116d561169b565b5b835b818110156116ff57806116eb88826114b1565b8452602084019350506020810190506116d8565b5050509392505050565b600082601f83011261171e5761171d6115de565b5b813561172e8482602086016116a0565b91505092915050565b60006020828403121561174d5761174c611464565b5b600082013567ffffffffffffffff81111561176b5761176a611469565b5b61177784828501611709565b91505092915050565b6000819050919050565b7f4e487b7100000000000000000000000000000000000000000000000000000000600052601160045260246000fd5b60006117c482611780565b91506117cf83611780565b92508282039050818111156117e7576117e661178a565b5b92915050565b6000819050919050565b6118086118038261146e565b6117ed565b82525050565b6000819050919050565b6000819050919050565b61183361182e8261180e565b611818565b82525050565b600061184582856117f7565b6004820191506118558284611822565b6020820191508190509392505050565b600082825260208201905092915050565b7f53706865726558206572726f723a206f70657261746f72207265717569726564600082015250565b60006118ac602083611865565b91506118b782611876565b602082019050919050565b600060208201905081810360008301526118db8161189f565b9050919050565b60006040820190506118f7600083018561155b565b611904602083018461155b565b9392505050565b7f53706865726558206572726f723a2061646d696e207265717569726564000000600082015250565b6000611941601d83611865565b915061194c8261190b565b602082019050919050565b6000602082019050818103600083015261197081611934565b9050919050565b7f53706865726558206572726f723a206e6f74207468652070656e64696e67206160008201527f63636f756e740000000000000000000000000000000000000000000000000000602082015250565b60006119d3602683611865565b91506119de82611977565b604082019050919050565b60006020820190508181036000830152611a02816119c6565b9050919050565b7f4e487b7100000000000000000000000000000000000000000000000000000000600052603260045260246000fd5b6000611a4382611780565b91507fffffffffffffffffffffffffffffffffffffffffffffffffffffffffffffffff8203611a7557611a7461178a565b5b600182019050919050565b600081519050919050565b600082825260208201905092915050565b6000819050602082019050919050565b611ab58161146e565b82525050565b6000611ac78383611aac565b60208301905092915050565b6000602082019050919050565b6000611aeb82611a80565b611af58185611a8b565b9350611b0083611a9c565b8060005b83811015611b31578151611b188882611abb565b9750611b2383611ad3565b925050600181019050611b04565b5085935050505092915050565b60006020820190508181036000830152611b588184611ae0565b905092915050565b611b698161146e565b82525050565b6000602082019050611b846000830184611b60565b92915050565b611b93816114f3565b8114611b9e57600080fd5b50565b600081519050611bb081611b8a565b92915050565b600060208284031215611bcc57611bcb611464565b5b6000611bda84828501611ba1565b91505092915050565b7f53706865726558206572726f723a206e6f7420612053706865726558456e676960008201527f6e65000000000000000000000000000000000000000000000000000000000000602082015250565b6000611c3f602283611865565b9150611c4a82611be3565b604082019050919050565b60006020820190508181036000830152611c6e81611c32565b9050919050565b6000819050919050565b6000611c8a82611c75565b91507f80000000000000000000000000000000000000000000000000000000000000008203611cbc57611cbb61178a565b5b816000039050919050565b611cd081611c75565b82525050565b600082825260208201905092915050565b82818337600083830152505050565b6000611d028385611cd6565b9350611d0f838584611ce7565b611d18836115e3565b840190509392505050565b6000606082019050611d386000830187611cc7565b611d45602083018661155b565b8181036040830152611d58818486611cf6565b905095945050505050565b600067ffffffffffffffff821115611d7e57611d7d6115f4565b5b602082029050602081019050919050565b611d988161180e565b8114611da357600080fd5b50565b600081519050611db581611d8f565b92915050565b6000611dce611dc984611d63565b611654565b90508083825260208201905060208402830185811115611df157611df061169b565b5b835b81811015611e1a5780611e068882611da6565b845260208401935050602081019050611df3565b5050509392505050565b600082601f830112611e3957611e386115de565b5b8151611e49848260208601611dbb565b91505092915050565b600060208284031215611e6857611e67611464565b5b600082015167ffffffffffffffff811115611e8657611e85611469565b5b611e9284828501611e24565b91505092915050565b6000602082019050611eb06000830184611cc7565b92915050565b611ebf81611780565b82525050565b600081519050919050565b600082825260208201905092915050565b6000819050602082019050919050565b611efa8161180e565b82525050565b6000611f0c8383611ef1565b60208301905092915050565b6000602082019050919050565b6000611f3082611ec5565b611f3a8185611ed0565b9350611f4583611ee1565b8060005b83811015611f76578151611f5d8882611f00565b9750611f6883611f18565b925050600181019050611f49565b5085935050505092915050565b6000608082019050611f986000830187611cc7565b611fa56020830186611eb6565b8181036040830152611fb78185611f25565b90508181036060830152611fcb8184611f25565b905095945050505050565b7f416464726573733a2064656c65676174652063616c6c20746f206e6f6e2d636f60008201527f6e74726163740000000000000000000000000000000000000000000000000000602082015250565b6000612032602683611865565b915061203d82611fd6565b604082019050919050565b6000602082019050818103600083015261206181612025565b9050919050565b600081519050919050565b600081905092915050565b60005b8381101561209c578082015181840152602081019050612081565b60008484015250505050565b60006120b382612068565b6120bd8185612073565b93506120cd81856020860161207e565b80840191505092915050565b60006120e582846120a8565b915081905092915050565b600081519050919050565b6000612106826120f0565b6121108185611865565b935061212081856020860161207e565b612129816115e3565b840191505092915050565b6000602082019050818103600083015261214e81846120fb565b90509291505056fe416464726573733a206c6f772d6c6576656c2064656c65676174652063616c6c206661696c6564a264697066735822122064ea719b4a15070a30e8d83887882ef1a4b1f0cfcc1f33dd87ef7a5fdd52fc6764736f6c63430008130033416464726573733a206c6f772d6c6576656c2064656c65676174652063616c6c206661696c6564",
  "linkReferences": {},
  "deployedLinkReferences": {}
}