{
  "_format": "hh-sol-artifact-1",
  "contractName": "ProtectedERC1967Proxy",
  "sourceName": "src/ProtectedProxies/ProtectedERC1967Proxy.sol",
  "abi": [
    {
      "inputs": [
        {
          "internalType": "address",
          "name": "_logic",
          "type": "address"
        },
        {
          "internalType": "bytes",
          "name": "_data",
          "type": "bytes"
        }
      ],
      "stateMutability": "nonpayable",
      "type": "constructor"
    },
    {
      "anonymous": false,
      "inputs": [
        {
          "indexed": false,
          "internalType": "bytes4[]",
          "name": "patterns",
          "type": "bytes4[]"
        }
      ],
      "name": "AddedProtectedFuncSigs",
      "type": "event"
    },
    {
      "anonymous": false,
      "inputs": [
        {
          "indexed": false,
          "internalType": "address",
          "name": "previousAdmin",
          "type": "address"
        },
        {
          "indexed": false,
          "internalType": "address",
          "name": "newAdmin",
          "type": "address"
        }
      ],
      "name": "AdminChanged",
      "type": "event"
    },
    {
      "anonymous": false,
      "inputs": [
        {
          "indexed": true,
          "internalType": "address",
          "name": "beacon",
          "type": "address"
        }
      ],
      "name": "BeaconUpgraded",
      "type": "event"
    },
    {
      "anonymous": false,
      "inputs": [
        {
          "indexed": false,
          "internalType": "address",
          "name": "oldEngineAddress",
          "type": "address"
        },
        {
          "indexed": false,
          "internalType": "address",
          "name": "newEngineAddress",
          "type": "address"
        }
      ],
      "name": "ChangedSpherexEngineAddress",
      "type": "event"
    },
    {
      "anonymous": false,
      "inputs": [
        {
          "indexed": false,
          "internalType": "address",
          "name": "oldSphereXAdmin",
          "type": "address"
        },
        {
          "indexed": false,
          "internalType": "address",
          "name": "newSphereXAdmin",
          "type": "address"
        }
      ],
      "name": "ChangedSpherexOperator",
      "type": "event"
    },
    {
      "anonymous": false,
      "inputs": [
        {
          "indexed": false,
          "internalType": "bytes4[]",
          "name": "patterns",
          "type": "bytes4[]"
        }
      ],
      "name": "RemovedProtectedFuncSigs",
      "type": "event"
    },
    {
      "anonymous": false,
      "inputs": [
        {
          "indexed": false,
          "internalType": "address",
          "name": "oldAdmin",
          "type": "address"
        },
        {
          "indexed": false,
          "internalType": "address",
          "name": "newAdmin",
          "type": "address"
        }
      ],
      "name": "SpherexAdminTransferCompleted",
      "type": "event"
    },
    {
      "anonymous": false,
      "inputs": [
        {
          "indexed": false,
          "internalType": "address",
          "name": "currentAdmin",
          "type": "address"
        },
        {
          "indexed": false,
          "internalType": "address",
          "name": "pendingAdmin",
          "type": "address"
        }
      ],
      "name": "SpherexAdminTransferStarted",
      "type": "event"
    },
    {
      "anonymous": false,
      "inputs": [
        {
          "indexed": true,
          "internalType": "address",
          "name": "implementation",
          "type": "address"
        }
      ],
      "name": "Upgraded",
      "type": "event"
    },
    {
      "stateMutability": "payable",
      "type": "fallback"
    },
    {
      "inputs": [],
      "name": "acceptSphereXAdminRole",
      "outputs": [],
      "stateMutability": "nonpayable",
      "type": "function"
    },
    {
      "inputs": [
        {
          "internalType": "bytes4[]",
          "name": "keys",
          "type": "bytes4[]"
        }
      ],
      "name": "addProtectedFuncSigs",
      "outputs": [],
      "stateMutability": "nonpayable",
      "type": "function"
    },
    {
      "inputs": [
        {
          "internalType": "address",
          "name": "newSphereXEngine",
          "type": "address"
        }
      ],
      "name": "changeSphereXEngine",
      "outputs": [],
      "stateMutability": "nonpayable",
      "type": "function"
    },
    {
      "inputs": [
        {
          "internalType": "address",
          "name": "newSphereXOperator",
          "type": "address"
        }
      ],
      "name": "changeSphereXOperator",
      "outputs": [],
      "stateMutability": "nonpayable",
      "type": "function"
    },
    {
      "inputs": [
        {
          "internalType": "bytes4",
          "name": "func_sig",
          "type": "bytes4"
        }
      ],
      "name": "isProtectedFuncSig",
      "outputs": [
        {
          "internalType": "bool",
          "name": "value",
          "type": "bool"
        }
      ],
      "stateMutability": "view",
      "type": "function"
    },
    {
      "inputs": [],
      "name": "pendingSphereXAdmin",
      "outputs": [
        {
          "internalType": "address",
          "name": "",
          "type": "address"
        }
      ],
      "stateMutability": "view",
      "type": "function"
    },
    {
      "inputs": [
        {
          "internalType": "bytes4[]",
          "name": "keys",
          "type": "bytes4[]"
        }
      ],
      "name": "removeProtectedFuncSigs",
      "outputs": [],
      "stateMutability": "nonpayable",
      "type": "function"
    },
    {
      "inputs": [],
      "name": "sphereXAdmin",
      "outputs": [
        {
          "internalType": "address",
          "name": "",
          "type": "address"
        }
      ],
      "stateMutability": "view",
      "type": "function"
    },
    {
      "inputs": [],
      "name": "sphereXEngine",
      "outputs": [
        {
          "internalType": "address",
          "name": "",
          "type": "address"
        }
      ],
      "stateMutability": "view",
      "type": "function"
    },
    {
      "inputs": [],
      "name": "sphereXOperator",
      "outputs": [
        {
          "internalType": "address",
          "name": "",
          "type": "address"
        }
      ],
      "stateMutability": "view",
      "type": "function"
    },
    {
      "inputs": [
        {
          "internalType": "address",
          "name": "newAdmin",
          "type": "address"
        }
      ],
      "name": "transferSphereXAdminRole",
      "outputs": [],
      "stateMutability": "nonpayable",
      "type": "function"
    },
    {
      "stateMutability": "payable",
      "type": "receive"
    }
  ],
  "bytecode": "0x60806040523480156200001157600080fd5b5060405162002eb738038062002eb7833981810160405281019062000037919062000862565b818133600080828282620000538383836200007760201b60201c565b5050505050506200006d828260006200021360201b60201c565b5050505062000ccc565b620000bd60017fca334bf49ef20e9cbff039feda3bc1c2a853aff17b1b5187e4aa1380ec55829d60001c620000ad919062000901565b60001b846200025160201b60201c565b7f67ebaebcd2ca5a91a404e898110f221747e8d15567f2388a34794aab151cf3e6600084604051620000f19291906200094d565b60405180910390a16200013f60017fadf90d75f0f2d657d5a22fa0f6e4dabb83c4598b77158eb4119cb38f1d86446360001c6200012f919062000901565b60001b836200025160201b60201c565b7f2ac55ae7ba47db34b5334622acafeb34a65daf143b47019273185d64c73a35a5600083604051620001739291906200094d565b60405180910390a16200018c816200025860201b60201c565b620001d260017f1777adabd324f814e2b0e28f6edf876dce01d7d66358c9acfe87b1b5f38338d660001c620001c2919062000901565b60001b826200025160201b60201c565b7ff33499cccaa0611882086224cc48cd82ef54b66a4d2edf4ed67108dd516896d5600082604051620002069291906200094d565b60405180910390a1505050565b62000224836200037460201b60201c565b600082511180620002325750805b156200024c576200024a8383620003cb60201b60201c565b505b505050565b8082555050565b600073ffffffffffffffffffffffffffffffffffffffff168173ffffffffffffffffffffffffffffffffffffffff1614806200032f57508073ffffffffffffffffffffffffffffffffffffffff166301ffc9a77f53e41baa000000000000000000000000000000000000000000000000000000006040518263ffffffff1660e01b8152600401620002ea9190620009b7565b602060405180830381865afa15801562000308573d6000803e3d6000fd5b505050506040513d601f19601f820116820180604052508101906200032e919062000a11565b5b62000371576040517f08c379a0000000000000000000000000000000000000000000000000000000008152600401620003689062000aca565b60405180910390fd5b50565b62000385816200040160201b60201c565b8073ffffffffffffffffffffffffffffffffffffffff167fbc7cd75a20ee27fd9adebab32041f755214dbc6bffa90cc0225b39da2e5c2d3b60405160405180910390a250565b6060620003f9838360405180606001604052806027815260200162002e9060279139620004cd60201b60201c565b905092915050565b62000412816200055f60201b60201c565b62000454576040517f08c379a00000000000000000000000000000000000000000000000000000000081526004016200044b9062000b62565b60405180910390fd5b80620004897f360894a13ba1a3210667c828492db98dca3e2076cc3735a920a3ca505d382bbc60001b6200058260201b60201c565b60000160006101000a81548173ffffffffffffffffffffffffffffffffffffffff021916908373ffffffffffffffffffffffffffffffffffffffff16021790555050565b60606000808573ffffffffffffffffffffffffffffffffffffffff1685604051620004f9919062000bd1565b600060405180830381855af49150503d806000811462000536576040519150601f19603f3d011682016040523d82523d6000602084013e6200053b565b606091505b509150915062000554868383876200058c60201b60201c565b925050509392505050565b6000808273ffffffffffffffffffffffffffffffffffffffff163b119050919050565b6000819050919050565b60608315620005fc576000835103620005f357620005b0856200055f60201b60201c565b620005f2576040517f08c379a0000000000000000000000000000000000000000000000000000000008152600401620005e99062000c3a565b60405180910390fd5b5b8290506200060f565b6200060e83836200061760201b60201c565b5b949350505050565b6000825111156200062b5781518083602001fd5b806040517f08c379a000000000000000000000000000000000000000000000000000000000815260040162000661919062000ca8565b60405180910390fd5b6000604051905090565b600080fd5b600080fd5b600073ffffffffffffffffffffffffffffffffffffffff82169050919050565b6000620006ab826200067e565b9050919050565b620006bd816200069e565b8114620006c957600080fd5b50565b600081519050620006dd81620006b2565b92915050565b600080fd5b600080fd5b6000601f19601f8301169050919050565b7f4e487b7100000000000000000000000000000000000000000000000000000000600052604160045260246000fd5b6200073882620006ed565b810181811067ffffffffffffffff821117156200075a5762000759620006fe565b5b80604052505050565b60006200076f6200066a565b90506200077d82826200072d565b919050565b600067ffffffffffffffff821115620007a0576200079f620006fe565b5b620007ab82620006ed565b9050602081019050919050565b60005b83811015620007d8578082015181840152602081019050620007bb565b60008484015250505050565b6000620007fb620007f58462000782565b62000763565b9050828152602081018484840111156200081a5762000819620006e8565b5b62000827848285620007b8565b509392505050565b600082601f830112620008475762000846620006e3565b5b815162000859848260208601620007e4565b91505092915050565b600080604083850312156200087c576200087b62000674565b5b60006200088c85828601620006cc565b925050602083015167ffffffffffffffff811115620008b057620008af62000679565b5b620008be858286016200082f565b9150509250929050565b6000819050919050565b7f4e487b7100000000000000000000000000000000000000000000000000000000600052601160045260246000fd5b60006200090e82620008c8565b91506200091b83620008c8565b9250828203905081811115620009365762000935620008d2565b5b92915050565b62000947816200069e565b82525050565b60006040820190506200096460008301856200093c565b6200097360208301846200093c565b9392505050565b60007fffffffff0000000000000000000000000000000000000000000000000000000082169050919050565b620009b1816200097a565b82525050565b6000602082019050620009ce6000830184620009a6565b92915050565b60008115159050919050565b620009eb81620009d4565b8114620009f757600080fd5b50565b60008151905062000a0b81620009e0565b92915050565b60006020828403121562000a2a5762000a2962000674565b5b600062000a3a84828501620009fa565b91505092915050565b600082825260208201905092915050565b7f53706865726558206572726f723a206e6f7420612053706865726558456e676960008201527f6e65000000000000000000000000000000000000000000000000000000000000602082015250565b600062000ab260228362000a43565b915062000abf8262000a54565b604082019050919050565b6000602082019050818103600083015262000ae58162000aa3565b9050919050565b7f455243313936373a206e657720696d706c656d656e746174696f6e206973206e60008201527f6f74206120636f6e747261637400000000000000000000000000000000000000602082015250565b600062000b4a602d8362000a43565b915062000b578262000aec565b604082019050919050565b6000602082019050818103600083015262000b7d8162000b3b565b9050919050565b600081519050919050565b600081905092915050565b600062000ba78262000b84565b62000bb3818562000b8f565b935062000bc5818560208601620007b8565b80840191505092915050565b600062000bdf828462000b9a565b915081905092915050565b7f416464726573733a2063616c6c20746f206e6f6e2d636f6e7472616374000000600082015250565b600062000c22601d8362000a43565b915062000c2f8262000bea565b602082019050919050565b6000602082019050818103600083015262000c558162000c13565b9050919050565b600081519050919050565b600062000c748262000c5c565b62000c80818562000a43565b935062000c92818560208601620007b8565b62000c9d81620006ed565b840191505092915050565b6000602082019050818103600083015262000cc4818462000c67565b905092915050565b6121b48062000cdc6000396000f3fe6080604052600436106100a05760003560e01c806399e80f3b1161006457806399e80f3b1461018a5780639aa9019e146101b5578063a7fdd047146101e0578063cc5b745014610209578063daba7ef714610232578063e7e5db4f1461025b576100af565b8063021a5fe5146100b95780633c231166146100f65780634c6c848f146101215780634ee8f8581461014a5780638426b96814610173576100af565b366100af576100ad610286565b005b6100b7610286565b005b3480156100c557600080fd5b506100e060048036038101906100db91906114ed565b6102a0565b6040516100ed9190611535565b60405180910390f35b34801561010257600080fd5b5061010b61030a565b6040516101189190611591565b60405180910390f35b34801561012d57600080fd5b50610148600480360381019061014391906115d8565b61034c565b005b34801561015657600080fd5b50610171600480360381019061016c91906115d8565b6104b5565b005b34801561017f57600080fd5b50610188610615565b005b34801561019657600080fd5b5061019f61074b565b6040516101ac9190611591565b60405180910390f35b3480156101c157600080fd5b506101ca61078d565b6040516101d79190611591565b60405180910390f35b3480156101ec57600080fd5b506102076004803603810190610202919061175e565b6107cf565b005b34801561021557600080fd5b50610230600480360381019061022b919061175e565b6108f4565b005b34801561023e57600080fd5b50610259600480360381019061025491906115d8565b610a19565b005b34801561026757600080fd5b50610270610b40565b60405161027d9190611591565b60405180910390f35b61028e610b82565b61029e610299610b84565b610b93565b565b6000808260017f9a7afc584486ebd3e91191a9ac2c2e986b3aaa4084656fc915fe0843ff009c6b60001c6102d491906117e0565b60001b6040516020016102e8929190611860565b6040516020818303038152906040528051906020012090508054915050919050565b600061034760017f1777adabd324f814e2b0e28f6edf876dce01d7d66358c9acfe87b1b5f38338d660001c61033f91906117e0565b60001b610b9f565b905090565b61038760017fadf90d75f0f2d657d5a22fa0f6e4dabb83c4598b77158eb4119cb38f1d86446360001c61037f91906117e0565b60001b610b9f565b73ffffffffffffffffffffffffffffffffffffffff163373ffffffffffffffffffffffffffffffffffffffff16146103f4576040517f08c379a00000000000000000000000000000000000000000000000000000000081526004016103eb906118e9565b60405180910390fd5b6103fd81610baa565b600061043a60017f1777adabd324f814e2b0e28f6edf876dce01d7d66358c9acfe87b1b5f38338d660001c61043291906117e0565b60001b610b9f565b905061047860017f1777adabd324f814e2b0e28f6edf876dce01d7d66358c9acfe87b1b5f38338d660001c61046f91906117e0565b60001b83610cbd565b7ff33499cccaa0611882086224cc48cd82ef54b66a4d2edf4ed67108dd516896d581836040516104a9929190611909565b60405180910390a15050565b6104f060017fca334bf49ef20e9cbff039feda3bc1c2a853aff17b1b5187e4aa1380ec55829d60001c6104e891906117e0565b60001b610b9f565b73ffffffffffffffffffffffffffffffffffffffff163373ffffffffffffffffffffffffffffffffffffffff161461055d576040517f08c379a00000000000000000000000000000000000000000000000000000000081526004016105549061197e565b60405180910390fd5b600061059a60017fadf90d75f0f2d657d5a22fa0f6e4dabb83c4598b77158eb4119cb38f1d86446360001c61059291906117e0565b60001b610b9f565b90506105d860017fadf90d75f0f2d657d5a22fa0f6e4dabb83c4598b77158eb4119cb38f1d86446360001c6105cf91906117e0565b60001b83610cbd565b7f2ac55ae7ba47db34b5334622acafeb34a65daf143b47019273185d64c73a35a58183604051610609929190611909565b60405180910390a15050565b3373ffffffffffffffffffffffffffffffffffffffff1661063461078d565b73ffffffffffffffffffffffffffffffffffffffff161461068a576040517f08c379a000000000000000000000000000000000000000000000000000000000815260040161068190611a10565b60405180910390fd5b600061069461074b565b90506106d260017fca334bf49ef20e9cbff039feda3bc1c2a853aff17b1b5187e4aa1380ec55829d60001c6106c991906117e0565b60001b33610cbd565b61070f60017f3a517dd736309b905c692160a21b5439bdc56db1dc77d6982b66d44814e3fa9760001c61070591906117e0565b60001b6000610cbd565b7f67ebaebcd2ca5a91a404e898110f221747e8d15567f2388a34794aab151cf3e68133604051610740929190611909565b60405180910390a150565b600061078860017fca334bf49ef20e9cbff039feda3bc1c2a853aff17b1b5187e4aa1380ec55829d60001c61078091906117e0565b60001b610b9f565b905090565b60006107ca60017f3a517dd736309b905c692160a21b5439bdc56db1dc77d6982b66d44814e3fa9760001c6107c291906117e0565b60001b610b9f565b905090565b61080a60017fadf90d75f0f2d657d5a22fa0f6e4dabb83c4598b77158eb4119cb38f1d86446360001c61080291906117e0565b60001b610b9f565b73ffffffffffffffffffffffffffffffffffffffff163373ffffffffffffffffffffffffffffffffffffffff1614610877576040517f08c379a000000000000000000000000000000000000000000000000000000000815260040161086e906118e9565b60405180910390fd5b60005b81518110156108b9576108a882828151811061089957610898611a30565b5b60200260200101516000610cc4565b806108b290611a5f565b905061087a565b507f754b9f3148ad4cf227ecdf9a64810fa2d0b8682a2de15dfad5310a12b7281a5f816040516108e99190611b65565b60405180910390a150565b61092f60017fadf90d75f0f2d657d5a22fa0f6e4dabb83c4598b77158eb4119cb38f1d86446360001c61092791906117e0565b60001b610b9f565b73ffffffffffffffffffffffffffffffffffffffff163373ffffffffffffffffffffffffffffffffffffffff161461099c576040517f08c379a0000000000000000000000000000000000000000000000000000000008152600401610993906118e9565b60405180910390fd5b60005b81518110156109de576109cd8282815181106109be576109bd611a30565b5b60200260200101516001610cc4565b806109d790611a5f565b905061099f565b507f45fc6a4de33dfc2fa6f40e48f353bf7ff006086db3ecf80c077f788082cc7d5a81604051610a0e9190611b65565b60405180910390a150565b610a5460017fca334bf49ef20e9cbff039feda3bc1c2a853aff17b1b5187e4aa1380ec55829d60001c610a4c91906117e0565b60001b610b9f565b73ffffffffffffffffffffffffffffffffffffffff163373ffffffffffffffffffffffffffffffffffffffff1614610ac1576040517f08c379a0000000000000000000000000000000000000000000000000000000008152600401610ab89061197e565b60405180910390fd5b610afd60017f3a517dd736309b905c692160a21b5439bdc56db1dc77d6982b66d44814e3fa9760001c610af491906117e0565b60001b82610cbd565b7f5778f1547abbbb86090a43c32aec38334b31df4beeb6f8f3fa063f593b53a526610b2661074b565b82604051610b35929190611909565b60405180910390a150565b6000610b7d60017fadf90d75f0f2d657d5a22fa0f6e4dabb83c4598b77158eb4119cb38f1d86446360001c610b7591906117e0565b60001b610b9f565b905090565b565b6000610b8e610d2b565b905090565b610b9c81610d82565b50565b600081549050919050565b600073ffffffffffffffffffffffffffffffffffffffff168173ffffffffffffffffffffffffffffffffffffffff161480610c7b57508073ffffffffffffffffffffffffffffffffffffffff166301ffc9a77f53e41baa000000000000000000000000000000000000000000000000000000006040518263ffffffff1660e01b8152600401610c399190611b96565b602060405180830381865afa158015610c56573d6000803e3d6000fd5b505050506040513d601f19601f82011682018060405250810190610c7a9190611bdd565b5b610cba576040517f08c379a0000000000000000000000000000000000000000000000000000000008152600401610cb190611c7c565b60405180910390fd5b50565b8082555050565b60008260017f9a7afc584486ebd3e91191a9ac2c2e986b3aaa4084656fc915fe0843ff009c6b60001c610cf791906117e0565b60001b604051602001610d0b929190611860565b604051602081830303815290604052805190602001209050818155505050565b6000610d597f360894a13ba1a3210667c828492db98dca3e2076cc3735a920a3ca505d382bbc60001b610dda565b60000160009054906101000a900473ffffffffffffffffffffffffffffffffffffffff16905090565b610daf6000357fffffffff00000000000000000000000000000000000000000000000000000000166102a0565b15610dce576000610dbf82610de4565b90506000815190508060208301f35b610dd781610e90565b50565b6000819050919050565b60606000357fffffffff000000000000000000000000000000000000000000000000000000001660e01c63ffffffff166000610e21826001610eb6565b9050610e72846000368080601f016020809104026020016040519081016040528093929190818152602001838380828437600081840152601f19601f82011690508083019250505050505050611052565b9250610e8982610e8190611ca6565b60018361107f565b5050919050565b3660008037600080366000845af43d6000803e8060008114610eb1573d6000f35b3d6000fd5b610ebe611460565b600073ffffffffffffffffffffffffffffffffffffffff16610ede6111eb565b73ffffffffffffffffffffffffffffffffffffffff16031561104c576000610f046111eb565b90508215610fa1578073ffffffffffffffffffffffffffffffffffffffff16638925ca5a85336000366040518563ffffffff1660e01b8152600401610f4c9493929190611d4a565b6000604051808303816000875af1158015610f6b573d6000803e3d6000fd5b505050506040513d6000823e3d601f19601f82011682018060405250810190610f949190611e79565b826000018190525061102b565b8073ffffffffffffffffffffffffffffffffffffffff16633e884943856040518263ffffffff1660e01b8152600401610fda9190611ec2565b6000604051808303816000875af1158015610ff9573d6000803e3d6000fd5b505050506040513d6000823e3d601f19601f820116820180604052508101906110229190611e79565b82600001819052505b611038826000015161122d565b82602001819052505a826040018181525050505b92915050565b60606110778383604051806060016040528060278152602001612158602791396112f2565b905092915050565b600073ffffffffffffffffffffffffffffffffffffffff1661109f6111eb565b73ffffffffffffffffffffffffffffffffffffffff1603156111e65760005a82604001516110cd91906117e0565b905060006110d96111eb565b905060606110ea846000015161122d565b9050841561116c578173ffffffffffffffffffffffffffffffffffffffff1663f0bd946887858760200151856040518563ffffffff1660e01b81526004016111359493929190611faa565b600060405180830381600087803b15801561114f57600080fd5b505af1158015611163573d6000803e3d6000fd5b505050506111e2565b8173ffffffffffffffffffffffffffffffffffffffff166304e6279a87858760200151856040518563ffffffff1660e01b81526004016111af9493929190611faa565b600060405180830381600087803b1580156111c957600080fd5b505af11580156111dd573d6000803e3d6000fd5b505050505b5050505b505050565b600061122860017f1777adabd324f814e2b0e28f6edf876dce01d7d66358c9acfe87b1b5f38338d660001c61122091906117e0565b60001b610b9f565b905090565b606060008251905060008167ffffffffffffffff8111156112515761125061161b565b5b60405190808252806020026020018201604052801561127f5781602001602082028036833780820191505090505b50905060005b828110156112e75760008582815181106112a2576112a1611a30565b5b60200260200101519050600081549050808484815181106112c6576112c5611a30565b5b602002602001018181525050505080806112df90611a5f565b915050611285565b508092505050919050565b60606000808573ffffffffffffffffffffffffffffffffffffffff168560405161131c919061206e565b600060405180830381855af49150503d8060008114611357576040519150601f19603f3d011682016040523d82523d6000602084013e61135c565b606091505b509150915061136d86838387611378565b925050509392505050565b606083156113da5760008351036113d257611392856113ed565b6113d1576040517f08c379a00000000000000000000000000000000000000000000000000000000081526004016113c8906120d1565b60405180910390fd5b5b8290506113e5565b6113e48383611410565b5b949350505050565b6000808273ffffffffffffffffffffffffffffffffffffffff163b119050919050565b6000825111156114235781518083602001fd5b806040517f08c379a00000000000000000000000000000000000000000000000000000000081526004016114579190612135565b60405180910390fd5b60405180606001604052806060815260200160608152602001600081525090565b6000604051905090565b600080fd5b600080fd5b60007fffffffff0000000000000000000000000000000000000000000000000000000082169050919050565b6114ca81611495565b81146114d557600080fd5b50565b6000813590506114e7816114c1565b92915050565b6000602082840312156115035761150261148b565b5b6000611511848285016114d8565b91505092915050565b60008115159050919050565b61152f8161151a565b82525050565b600060208201905061154a6000830184611526565b92915050565b600073ffffffffffffffffffffffffffffffffffffffff82169050919050565b600061157b82611550565b9050919050565b61158b81611570565b82525050565b60006020820190506115a66000830184611582565b92915050565b6115b581611570565b81146115c057600080fd5b50565b6000813590506115d2816115ac565b92915050565b6000602082840312156115ee576115ed61148b565b5b60006115fc848285016115c3565b91505092915050565b600080fd5b6000601f19601f8301169050919050565b7f4e487b7100000000000000000000000000000000000000000000000000000000600052604160045260246000fd5b6116538261160a565b810181811067ffffffffffffffff821117156116725761167161161b565b5b80604052505050565b6000611685611481565b9050611691828261164a565b919050565b600067ffffffffffffffff8211156116b1576116b061161b565b5b602082029050602081019050919050565b600080fd5b60006116da6116d584611696565b61167b565b905080838252602082019050602084028301858111156116fd576116fc6116c2565b5b835b81811015611726578061171288826114d8565b8452602084019350506020810190506116ff565b5050509392505050565b600082601f83011261174557611744611605565b5b81356117558482602086016116c7565b91505092915050565b6000602082840312156117745761177361148b565b5b600082013567ffffffffffffffff81111561179257611791611490565b5b61179e84828501611730565b91505092915050565b6000819050919050565b7f4e487b7100000000000000000000000000000000000000000000000000000000600052601160045260246000fd5b60006117eb826117a7565b91506117f6836117a7565b925082820390508181111561180e5761180d6117b1565b5b92915050565b6000819050919050565b61182f61182a82611495565b611814565b82525050565b6000819050919050565b6000819050919050565b61185a61185582611835565b61183f565b82525050565b600061186c828561181e565b60048201915061187c8284611849565b6020820191508190509392505050565b600082825260208201905092915050565b7f53706865726558206572726f723a206f70657261746f72207265717569726564600082015250565b60006118d360208361188c565b91506118de8261189d565b602082019050919050565b60006020820190508181036000830152611902816118c6565b9050919050565b600060408201905061191e6000830185611582565b61192b6020830184611582565b9392505050565b7f53706865726558206572726f723a2061646d696e207265717569726564000000600082015250565b6000611968601d8361188c565b915061197382611932565b602082019050919050565b600060208201905081810360008301526119978161195b565b9050919050565b7f53706865726558206572726f723a206e6f74207468652070656e64696e67206160008201527f63636f756e740000000000000000000000000000000000000000000000000000602082015250565b60006119fa60268361188c565b9150611a058261199e565b604082019050919050565b60006020820190508181036000830152611a29816119ed565b9050919050565b7f4e487b7100000000000000000000000000000000000000000000000000000000600052603260045260246000fd5b6000611a6a826117a7565b91507fffffffffffffffffffffffffffffffffffffffffffffffffffffffffffffffff8203611a9c57611a9b6117b1565b5b600182019050919050565b600081519050919050565b600082825260208201905092915050565b6000819050602082019050919050565b611adc81611495565b82525050565b6000611aee8383611ad3565b60208301905092915050565b6000602082019050919050565b6000611b1282611aa7565b611b1c8185611ab2565b9350611b2783611ac3565b8060005b83811015611b58578151611b3f8882611ae2565b9750611b4a83611afa565b925050600181019050611b2b565b5085935050505092915050565b60006020820190508181036000830152611b7f8184611b07565b905092915050565b611b9081611495565b82525050565b6000602082019050611bab6000830184611b87565b92915050565b611bba8161151a565b8114611bc557600080fd5b50565b600081519050611bd781611bb1565b92915050565b600060208284031215611bf357611bf261148b565b5b6000611c0184828501611bc8565b91505092915050565b7f53706865726558206572726f723a206e6f7420612053706865726558456e676960008201527f6e65000000000000000000000000000000000000000000000000000000000000602082015250565b6000611c6660228361188c565b9150611c7182611c0a565b604082019050919050565b60006020820190508181036000830152611c9581611c59565b9050919050565b6000819050919050565b6000611cb182611c9c565b91507f80000000000000000000000000000000000000000000000000000000000000008203611ce357611ce26117b1565b5b816000039050919050565b611cf781611c9c565b82525050565b600082825260208201905092915050565b82818337600083830152505050565b6000611d298385611cfd565b9350611d36838584611d0e565b611d3f8361160a565b840190509392505050565b6000606082019050611d5f6000830187611cee565b611d6c6020830186611582565b8181036040830152611d7f818486611d1d565b905095945050505050565b600067ffffffffffffffff821115611da557611da461161b565b5b602082029050602081019050919050565b611dbf81611835565b8114611dca57600080fd5b50565b600081519050611ddc81611db6565b92915050565b6000611df5611df084611d8a565b61167b565b90508083825260208201905060208402830185811115611e1857611e176116c2565b5b835b81811015611e415780611e2d8882611dcd565b845260208401935050602081019050611e1a565b5050509392505050565b600082601f830112611e6057611e5f611605565b5b8151611e70848260208601611de2565b91505092915050565b600060208284031215611e8f57611e8e61148b565b5b600082015167ffffffffffffffff811115611ead57611eac611490565b5b611eb984828501611e4b565b91505092915050565b6000602082019050611ed76000830184611cee565b92915050565b611ee6816117a7565b82525050565b600081519050919050565b600082825260208201905092915050565b6000819050602082019050919050565b611f2181611835565b82525050565b6000611f338383611f18565b60208301905092915050565b6000602082019050919050565b6000611f5782611eec565b611f618185611ef7565b9350611f6c83611f08565b8060005b83811015611f9d578151611f848882611f27565b9750611f8f83611f3f565b925050600181019050611f70565b5085935050505092915050565b6000608082019050611fbf6000830187611cee565b611fcc6020830186611edd565b8181036040830152611fde8185611f4c565b90508181036060830152611ff28184611f4c565b905095945050505050565b600081519050919050565b600081905092915050565b60005b83811015612031578082015181840152602081019050612016565b60008484015250505050565b600061204882611ffd565b6120528185612008565b9350612062818560208601612013565b80840191505092915050565b600061207a828461203d565b915081905092915050565b7f416464726573733a2063616c6c20746f206e6f6e2d636f6e7472616374000000600082015250565b60006120bb601d8361188c565b91506120c682612085565b602082019050919050565b600060208201905081810360008301526120ea816120ae565b9050919050565b600081519050919050565b6000612107826120f1565b612111818561188c565b9350612121818560208601612013565b61212a8161160a565b840191505092915050565b6000602082019050818103600083015261214f81846120fc565b90509291505056fe416464726573733a206c6f772d6c6576656c2064656c65676174652063616c6c206661696c6564a2646970667358221220a8ced5744b82f36a5d20960019257a07b144226455a60cbfab7a4ae42cc6178464736f6c63430008130033416464726573733a206c6f772d6c6576656c2064656c65676174652063616c6c206661696c6564",
  "linkReferences": {},
  "deployedLinkReferences": {}
}