{
  "_format": "hh-sol-artifact-1",
  "contractName": "ProtectedTransparentUpgradeableProxy",
  "sourceName": "src/ProtectedProxies/ProtectedTransparentUpgradeableProxy.sol",
  "abi": [
    {
      "inputs": [
        {
          "internalType": "address",
          "name": "_logic",
          "type": "address"
        },
        {
          "internalType": "address",
          "name": "admin_",
          "type": "address"
        },
        {
          "internalType": "bytes",
          "name": "_data",
          "type": "bytes"
        }
      ],
      "stateMutability": "nonpayable",
      "type": "constructor"
    },
    {
      "anonymous": false,
      "inputs": [
        {
          "indexed": false,
          "internalType": "bytes4[]",
          "name": "patterns",
          "type": "bytes4[]"
        }
      ],
      "name": "AddedProtectedFuncSigs",
      "type": "event"
    },
    {
      "anonymous": false,
      "inputs": [
        {
          "indexed": false,
          "internalType": "address",
          "name": "previousAdmin",
          "type": "address"
        },
        {
          "indexed": false,
          "internalType": "address",
          "name": "newAdmin",
          "type": "address"
        }
      ],
      "name": "AdminChanged",
      "type": "event"
    },
    {
      "anonymous": false,
      "inputs": [
        {
          "indexed": true,
          "internalType": "address",
          "name": "beacon",
          "type": "address"
        }
      ],
      "name": "BeaconUpgraded",
      "type": "event"
    },
    {
      "anonymous": false,
      "inputs": [
        {
          "indexed": false,
          "internalType": "address",
          "name": "oldEngineAddress",
          "type": "address"
        },
        {
          "indexed": false,
          "internalType": "address",
          "name": "newEngineAddress",
          "type": "address"
        }
      ],
      "name": "ChangedSpherexEngineAddress",
      "type": "event"
    },
    {
      "anonymous": false,
      "inputs": [
        {
          "indexed": false,
          "internalType": "address",
          "name": "oldSphereXAdmin",
          "type": "address"
        },
        {
          "indexed": false,
          "internalType": "address",
          "name": "newSphereXAdmin",
          "type": "address"
        }
      ],
      "name": "ChangedSpherexOperator",
      "type": "event"
    },
    {
      "anonymous": false,
      "inputs": [
        {
          "indexed": false,
          "internalType": "bytes4[]",
          "name": "patterns",
          "type": "bytes4[]"
        }
      ],
      "name": "RemovedProtectedFuncSigs",
      "type": "event"
    },
    {
      "anonymous": false,
      "inputs": [
        {
          "indexed": false,
          "internalType": "address",
          "name": "oldAdmin",
          "type": "address"
        },
        {
          "indexed": false,
          "internalType": "address",
          "name": "newAdmin",
          "type": "address"
        }
      ],
      "name": "SpherexAdminTransferCompleted",
      "type": "event"
    },
    {
      "anonymous": false,
      "inputs": [
        {
          "indexed": false,
          "internalType": "address",
          "name": "currentAdmin",
          "type": "address"
        },
        {
          "indexed": false,
          "internalType": "address",
          "name": "pendingAdmin",
          "type": "address"
        }
      ],
      "name": "SpherexAdminTransferStarted",
      "type": "event"
    },
    {
      "anonymous": false,
      "inputs": [
        {
          "indexed": true,
          "internalType": "address",
          "name": "implementation",
          "type": "address"
        }
      ],
      "name": "Upgraded",
      "type": "event"
    },
    {
      "stateMutability": "payable",
      "type": "fallback"
    },
    {
      "inputs": [],
      "name": "acceptSphereXAdminRole",
      "outputs": [],
      "stateMutability": "nonpayable",
      "type": "function"
    },
    {
      "inputs": [
        {
          "internalType": "bytes4[]",
          "name": "keys",
          "type": "bytes4[]"
        }
      ],
      "name": "addProtectedFuncSigs",
      "outputs": [],
      "stateMutability": "nonpayable",
      "type": "function"
    },
    {
      "inputs": [],
      "name": "admin",
      "outputs": [
        {
          "internalType": "address",
          "name": "admin_",
          "type": "address"
        }
      ],
      "stateMutability": "nonpayable",
      "type": "function"
    },
    {
      "inputs": [
        {
          "internalType": "address",
          "name": "newAdmin",
          "type": "address"
        }
      ],
      "name": "changeAdmin",
      "outputs": [],
      "stateMutability": "nonpayable",
      "type": "function"
    },
    {
      "inputs": [
        {
          "internalType": "address",
          "name": "newSphereXEngine",
          "type": "address"
        }
      ],
      "name": "changeSphereXEngine",
      "outputs": [],
      "stateMutability": "nonpayable",
      "type": "function"
    },
    {
      "inputs": [
        {
          "internalType": "address",
          "name": "newSphereXOperator",
          "type": "address"
        }
      ],
      "name": "changeSphereXOperator",
      "outputs": [],
      "stateMutability": "nonpayable",
      "type": "function"
    },
    {
      "inputs": [],
      "name": "implementation",
      "outputs": [
        {
          "internalType": "address",
          "name": "implementation_",
          "type": "address"
        }
      ],
      "stateMutability": "nonpayable",
      "type": "function"
    },
    {
      "inputs": [
        {
          "internalType": "bytes4",
          "name": "func_sig",
          "type": "bytes4"
        }
      ],
      "name": "isProtectedFuncSig",
      "outputs": [
        {
          "internalType": "bool",
          "name": "value",
          "type": "bool"
        }
      ],
      "stateMutability": "view",
      "type": "function"
    },
    {
      "inputs": [],
      "name": "pendingSphereXAdmin",
      "outputs": [
        {
          "internalType": "address",
          "name": "",
          "type": "address"
        }
      ],
      "stateMutability": "view",
      "type": "function"
    },
    {
      "inputs": [
        {
          "internalType": "bytes4[]",
          "name": "keys",
          "type": "bytes4[]"
        }
      ],
      "name": "removeProtectedFuncSigs",
      "outputs": [],
      "stateMutability": "nonpayable",
      "type": "function"
    },
    {
      "inputs": [],
      "name": "sphereXAdmin",
      "outputs": [
        {
          "internalType": "address",
          "name": "",
          "type": "address"
        }
      ],
      "stateMutability": "view",
      "type": "function"
    },
    {
      "inputs": [],
      "name": "sphereXEngine",
      "outputs": [
        {
          "internalType": "address",
          "name": "",
          "type": "address"
        }
      ],
      "stateMutability": "view",
      "type": "function"
    },
    {
      "inputs": [],
      "name": "sphereXOperator",
      "outputs": [
        {
          "internalType": "address",
          "name": "",
          "type": "address"
        }
      ],
      "stateMutability": "view",
      "type": "function"
    },
    {
      "inputs": [
        {
          "internalType": "address",
          "name": "newAdmin",
          "type": "address"
        }
      ],
      "name": "transferSphereXAdminRole",
      "outputs": [],
      "stateMutability": "nonpayable",
      "type": "function"
    },
    {
      "inputs": [
        {
          "internalType": "address",
          "name": "newImplementation",
          "type": "address"
        }
      ],
      "name": "upgradeTo",
      "outputs": [],
      "stateMutability": "nonpayable",
      "type": "function"
    },
    {
      "inputs": [
        {
          "internalType": "address",
          "name": "newImplementation",
          "type": "address"
        },
        {
          "internalType": "bytes",
          "name": "data",
          "type": "bytes"
        }
      ],
      "name": "upgradeToAndCall",
      "outputs": [],
      "stateMutability": "payable",
      "type": "function"
    },
    {
      "stateMutability": "payable",
      "type": "receive"
    }
  ],
  "bytecode": "0x60806040523480156200001157600080fd5b5060405162003b1938038062003b19833981810160405281019062000037919062000acc565b828282828133600080828282828282620000598383836200016960201b60201c565b50505050505050505060017f360894a13ba1a3210667c828492db98dca3e2076cc3735a920a3ca505d382bbd60001c62000094919062000b80565b60001b7f360894a13ba1a3210667c828492db98dca3e2076cc3735a920a3ca505d382bbc60001b14620000cc57620000cb62000bbb565b5b620000e0828260006200030560201b60201c565b505060017fb53127684a568b3173ae13b9f8a6016e243e63b6e8ee1178d6a717850b5d610460001c62000114919062000b80565b60001b7fb53127684a568b3173ae13b9f8a6016e243e63b6e8ee1178d6a717850b5d610360001b146200014c576200014b62000bbb565b5b6200015d826200034360201b60201c565b50505050505062001038565b620001af60017fca334bf49ef20e9cbff039feda3bc1c2a853aff17b1b5187e4aa1380ec55829d60001c6200019f919062000b80565b60001b84620003a160201b60201c565b7f67ebaebcd2ca5a91a404e898110f221747e8d15567f2388a34794aab151cf3e6600084604051620001e392919062000bfb565b60405180910390a16200023160017fadf90d75f0f2d657d5a22fa0f6e4dabb83c4598b77158eb4119cb38f1d86446360001c62000221919062000b80565b60001b83620003a160201b60201c565b7f2ac55ae7ba47db34b5334622acafeb34a65daf143b47019273185d64c73a35a56000836040516200026592919062000bfb565b60405180910390a16200027e81620003a860201b60201c565b620002c460017f1777adabd324f814e2b0e28f6edf876dce01d7d66358c9acfe87b1b5f38338d660001c620002b4919062000b80565b60001b82620003a160201b60201c565b7ff33499cccaa0611882086224cc48cd82ef54b66a4d2edf4ed67108dd516896d5600082604051620002f892919062000bfb565b60405180910390a1505050565b6200031683620004c460201b60201c565b600082511180620003245750805b156200033e576200033c83836200051b60201b60201c565b505b505050565b7f7e644d79422f17c01e4894b5f4f588d331ebfa28653d42ae832dc59e38c9798f620003746200055160201b60201c565b826040516200038592919062000bfb565b60405180910390a16200039e81620005b060201b60201c565b50565b8082555050565b600073ffffffffffffffffffffffffffffffffffffffff168173ffffffffffffffffffffffffffffffffffffffff1614806200047f57508073ffffffffffffffffffffffffffffffffffffffff166301ffc9a77f53e41baa000000000000000000000000000000000000000000000000000000006040518263ffffffff1660e01b81526004016200043a919062000c65565b602060405180830381865afa15801562000458573d6000803e3d6000fd5b505050506040513d601f19601f820116820180604052508101906200047e919062000cbf565b5b620004c1576040517f08c379a0000000000000000000000000000000000000000000000000000000008152600401620004b89062000d78565b60405180910390fd5b50565b620004d5816200069b60201b60201c565b8073ffffffffffffffffffffffffffffffffffffffff167fbc7cd75a20ee27fd9adebab32041f755214dbc6bffa90cc0225b39da2e5c2d3b60405160405180910390a250565b606062000549838360405180606001604052806027815260200162003af2602791396200076760201b60201c565b905092915050565b6000620005877fb53127684a568b3173ae13b9f8a6016e243e63b6e8ee1178d6a717850b5d610360001b6200084b60201b60201c565b60000160009054906101000a900473ffffffffffffffffffffffffffffffffffffffff16905090565b600073ffffffffffffffffffffffffffffffffffffffff168173ffffffffffffffffffffffffffffffffffffffff160362000622576040517f08c379a0000000000000000000000000000000000000000000000000000000008152600401620006199062000e10565b60405180910390fd5b80620006577fb53127684a568b3173ae13b9f8a6016e243e63b6e8ee1178d6a717850b5d610360001b6200084b60201b60201c565b60000160006101000a81548173ffffffffffffffffffffffffffffffffffffffff021916908373ffffffffffffffffffffffffffffffffffffffff16021790555050565b620006ac816200085560201b60201c565b620006ee576040517f08c379a0000000000000000000000000000000000000000000000000000000008152600401620006e59062000ea8565b60405180910390fd5b80620007237f360894a13ba1a3210667c828492db98dca3e2076cc3735a920a3ca505d382bbc60001b6200084b60201b60201c565b60000160006101000a81548173ffffffffffffffffffffffffffffffffffffffff021916908373ffffffffffffffffffffffffffffffffffffffff16021790555050565b60606200077a846200085560201b60201c565b620007bc576040517f08c379a0000000000000000000000000000000000000000000000000000000008152600401620007b39062000f40565b60405180910390fd5b6000808573ffffffffffffffffffffffffffffffffffffffff1685604051620007e6919062000faf565b600060405180830381855af49150503d806000811462000823576040519150601f19603f3d011682016040523d82523d6000602084013e62000828565b606091505b5091509150620008408282866200086860201b60201c565b925050509392505050565b6000819050919050565b600080823b905060008111915050919050565b606083156200087a57829050620008cd565b6000835111156200088e5782518084602001fd5b816040517f08c379a0000000000000000000000000000000000000000000000000000000008152600401620008c4919062001014565b60405180910390fd5b9392505050565b6000604051905090565b600080fd5b600080fd5b600073ffffffffffffffffffffffffffffffffffffffff82169050919050565b60006200091582620008e8565b9050919050565b620009278162000908565b81146200093357600080fd5b50565b60008151905062000947816200091c565b92915050565b600080fd5b600080fd5b6000601f19601f8301169050919050565b7f4e487b7100000000000000000000000000000000000000000000000000000000600052604160045260246000fd5b620009a28262000957565b810181811067ffffffffffffffff82111715620009c457620009c362000968565b5b80604052505050565b6000620009d9620008d4565b9050620009e7828262000997565b919050565b600067ffffffffffffffff82111562000a0a5762000a0962000968565b5b62000a158262000957565b9050602081019050919050565b60005b8381101562000a4257808201518184015260208101905062000a25565b60008484015250505050565b600062000a6562000a5f84620009ec565b620009cd565b90508281526020810184848401111562000a845762000a8362000952565b5b62000a9184828562000a22565b509392505050565b600082601f83011262000ab15762000ab06200094d565b5b815162000ac384826020860162000a4e565b91505092915050565b60008060006060848603121562000ae85762000ae7620008de565b5b600062000af88682870162000936565b935050602062000b0b8682870162000936565b925050604084015167ffffffffffffffff81111562000b2f5762000b2e620008e3565b5b62000b3d8682870162000a99565b9150509250925092565b6000819050919050565b7f4e487b7100000000000000000000000000000000000000000000000000000000600052601160045260246000fd5b600062000b8d8262000b47565b915062000b9a8362000b47565b925082820390508181111562000bb55762000bb462000b51565b5b92915050565b7f4e487b7100000000000000000000000000000000000000000000000000000000600052600160045260246000fd5b62000bf58162000908565b82525050565b600060408201905062000c12600083018562000bea565b62000c21602083018462000bea565b9392505050565b60007fffffffff0000000000000000000000000000000000000000000000000000000082169050919050565b62000c5f8162000c28565b82525050565b600060208201905062000c7c600083018462000c54565b92915050565b60008115159050919050565b62000c998162000c82565b811462000ca557600080fd5b50565b60008151905062000cb98162000c8e565b92915050565b60006020828403121562000cd85762000cd7620008de565b5b600062000ce88482850162000ca8565b91505092915050565b600082825260208201905092915050565b7f53706865726558206572726f723a206e6f7420612053706865726558456e676960008201527f6e65000000000000000000000000000000000000000000000000000000000000602082015250565b600062000d6060228362000cf1565b915062000d6d8262000d02565b604082019050919050565b6000602082019050818103600083015262000d938162000d51565b9050919050565b7f455243313936373a206e65772061646d696e20697320746865207a65726f206160008201527f6464726573730000000000000000000000000000000000000000000000000000602082015250565b600062000df860268362000cf1565b915062000e058262000d9a565b604082019050919050565b6000602082019050818103600083015262000e2b8162000de9565b9050919050565b7f455243313936373a206e657720696d706c656d656e746174696f6e206973206e60008201527f6f74206120636f6e747261637400000000000000000000000000000000000000602082015250565b600062000e90602d8362000cf1565b915062000e9d8262000e32565b604082019050919050565b6000602082019050818103600083015262000ec38162000e81565b9050919050565b7f416464726573733a2064656c65676174652063616c6c20746f206e6f6e2d636f60008201527f6e74726163740000000000000000000000000000000000000000000000000000602082015250565b600062000f2860268362000cf1565b915062000f358262000eca565b604082019050919050565b6000602082019050818103600083015262000f5b8162000f19565b9050919050565b600081519050919050565b600081905092915050565b600062000f858262000f62565b62000f91818562000f6d565b935062000fa381856020860162000a22565b80840191505092915050565b600062000fbd828462000f78565b915081905092915050565b600081519050919050565b600062000fe08262000fc8565b62000fec818562000cf1565b935062000ffe81856020860162000a22565b620010098162000957565b840191505092915050565b6000602082019050818103600083015262001030818462000fd3565b905092915050565b612aaa80620010486000396000f3fe6080604052600436106100f75760003560e01c80638f2839701161008a578063cc5b745011610059578063cc5b7450146102f9578063daba7ef714610322578063e7e5db4f1461034b578063f851a4401461037657610106565b80638f2839701461025157806399e80f3b1461027a5780639aa9019e146102a5578063a7fdd047146102d057610106565b80634ee8f858116100c65780634ee8f858146101ca5780634f1ef286146101f35780635c60da1b1461020f5780638426b9681461023a57610106565b8063021a5fe5146101105780633659cfe61461014d5780633c231166146101765780634c6c848f146101a157610106565b36610106576101046103a1565b005b61010e6103a1565b005b34801561011c57600080fd5b5061013760048036038101906101329190611b26565b6103bb565b6040516101449190611b6e565b60405180910390f35b34801561015957600080fd5b50610174600480360381019061016f9190611be7565b610425565b005b34801561018257600080fd5b5061018b61048b565b6040516101989190611c23565b60405180910390f35b3480156101ad57600080fd5b506101c860048036038101906101c39190611be7565b6104cd565b005b3480156101d657600080fd5b506101f160048036038101906101ec9190611be7565b610636565b005b61020d60048036038101906102089190611ca3565b610796565b005b34801561021b57600080fd5b50610224610833565b6040516102319190611c23565b60405180910390f35b34801561024657600080fd5b5061024f61088a565b005b34801561025d57600080fd5b5061027860048036038101906102739190611be7565b6109c0565b005b34801561028657600080fd5b5061028f610a14565b60405161029c9190611c23565b60405180910390f35b3480156102b157600080fd5b506102ba610a56565b6040516102c79190611c23565b60405180910390f35b3480156102dc57600080fd5b506102f760048036038101906102f29190611e52565b610a98565b005b34801561030557600080fd5b50610320600480360381019061031b9190611e52565b610bbd565b005b34801561032e57600080fd5b5061034960048036038101906103449190611be7565b610ce2565b005b34801561035757600080fd5b50610360610e09565b60405161036d9190611c23565b60405180910390f35b34801561038257600080fd5b5061038b610e4b565b6040516103989190611c23565b60405180910390f35b6103a9610ea2565b6103b96103b4610eac565b610ebb565b565b6000808260017f9a7afc584486ebd3e91191a9ac2c2e986b3aaa4084656fc915fe0843ff009c6b60001c6103ef9190611ed4565b60001b604051602001610403929190611f54565b6040516020818303038152906040528051906020012090508054915050919050565b61042d610ec7565b73ffffffffffffffffffffffffffffffffffffffff163373ffffffffffffffffffffffffffffffffffffffff160361047f5761047a81604051806020016040528060008152506000610f1e565b610488565b6104876103a1565b5b50565b60006104c860017f1777adabd324f814e2b0e28f6edf876dce01d7d66358c9acfe87b1b5f38338d660001c6104c09190611ed4565b60001b610f4a565b905090565b61050860017fadf90d75f0f2d657d5a22fa0f6e4dabb83c4598b77158eb4119cb38f1d86446360001c6105009190611ed4565b60001b610f4a565b73ffffffffffffffffffffffffffffffffffffffff163373ffffffffffffffffffffffffffffffffffffffff1614610575576040517f08c379a000000000000000000000000000000000000000000000000000000000815260040161056c90611fdd565b60405180910390fd5b61057e81610f55565b60006105bb60017f1777adabd324f814e2b0e28f6edf876dce01d7d66358c9acfe87b1b5f38338d660001c6105b39190611ed4565b60001b610f4a565b90506105f960017f1777adabd324f814e2b0e28f6edf876dce01d7d66358c9acfe87b1b5f38338d660001c6105f09190611ed4565b60001b83611068565b7ff33499cccaa0611882086224cc48cd82ef54b66a4d2edf4ed67108dd516896d5818360405161062a929190611ffd565b60405180910390a15050565b61067160017fca334bf49ef20e9cbff039feda3bc1c2a853aff17b1b5187e4aa1380ec55829d60001c6106699190611ed4565b60001b610f4a565b73ffffffffffffffffffffffffffffffffffffffff163373ffffffffffffffffffffffffffffffffffffffff16146106de576040517f08c379a00000000000000000000000000000000000000000000000000000000081526004016106d590612072565b60405180910390fd5b600061071b60017fadf90d75f0f2d657d5a22fa0f6e4dabb83c4598b77158eb4119cb38f1d86446360001c6107139190611ed4565b60001b610f4a565b905061075960017fadf90d75f0f2d657d5a22fa0f6e4dabb83c4598b77158eb4119cb38f1d86446360001c6107509190611ed4565b60001b83611068565b7f2ac55ae7ba47db34b5334622acafeb34a65daf143b47019273185d64c73a35a5818360405161078a929190611ffd565b60405180910390a15050565b61079e610ec7565b73ffffffffffffffffffffffffffffffffffffffff163373ffffffffffffffffffffffffffffffffffffffff1603610825576108208383838080601f016020809104026020016040519081016040528093929190818152602001838380828437600081840152601f19601f820116905080830192505050505050506001610f1e565b61082e565b61082d6103a1565b5b505050565b600061083d610ec7565b73ffffffffffffffffffffffffffffffffffffffff163373ffffffffffffffffffffffffffffffffffffffff160361087e57610877610eac565b9050610887565b6108866103a1565b5b90565b3373ffffffffffffffffffffffffffffffffffffffff166108a9610a56565b73ffffffffffffffffffffffffffffffffffffffff16146108ff576040517f08c379a00000000000000000000000000000000000000000000000000000000081526004016108f690612104565b60405180910390fd5b6000610909610a14565b905061094760017fca334bf49ef20e9cbff039feda3bc1c2a853aff17b1b5187e4aa1380ec55829d60001c61093e9190611ed4565b60001b33611068565b61098460017f3a517dd736309b905c692160a21b5439bdc56db1dc77d6982b66d44814e3fa9760001c61097a9190611ed4565b60001b6000611068565b7f67ebaebcd2ca5a91a404e898110f221747e8d15567f2388a34794aab151cf3e681336040516109b5929190611ffd565b60405180910390a150565b6109c8610ec7565b73ffffffffffffffffffffffffffffffffffffffff163373ffffffffffffffffffffffffffffffffffffffff1603610a0857610a038161106f565b610a11565b610a106103a1565b5b50565b6000610a5160017fca334bf49ef20e9cbff039feda3bc1c2a853aff17b1b5187e4aa1380ec55829d60001c610a499190611ed4565b60001b610f4a565b905090565b6000610a9360017f3a517dd736309b905c692160a21b5439bdc56db1dc77d6982b66d44814e3fa9760001c610a8b9190611ed4565b60001b610f4a565b905090565b610ad360017fadf90d75f0f2d657d5a22fa0f6e4dabb83c4598b77158eb4119cb38f1d86446360001c610acb9190611ed4565b60001b610f4a565b73ffffffffffffffffffffffffffffffffffffffff163373ffffffffffffffffffffffffffffffffffffffff1614610b40576040517f08c379a0000000000000000000000000000000000000000000000000000000008152600401610b3790611fdd565b60405180910390fd5b60005b8151811015610b8257610b71828281518110610b6257610b61612124565b5b602002602001015160006110bb565b80610b7b90612153565b9050610b43565b507f754b9f3148ad4cf227ecdf9a64810fa2d0b8682a2de15dfad5310a12b7281a5f81604051610bb29190612259565b60405180910390a150565b610bf860017fadf90d75f0f2d657d5a22fa0f6e4dabb83c4598b77158eb4119cb38f1d86446360001c610bf09190611ed4565b60001b610f4a565b73ffffffffffffffffffffffffffffffffffffffff163373ffffffffffffffffffffffffffffffffffffffff1614610c65576040517f08c379a0000000000000000000000000000000000000000000000000000000008152600401610c5c90611fdd565b60405180910390fd5b60005b8151811015610ca757610c96828281518110610c8757610c86612124565b5b602002602001015160016110bb565b80610ca090612153565b9050610c68565b507f45fc6a4de33dfc2fa6f40e48f353bf7ff006086db3ecf80c077f788082cc7d5a81604051610cd79190612259565b60405180910390a150565b610d1d60017fca334bf49ef20e9cbff039feda3bc1c2a853aff17b1b5187e4aa1380ec55829d60001c610d159190611ed4565b60001b610f4a565b73ffffffffffffffffffffffffffffffffffffffff163373ffffffffffffffffffffffffffffffffffffffff1614610d8a576040517f08c379a0000000000000000000000000000000000000000000000000000000008152600401610d8190612072565b60405180910390fd5b610dc660017f3a517dd736309b905c692160a21b5439bdc56db1dc77d6982b66d44814e3fa9760001c610dbd9190611ed4565b60001b82611068565b7f5778f1547abbbb86090a43c32aec38334b31df4beeb6f8f3fa063f593b53a526610def610a14565b82604051610dfe929190611ffd565b60405180910390a150565b6000610e4660017fadf90d75f0f2d657d5a22fa0f6e4dabb83c4598b77158eb4119cb38f1d86446360001c610e3e9190611ed4565b60001b610f4a565b905090565b6000610e55610ec7565b73ffffffffffffffffffffffffffffffffffffffff163373ffffffffffffffffffffffffffffffffffffffff1603610e9657610e8f610ec7565b9050610e9f565b610e9e6103a1565b5b90565b610eaa611122565b565b6000610eb66111a1565b905090565b610ec4816111f8565b50565b6000610ef57fb53127684a568b3173ae13b9f8a6016e243e63b6e8ee1178d6a717850b5d610360001b611250565b60000160009054906101000a900473ffffffffffffffffffffffffffffffffffffffff16905090565b610f278361125a565b600082511180610f345750805b15610f4557610f4383836112a9565b505b505050565b600081549050919050565b600073ffffffffffffffffffffffffffffffffffffffff168173ffffffffffffffffffffffffffffffffffffffff16148061102657508073ffffffffffffffffffffffffffffffffffffffff166301ffc9a77f53e41baa000000000000000000000000000000000000000000000000000000006040518263ffffffff1660e01b8152600401610fe4919061228a565b602060405180830381865afa158015611001573d6000803e3d6000fd5b505050506040513d601f19601f8201168201806040525081019061102591906122d1565b5b611065576040517f08c379a000000000000000000000000000000000000000000000000000000000815260040161105c90612370565b60405180910390fd5b50565b8082555050565b7f7e644d79422f17c01e4894b5f4f588d331ebfa28653d42ae832dc59e38c9798f611098610ec7565b826040516110a7929190611ffd565b60405180910390a16110b8816112d6565b50565b60008260017f9a7afc584486ebd3e91191a9ac2c2e986b3aaa4084656fc915fe0843ff009c6b60001c6110ee9190611ed4565b60001b604051602001611102929190611f54565b604051602081830303815290604052805190602001209050818155505050565b61112a610ec7565b73ffffffffffffffffffffffffffffffffffffffff163373ffffffffffffffffffffffffffffffffffffffff1603611197576040517f08c379a000000000000000000000000000000000000000000000000000000000815260040161118e90612428565b60405180910390fd5b61119f6113b6565b565b60006111cf7f360894a13ba1a3210667c828492db98dca3e2076cc3735a920a3ca505d382bbc60001b611250565b60000160009054906101000a900473ffffffffffffffffffffffffffffffffffffffff16905090565b6112256000357fffffffff00000000000000000000000000000000000000000000000000000000166103bb565b15611244576000611235826113b8565b90506000815190508060208301f35b61124d81611464565b50565b6000819050919050565b6112638161148a565b8073ffffffffffffffffffffffffffffffffffffffff167fbc7cd75a20ee27fd9adebab32041f755214dbc6bffa90cc0225b39da2e5c2d3b60405160405180910390a250565b60606112ce8383604051806060016040528060278152602001612a4e60279139611543565b905092915050565b600073ffffffffffffffffffffffffffffffffffffffff168173ffffffffffffffffffffffffffffffffffffffff1603611345576040517f08c379a000000000000000000000000000000000000000000000000000000000815260040161133c906124ba565b60405180910390fd5b806113727fb53127684a568b3173ae13b9f8a6016e243e63b6e8ee1178d6a717850b5d610360001b611250565b60000160006101000a81548173ffffffffffffffffffffffffffffffffffffffff021916908373ffffffffffffffffffffffffffffffffffffffff16021790555050565b565b60606000357fffffffff000000000000000000000000000000000000000000000000000000001660e01c63ffffffff1660006113f5826001611610565b9050611446846000368080601f016020809104026020016040519081016040528093929190818152602001838380828437600081840152601f19601f820116905080830192505050505050506112a9565b925061145d82611455906124e4565b6001836117ac565b5050919050565b3660008037600080366000845af43d6000803e8060008114611485573d6000f35b3d6000fd5b61149381611918565b6114d2576040517f08c379a00000000000000000000000000000000000000000000000000000000081526004016114c99061259e565b60405180910390fd5b806114ff7f360894a13ba1a3210667c828492db98dca3e2076cc3735a920a3ca505d382bbc60001b611250565b60000160006101000a81548173ffffffffffffffffffffffffffffffffffffffff021916908373ffffffffffffffffffffffffffffffffffffffff16021790555050565b606061154e84611918565b61158d576040517f08c379a000000000000000000000000000000000000000000000000000000000815260040161158490612630565b60405180910390fd5b6000808573ffffffffffffffffffffffffffffffffffffffff16856040516115b591906126c1565b600060405180830381855af49150503d80600081146115f0576040519150601f19603f3d011682016040523d82523d6000602084013e6115f5565b606091505b509150915061160582828661192b565b925050509392505050565b611618611a99565b600073ffffffffffffffffffffffffffffffffffffffff16611638611992565b73ffffffffffffffffffffffffffffffffffffffff1603156117a657600061165e611992565b905082156116fb578073ffffffffffffffffffffffffffffffffffffffff16638925ca5a85336000366040518563ffffffff1660e01b81526004016116a69493929190612734565b6000604051808303816000875af11580156116c5573d6000803e3d6000fd5b505050506040513d6000823e3d601f19601f820116820180604052508101906116ee9190612863565b8260000181905250611785565b8073ffffffffffffffffffffffffffffffffffffffff16633e884943856040518263ffffffff1660e01b815260040161173491906128ac565b6000604051808303816000875af1158015611753573d6000803e3d6000fd5b505050506040513d6000823e3d601f19601f8201168201806040525081019061177c9190612863565b82600001819052505b61179282600001516119d4565b82602001819052505a826040018181525050505b92915050565b600073ffffffffffffffffffffffffffffffffffffffff166117cc611992565b73ffffffffffffffffffffffffffffffffffffffff1603156119135760005a82604001516117fa9190611ed4565b90506000611806611992565b9050606061181784600001516119d4565b90508415611899578173ffffffffffffffffffffffffffffffffffffffff1663f0bd946887858760200151856040518563ffffffff1660e01b81526004016118629493929190612994565b600060405180830381600087803b15801561187c57600080fd5b505af1158015611890573d6000803e3d6000fd5b5050505061190f565b8173ffffffffffffffffffffffffffffffffffffffff166304e6279a87858760200151856040518563ffffffff1660e01b81526004016118dc9493929190612994565b600060405180830381600087803b1580156118f657600080fd5b505af115801561190a573d6000803e3d6000fd5b505050505b5050505b505050565b600080823b905060008111915050919050565b6060831561193b5782905061198b565b60008351111561194e5782518084602001fd5b816040517f08c379a00000000000000000000000000000000000000000000000000000000081526004016119829190612a2b565b60405180910390fd5b9392505050565b60006119cf60017f1777adabd324f814e2b0e28f6edf876dce01d7d66358c9acfe87b1b5f38338d660001c6119c79190611ed4565b60001b610f4a565b905090565b606060008251905060008167ffffffffffffffff8111156119f8576119f7611d14565b5b604051908082528060200260200182016040528015611a265781602001602082028036833780820191505090505b50905060005b82811015611a8e576000858281518110611a4957611a48612124565b5b6020026020010151905060008154905080848481518110611a6d57611a6c612124565b5b60200260200101818152505050508080611a8690612153565b915050611a2c565b508092505050919050565b60405180606001604052806060815260200160608152602001600081525090565b6000604051905090565b600080fd5b600080fd5b60007fffffffff0000000000000000000000000000000000000000000000000000000082169050919050565b611b0381611ace565b8114611b0e57600080fd5b50565b600081359050611b2081611afa565b92915050565b600060208284031215611b3c57611b3b611ac4565b5b6000611b4a84828501611b11565b91505092915050565b60008115159050919050565b611b6881611b53565b82525050565b6000602082019050611b836000830184611b5f565b92915050565b600073ffffffffffffffffffffffffffffffffffffffff82169050919050565b6000611bb482611b89565b9050919050565b611bc481611ba9565b8114611bcf57600080fd5b50565b600081359050611be181611bbb565b92915050565b600060208284031215611bfd57611bfc611ac4565b5b6000611c0b84828501611bd2565b91505092915050565b611c1d81611ba9565b82525050565b6000602082019050611c386000830184611c14565b92915050565b600080fd5b600080fd5b600080fd5b60008083601f840112611c6357611c62611c3e565b5b8235905067ffffffffffffffff811115611c8057611c7f611c43565b5b602083019150836001820283011115611c9c57611c9b611c48565b5b9250929050565b600080600060408486031215611cbc57611cbb611ac4565b5b6000611cca86828701611bd2565b935050602084013567ffffffffffffffff811115611ceb57611cea611ac9565b5b611cf786828701611c4d565b92509250509250925092565b6000601f19601f8301169050919050565b7f4e487b7100000000000000000000000000000000000000000000000000000000600052604160045260246000fd5b611d4c82611d03565b810181811067ffffffffffffffff82111715611d6b57611d6a611d14565b5b80604052505050565b6000611d7e611aba565b9050611d8a8282611d43565b919050565b600067ffffffffffffffff821115611daa57611da9611d14565b5b602082029050602081019050919050565b6000611dce611dc984611d8f565b611d74565b90508083825260208201905060208402830185811115611df157611df0611c48565b5b835b81811015611e1a5780611e068882611b11565b845260208401935050602081019050611df3565b5050509392505050565b600082601f830112611e3957611e38611c3e565b5b8135611e49848260208601611dbb565b91505092915050565b600060208284031215611e6857611e67611ac4565b5b600082013567ffffffffffffffff811115611e8657611e85611ac9565b5b611e9284828501611e24565b91505092915050565b6000819050919050565b7f4e487b7100000000000000000000000000000000000000000000000000000000600052601160045260246000fd5b6000611edf82611e9b565b9150611eea83611e9b565b9250828203905081811115611f0257611f01611ea5565b5b92915050565b6000819050919050565b611f23611f1e82611ace565b611f08565b82525050565b6000819050919050565b6000819050919050565b611f4e611f4982611f29565b611f33565b82525050565b6000611f608285611f12565b600482019150611f708284611f3d565b6020820191508190509392505050565b600082825260208201905092915050565b7f53706865726558206572726f723a206f70657261746f72207265717569726564600082015250565b6000611fc7602083611f80565b9150611fd282611f91565b602082019050919050565b60006020820190508181036000830152611ff681611fba565b9050919050565b60006040820190506120126000830185611c14565b61201f6020830184611c14565b9392505050565b7f53706865726558206572726f723a2061646d696e207265717569726564000000600082015250565b600061205c601d83611f80565b915061206782612026565b602082019050919050565b6000602082019050818103600083015261208b8161204f565b9050919050565b7f53706865726558206572726f723a206e6f74207468652070656e64696e67206160008201527f63636f756e740000000000000000000000000000000000000000000000000000602082015250565b60006120ee602683611f80565b91506120f982612092565b604082019050919050565b6000602082019050818103600083015261211d816120e1565b9050919050565b7f4e487b7100000000000000000000000000000000000000000000000000000000600052603260045260246000fd5b600061215e82611e9b565b91507fffffffffffffffffffffffffffffffffffffffffffffffffffffffffffffffff82036121905761218f611ea5565b5b600182019050919050565b600081519050919050565b600082825260208201905092915050565b6000819050602082019050919050565b6121d081611ace565b82525050565b60006121e283836121c7565b60208301905092915050565b6000602082019050919050565b60006122068261219b565b61221081856121a6565b935061221b836121b7565b8060005b8381101561224c57815161223388826121d6565b975061223e836121ee565b92505060018101905061221f565b5085935050505092915050565b6000602082019050818103600083015261227381846121fb565b905092915050565b61228481611ace565b82525050565b600060208201905061229f600083018461227b565b92915050565b6122ae81611b53565b81146122b957600080fd5b50565b6000815190506122cb816122a5565b92915050565b6000602082840312156122e7576122e6611ac4565b5b60006122f5848285016122bc565b91505092915050565b7f53706865726558206572726f723a206e6f7420612053706865726558456e676960008201527f6e65000000000000000000000000000000000000000000000000000000000000602082015250565b600061235a602283611f80565b9150612365826122fe565b604082019050919050565b600060208201905081810360008301526123898161234d565b9050919050565b7f5472616e73706172656e745570677261646561626c6550726f78793a2061646d60008201527f696e2063616e6e6f742066616c6c6261636b20746f2070726f7879207461726760208201527f6574000000000000000000000000000000000000000000000000000000000000604082015250565b6000612412604283611f80565b915061241d82612390565b606082019050919050565b6000602082019050818103600083015261244181612405565b9050919050565b7f455243313936373a206e65772061646d696e20697320746865207a65726f206160008201527f6464726573730000000000000000000000000000000000000000000000000000602082015250565b60006124a4602683611f80565b91506124af82612448565b604082019050919050565b600060208201905081810360008301526124d381612497565b9050919050565b6000819050919050565b60006124ef826124da565b91507f8000000000000000000000000000000000000000000000000000000000000000820361252157612520611ea5565b5b816000039050919050565b7f455243313936373a206e657720696d706c656d656e746174696f6e206973206e60008201527f6f74206120636f6e747261637400000000000000000000000000000000000000602082015250565b6000612588602d83611f80565b91506125938261252c565b604082019050919050565b600060208201905081810360008301526125b78161257b565b9050919050565b7f416464726573733a2064656c65676174652063616c6c20746f206e6f6e2d636f60008201527f6e74726163740000000000000000000000000000000000000000000000000000602082015250565b600061261a602683611f80565b9150612625826125be565b604082019050919050565b600060208201905081810360008301526126498161260d565b9050919050565b600081519050919050565b600081905092915050565b60005b83811015612684578082015181840152602081019050612669565b60008484015250505050565b600061269b82612650565b6126a5818561265b565b93506126b5818560208601612666565b80840191505092915050565b60006126cd8284612690565b915081905092915050565b6126e1816124da565b82525050565b600082825260208201905092915050565b82818337600083830152505050565b600061271383856126e7565b93506127208385846126f8565b61272983611d03565b840190509392505050565b600060608201905061274960008301876126d8565b6127566020830186611c14565b8181036040830152612769818486612707565b905095945050505050565b600067ffffffffffffffff82111561278f5761278e611d14565b5b602082029050602081019050919050565b6127a981611f29565b81146127b457600080fd5b50565b6000815190506127c6816127a0565b92915050565b60006127df6127da84612774565b611d74565b9050808382526020820190506020840283018581111561280257612801611c48565b5b835b8181101561282b578061281788826127b7565b845260208401935050602081019050612804565b5050509392505050565b600082601f83011261284a57612849611c3e565b5b815161285a8482602086016127cc565b91505092915050565b60006020828403121561287957612878611ac4565b5b600082015167ffffffffffffffff81111561289757612896611ac9565b5b6128a384828501612835565b91505092915050565b60006020820190506128c160008301846126d8565b92915050565b6128d081611e9b565b82525050565b600081519050919050565b600082825260208201905092915050565b6000819050602082019050919050565b61290b81611f29565b82525050565b600061291d8383612902565b60208301905092915050565b6000602082019050919050565b6000612941826128d6565b61294b81856128e1565b9350612956836128f2565b8060005b8381101561298757815161296e8882612911565b975061297983612929565b92505060018101905061295a565b5085935050505092915050565b60006080820190506129a960008301876126d8565b6129b660208301866128c7565b81810360408301526129c88185612936565b905081810360608301526129dc8184612936565b905095945050505050565b600081519050919050565b60006129fd826129e7565b612a078185611f80565b9350612a17818560208601612666565b612a2081611d03565b840191505092915050565b60006020820190508181036000830152612a4581846129f2565b90509291505056fe416464726573733a206c6f772d6c6576656c2064656c65676174652063616c6c206661696c6564a2646970667358221220fcdf4e4a510b606b6a20a558b7490f23017103604585e25c9295dac941d92d3664736f6c63430008130033416464726573733a206c6f772d6c6576656c2064656c65676174652063616c6c206661696c6564",
  "linkReferences": {},
  "deployedLinkReferences": {}
}