{
  "_format": "hh-sol-artifact-1",
  "contractName": "SphereXUpgradeableBeacon",
  "sourceName": "src/ProtectedProxies/SphereXUpgradeableBeacon.sol",
  "abi": [
    {
      "inputs": [
        {
          "internalType": "address",
          "name": "implementation",
          "type": "address"
        },
        {
          "internalType": "address",
          "name": "admin",
          "type": "address"
        },
        {
          "internalType": "address",
          "name": "operator",
          "type": "address"
        },
        {
          "internalType": "address",
          "name": "engine",
          "type": "address"
        }
      ],
      "stateMutability": "nonpayable",
      "type": "constructor"
    },
    {
      "anonymous": false,
      "inputs": [
        {
          "indexed": false,
          "internalType": "bytes4[]",
          "name": "patterns",
          "type": "bytes4[]"
        }
      ],
      "name": "AddedProtectedFuncSigs",
      "type": "event"
    },
    {
      "anonymous": false,
      "inputs": [
        {
          "indexed": false,
          "internalType": "address",
          "name": "oldEngineAddress",
          "type": "address"
        },
        {
          "indexed": false,
          "internalType": "address",
          "name": "newEngineAddress",
          "type": "address"
        }
      ],
      "name": "ChangedSpherexEngineAddress",
      "type": "event"
    },
    {
      "anonymous": false,
      "inputs": [
        {
          "indexed": false,
          "internalType": "address",
          "name": "oldSphereXAdmin",
          "type": "address"
        },
        {
          "indexed": false,
          "internalType": "address",
          "name": "newSphereXAdmin",
          "type": "address"
        }
      ],
      "name": "ChangedSpherexOperator",
      "type": "event"
    },
    {
      "anonymous": false,
      "inputs": [
        {
          "indexed": true,
          "internalType": "address",
          "name": "previousOwner",
          "type": "address"
        },
        {
          "indexed": true,
          "internalType": "address",
          "name": "newOwner",
          "type": "address"
        }
      ],
      "name": "OwnershipTransferred",
      "type": "event"
    },
    {
      "anonymous": false,
      "inputs": [
        {
          "indexed": false,
          "internalType": "bytes4[]",
          "name": "patterns",
          "type": "bytes4[]"
        }
      ],
      "name": "RemovedProtectedFuncSigs",
      "type": "event"
    },
    {
      "anonymous": false,
      "inputs": [
        {
          "indexed": false,
          "internalType": "address",
          "name": "oldAdmin",
          "type": "address"
        },
        {
          "indexed": false,
          "internalType": "address",
          "name": "newAdmin",
          "type": "address"
        }
      ],
      "name": "SpherexAdminTransferCompleted",
      "type": "event"
    },
    {
      "anonymous": false,
      "inputs": [
        {
          "indexed": false,
          "internalType": "address",
          "name": "currentAdmin",
          "type": "address"
        },
        {
          "indexed": false,
          "internalType": "address",
          "name": "pendingAdmin",
          "type": "address"
        }
      ],
      "name": "SpherexAdminTransferStarted",
      "type": "event"
    },
    {
      "anonymous": false,
      "inputs": [
        {
          "indexed": true,
          "internalType": "address",
          "name": "implementation",
          "type": "address"
        }
      ],
      "name": "Upgraded",
      "type": "event"
    },
    {
      "inputs": [],
      "name": "acceptSphereXAdminRole",
      "outputs": [],
      "stateMutability": "nonpayable",
      "type": "function"
    },
    {
      "inputs": [
        {
          "internalType": "bytes4[]",
          "name": "keys",
          "type": "bytes4[]"
        }
      ],
      "name": "addProtectedFuncSigs",
      "outputs": [],
      "stateMutability": "nonpayable",
      "type": "function"
    },
    {
      "inputs": [
        {
          "internalType": "address",
          "name": "newSphereXEngine",
          "type": "address"
        }
      ],
      "name": "changeSphereXEngine",
      "outputs": [],
      "stateMutability": "nonpayable",
      "type": "function"
    },
    {
      "inputs": [
        {
          "internalType": "address",
          "name": "newSphereXOperator",
          "type": "address"
        }
      ],
      "name": "changeSphereXOperator",
      "outputs": [],
      "stateMutability": "nonpayable",
      "type": "function"
    },
    {
      "inputs": [],
      "name": "implementation",
      "outputs": [
        {
          "internalType": "address",
          "name": "",
          "type": "address"
        }
      ],
      "stateMutability": "view",
      "type": "function"
    },
    {
      "inputs": [
        {
          "internalType": "bytes4",
          "name": "func_sig",
          "type": "bytes4"
        }
      ],
      "name": "isProtectedFuncSig",
      "outputs": [
        {
          "internalType": "bool",
          "name": "value",
          "type": "bool"
        }
      ],
      "stateMutability": "view",
      "type": "function"
    },
    {
      "inputs": [],
      "name": "owner",
      "outputs": [
        {
          "internalType": "address",
          "name": "",
          "type": "address"
        }
      ],
      "stateMutability": "view",
      "type": "function"
    },
    {
      "inputs": [],
      "name": "pendingSphereXAdmin",
      "outputs": [
        {
          "internalType": "address",
          "name": "",
          "type": "address"
        }
      ],
      "stateMutability": "view",
      "type": "function"
    },
    {
      "inputs": [
        {
          "internalType": "bytes4",
          "name": "func_sig",
          "type": "bytes4"
        }
      ],
      "name": "protectedImplementation",
      "outputs": [
        {
          "internalType": "address",
          "name": "",
          "type": "address"
        },
        {
          "internalType": "address",
          "name": "",
          "type": "address"
        },
        {
          "internalType": "bool",
          "name": "",
          "type": "bool"
        }
      ],
      "stateMutability": "view",
      "type": "function"
    },
    {
      "inputs": [
        {
          "internalType": "bytes4[]",
          "name": "keys",
          "type": "bytes4[]"
        }
      ],
      "name": "removeProtectedFuncSigs",
      "outputs": [],
      "stateMutability": "nonpayable",
      "type": "function"
    },
    {
      "inputs": [],
      "name": "renounceOwnership",
      "outputs": [],
      "stateMutability": "nonpayable",
      "type": "function"
    },
    {
      "inputs": [],
      "name": "sphereXAdmin",
      "outputs": [
        {
          "internalType": "address",
          "name": "",
          "type": "address"
        }
      ],
      "stateMutability": "view",
      "type": "function"
    },
    {
      "inputs": [],
      "name": "sphereXEngine",
      "outputs": [
        {
          "internalType": "address",
          "name": "",
          "type": "address"
        }
      ],
      "stateMutability": "view",
      "type": "function"
    },
    {
      "inputs": [],
      "name": "sphereXOperator",
      "outputs": [
        {
          "internalType": "address",
          "name": "",
          "type": "address"
        }
      ],
      "stateMutability": "view",
      "type": "function"
    },
    {
      "inputs": [
        {
          "internalType": "address",
          "name": "newOwner",
          "type": "address"
        }
      ],
      "name": "transferOwnership",
      "outputs": [],
      "stateMutability": "nonpayable",
      "type": "function"
    },
    {
      "inputs": [
        {
          "internalType": "address",
          "name": "newAdmin",
          "type": "address"
        }
      ],
      "name": "transferSphereXAdminRole",
      "outputs": [],
      "stateMutability": "nonpayable",
      "type": "function"
    },
    {
      "inputs": [
        {
          "internalType": "address",
          "name": "newImplementation",
          "type": "address"
        }
      ],
      "name": "upgradeTo",
      "outputs": [],
      "stateMutability": "nonpayable",
      "type": "function"
    }
  ],
  "bytecode": "0x60806040523480156200001157600080fd5b50604051620024db380380620024db833981810160405281019062000037919062000532565b83838383828282620000518383836200009360201b60201c565b505050505050620000776200006b6200022f60201b60201c565b6200023760201b60201c565b6200008881620002fb60201b60201c565b505050505062000860565b620000d960017fca334bf49ef20e9cbff039feda3bc1c2a853aff17b1b5187e4aa1380ec55829d60001c620000c99190620005dd565b60001b846200039260201b60201c565b7f67ebaebcd2ca5a91a404e898110f221747e8d15567f2388a34794aab151cf3e66000846040516200010d92919062000629565b60405180910390a16200015b60017fadf90d75f0f2d657d5a22fa0f6e4dabb83c4598b77158eb4119cb38f1d86446360001c6200014b9190620005dd565b60001b836200039260201b60201c565b7f2ac55ae7ba47db34b5334622acafeb34a65daf143b47019273185d64c73a35a56000836040516200018f92919062000629565b60405180910390a1620001a8816200039960201b60201c565b620001ee60017f1777adabd324f814e2b0e28f6edf876dce01d7d66358c9acfe87b1b5f38338d660001c620001de9190620005dd565b60001b826200039260201b60201c565b7ff33499cccaa0611882086224cc48cd82ef54b66a4d2edf4ed67108dd516896d56000826040516200022292919062000629565b60405180910390a1505050565b600033905090565b60008060009054906101000a900473ffffffffffffffffffffffffffffffffffffffff169050816000806101000a81548173ffffffffffffffffffffffffffffffffffffffff021916908373ffffffffffffffffffffffffffffffffffffffff1602179055508173ffffffffffffffffffffffffffffffffffffffff168173ffffffffffffffffffffffffffffffffffffffff167f8be0079c531659141344cd1fd0a4f28419497f9722a3daafe3b4186f6b6457e060405160405180910390a35050565b6200030c81620004b560201b60201c565b6200034e576040517f08c379a00000000000000000000000000000000000000000000000000000000081526004016200034590620006dd565b60405180910390fd5b80600160006101000a81548173ffffffffffffffffffffffffffffffffffffffff021916908373ffffffffffffffffffffffffffffffffffffffff16021790555050565b8082555050565b600073ffffffffffffffffffffffffffffffffffffffff168173ffffffffffffffffffffffffffffffffffffffff1614806200047057508073ffffffffffffffffffffffffffffffffffffffff166301ffc9a77f53e41baa000000000000000000000000000000000000000000000000000000006040518263ffffffff1660e01b81526004016200042b91906200073c565b602060405180830381865afa15801562000449573d6000803e3d6000fd5b505050506040513d601f19601f820116820180604052508101906200046f919062000796565b5b620004b2576040517f08c379a0000000000000000000000000000000000000000000000000000000008152600401620004a9906200083e565b60405180910390fd5b50565b600080823b905060008111915050919050565b600080fd5b600073ffffffffffffffffffffffffffffffffffffffff82169050919050565b6000620004fa82620004cd565b9050919050565b6200050c81620004ed565b81146200051857600080fd5b50565b6000815190506200052c8162000501565b92915050565b600080600080608085870312156200054f576200054e620004c8565b5b60006200055f878288016200051b565b945050602062000572878288016200051b565b935050604062000585878288016200051b565b925050606062000598878288016200051b565b91505092959194509250565b6000819050919050565b7f4e487b7100000000000000000000000000000000000000000000000000000000600052601160045260246000fd5b6000620005ea82620005a4565b9150620005f783620005a4565b9250828203905081811115620006125762000611620005ae565b5b92915050565b6200062381620004ed565b82525050565b600060408201905062000640600083018562000618565b6200064f602083018462000618565b9392505050565b600082825260208201905092915050565b7f5570677261646561626c65426561636f6e3a20696d706c656d656e746174696f60008201527f6e206973206e6f74206120636f6e747261637400000000000000000000000000602082015250565b6000620006c560338362000656565b9150620006d28262000667565b604082019050919050565b60006020820190508181036000830152620006f881620006b6565b9050919050565b60007fffffffff0000000000000000000000000000000000000000000000000000000082169050919050565b6200073681620006ff565b82525050565b60006020820190506200075360008301846200072b565b92915050565b60008115159050919050565b620007708162000759565b81146200077c57600080fd5b50565b600081519050620007908162000765565b92915050565b600060208284031215620007af57620007ae620004c8565b5b6000620007bf848285016200077f565b91505092915050565b7f53706865726558206572726f723a206e6f7420612053706865726558456e676960008201527f6e65000000000000000000000000000000000000000000000000000000000000602082015250565b60006200082660228362000656565b91506200083382620007c8565b604082019050919050565b60006020820190508181036000830152620008598162000817565b9050919050565b611c6b80620008706000396000f3fe608060405234801561001057600080fd5b506004361061010b5760003560e01c80638426b968116100a2578063a7fdd04711610071578063a7fdd04714610270578063cc5b74501461028c578063daba7ef7146102a8578063e7e5db4f146102c4578063f2fde38b146102e25761010b565b80638426b9681461020c5780638da5cb5b1461021657806399e80f3b146102345780639aa9019e146102525761010b565b80634ee8f858116100de5780634ee8f858146101965780635c60da1b146101b25780636160b05e146101d0578063715018a6146102025761010b565b8063021a5fe5146101105780633659cfe6146101405780633c2311661461015c5780634c6c848f1461017a575b600080fd5b61012a600480360381019061012591906112bf565b6102fe565b6040516101379190611307565b60405180910390f35b61015a60048036038101906101559190611380565b610368565b005b61016461041c565b60405161017191906113bc565b60405180910390f35b610194600480360381019061018f9190611380565b61045e565b005b6101b060048036038101906101ab9190611380565b6105c7565b005b6101ba610727565b6040516101c791906113bc565b60405180910390f35b6101ea60048036038101906101e591906112bf565b610751565b6040516101f9939291906113d7565b60405180910390f35b61020a61077c565b005b610214610804565b005b61021e61093a565b60405161022b91906113bc565b60405180910390f35b61023c610963565b60405161024991906113bc565b60405180910390f35b61025a6109a5565b60405161026791906113bc565b60405180910390f35b61028a60048036038101906102859190611567565b6109e7565b005b6102a660048036038101906102a19190611567565b610b0c565b005b6102c260048036038101906102bd9190611380565b610c31565b005b6102cc610d58565b6040516102d991906113bc565b60405180910390f35b6102fc60048036038101906102f79190611380565b610d9a565b005b6000808260017f9a7afc584486ebd3e91191a9ac2c2e986b3aaa4084656fc915fe0843ff009c6b60001c61033291906115e9565b60001b604051602001610346929190611669565b6040516020818303038152906040528051906020012090508054915050919050565b6103a360017fca334bf49ef20e9cbff039feda3bc1c2a853aff17b1b5187e4aa1380ec55829d60001c61039b91906115e9565b60001b610e91565b73ffffffffffffffffffffffffffffffffffffffff163373ffffffffffffffffffffffffffffffffffffffff1614610410576040517f08c379a0000000000000000000000000000000000000000000000000000000008152600401610407906116f2565b60405180910390fd5b61041981610e9c565b50565b600061045960017f1777adabd324f814e2b0e28f6edf876dce01d7d66358c9acfe87b1b5f38338d660001c61045191906115e9565b60001b610e91565b905090565b61049960017fadf90d75f0f2d657d5a22fa0f6e4dabb83c4598b77158eb4119cb38f1d86446360001c61049191906115e9565b60001b610e91565b73ffffffffffffffffffffffffffffffffffffffff163373ffffffffffffffffffffffffffffffffffffffff1614610506576040517f08c379a00000000000000000000000000000000000000000000000000000000081526004016104fd9061175e565b60405180910390fd5b61050f81610f67565b600061054c60017f1777adabd324f814e2b0e28f6edf876dce01d7d66358c9acfe87b1b5f38338d660001c61054491906115e9565b60001b610e91565b905061058a60017f1777adabd324f814e2b0e28f6edf876dce01d7d66358c9acfe87b1b5f38338d660001c61058191906115e9565b60001b8361107a565b7ff33499cccaa0611882086224cc48cd82ef54b66a4d2edf4ed67108dd516896d581836040516105bb92919061177e565b60405180910390a15050565b61060260017fca334bf49ef20e9cbff039feda3bc1c2a853aff17b1b5187e4aa1380ec55829d60001c6105fa91906115e9565b60001b610e91565b73ffffffffffffffffffffffffffffffffffffffff163373ffffffffffffffffffffffffffffffffffffffff161461066f576040517f08c379a0000000000000000000000000000000000000000000000000000000008152600401610666906116f2565b60405180910390fd5b60006106ac60017fadf90d75f0f2d657d5a22fa0f6e4dabb83c4598b77158eb4119cb38f1d86446360001c6106a491906115e9565b60001b610e91565b90506106ea60017fadf90d75f0f2d657d5a22fa0f6e4dabb83c4598b77158eb4119cb38f1d86446360001c6106e191906115e9565b60001b8361107a565b7f2ac55ae7ba47db34b5334622acafeb34a65daf143b47019273185d64c73a35a5818360405161071b92919061177e565b60405180910390a15050565b6000600160009054906101000a900473ffffffffffffffffffffffffffffffffffffffff16905090565b600080600061075e610727565b61076661041c565b61076f866102fe565b9250925092509193909250565b610784611081565b73ffffffffffffffffffffffffffffffffffffffff166107a261093a565b73ffffffffffffffffffffffffffffffffffffffff16146107f8576040517f08c379a00000000000000000000000000000000000000000000000000000000081526004016107ef906117f3565b60405180910390fd5b6108026000611089565b565b3373ffffffffffffffffffffffffffffffffffffffff166108236109a5565b73ffffffffffffffffffffffffffffffffffffffff1614610879576040517f08c379a000000000000000000000000000000000000000000000000000000000815260040161087090611885565b60405180910390fd5b6000610883610963565b90506108c160017fca334bf49ef20e9cbff039feda3bc1c2a853aff17b1b5187e4aa1380ec55829d60001c6108b891906115e9565b60001b3361107a565b6108fe60017f3a517dd736309b905c692160a21b5439bdc56db1dc77d6982b66d44814e3fa9760001c6108f491906115e9565b60001b600061107a565b7f67ebaebcd2ca5a91a404e898110f221747e8d15567f2388a34794aab151cf3e6813360405161092f92919061177e565b60405180910390a150565b60008060009054906101000a900473ffffffffffffffffffffffffffffffffffffffff16905090565b60006109a060017fca334bf49ef20e9cbff039feda3bc1c2a853aff17b1b5187e4aa1380ec55829d60001c61099891906115e9565b60001b610e91565b905090565b60006109e260017f3a517dd736309b905c692160a21b5439bdc56db1dc77d6982b66d44814e3fa9760001c6109da91906115e9565b60001b610e91565b905090565b610a2260017fadf90d75f0f2d657d5a22fa0f6e4dabb83c4598b77158eb4119cb38f1d86446360001c610a1a91906115e9565b60001b610e91565b73ffffffffffffffffffffffffffffffffffffffff163373ffffffffffffffffffffffffffffffffffffffff1614610a8f576040517f08c379a0000000000000000000000000000000000000000000000000000000008152600401610a869061175e565b60405180910390fd5b60005b8151811015610ad157610ac0828281518110610ab157610ab06118a5565b5b6020026020010151600061114d565b80610aca906118d4565b9050610a92565b507f754b9f3148ad4cf227ecdf9a64810fa2d0b8682a2de15dfad5310a12b7281a5f81604051610b0191906119da565b60405180910390a150565b610b4760017fadf90d75f0f2d657d5a22fa0f6e4dabb83c4598b77158eb4119cb38f1d86446360001c610b3f91906115e9565b60001b610e91565b73ffffffffffffffffffffffffffffffffffffffff163373ffffffffffffffffffffffffffffffffffffffff1614610bb4576040517f08c379a0000000000000000000000000000000000000000000000000000000008152600401610bab9061175e565b60405180910390fd5b60005b8151811015610bf657610be5828281518110610bd657610bd56118a5565b5b6020026020010151600161114d565b80610bef906118d4565b9050610bb7565b507f45fc6a4de33dfc2fa6f40e48f353bf7ff006086db3ecf80c077f788082cc7d5a81604051610c2691906119da565b60405180910390a150565b610c6c60017fca334bf49ef20e9cbff039feda3bc1c2a853aff17b1b5187e4aa1380ec55829d60001c610c6491906115e9565b60001b610e91565b73ffffffffffffffffffffffffffffffffffffffff163373ffffffffffffffffffffffffffffffffffffffff1614610cd9576040517f08c379a0000000000000000000000000000000000000000000000000000000008152600401610cd0906116f2565b60405180910390fd5b610d1560017f3a517dd736309b905c692160a21b5439bdc56db1dc77d6982b66d44814e3fa9760001c610d0c91906115e9565b60001b8261107a565b7f5778f1547abbbb86090a43c32aec38334b31df4beeb6f8f3fa063f593b53a526610d3e610963565b82604051610d4d92919061177e565b60405180910390a150565b6000610d9560017fadf90d75f0f2d657d5a22fa0f6e4dabb83c4598b77158eb4119cb38f1d86446360001c610d8d91906115e9565b60001b610e91565b905090565b610da2611081565b73ffffffffffffffffffffffffffffffffffffffff16610dc061093a565b73ffffffffffffffffffffffffffffffffffffffff1614610e16576040517f08c379a0000000000000000000000000000000000000000000000000000000008152600401610e0d906117f3565b60405180910390fd5b600073ffffffffffffffffffffffffffffffffffffffff168173ffffffffffffffffffffffffffffffffffffffff1603610e85576040517f08c379a0000000000000000000000000000000000000000000000000000000008152600401610e7c90611a6e565b60405180910390fd5b610e8e81611089565b50565b600081549050919050565b610ea4611081565b73ffffffffffffffffffffffffffffffffffffffff16610ec261093a565b73ffffffffffffffffffffffffffffffffffffffff1614610f18576040517f08c379a0000000000000000000000000000000000000000000000000000000008152600401610f0f906117f3565b60405180910390fd5b610f21816111b4565b8073ffffffffffffffffffffffffffffffffffffffff167fbc7cd75a20ee27fd9adebab32041f755214dbc6bffa90cc0225b39da2e5c2d3b60405160405180910390a250565b600073ffffffffffffffffffffffffffffffffffffffff168173ffffffffffffffffffffffffffffffffffffffff16148061103857508073ffffffffffffffffffffffffffffffffffffffff166301ffc9a77f53e41baa000000000000000000000000000000000000000000000000000000006040518263ffffffff1660e01b8152600401610ff69190611a9d565b602060405180830381865afa158015611013573d6000803e3d6000fd5b505050506040513d601f19601f820116820180604052508101906110379190611ae4565b5b611077576040517f08c379a000000000000000000000000000000000000000000000000000000000815260040161106e90611b83565b60405180910390fd5b50565b8082555050565b600033905090565b60008060009054906101000a900473ffffffffffffffffffffffffffffffffffffffff169050816000806101000a81548173ffffffffffffffffffffffffffffffffffffffff021916908373ffffffffffffffffffffffffffffffffffffffff1602179055508173ffffffffffffffffffffffffffffffffffffffff168173ffffffffffffffffffffffffffffffffffffffff167f8be0079c531659141344cd1fd0a4f28419497f9722a3daafe3b4186f6b6457e060405160405180910390a35050565b60008260017f9a7afc584486ebd3e91191a9ac2c2e986b3aaa4084656fc915fe0843ff009c6b60001c61118091906115e9565b60001b604051602001611194929190611669565b604051602081830303815290604052805190602001209050818155505050565b6111bd81611240565b6111fc576040517f08c379a00000000000000000000000000000000000000000000000000000000081526004016111f390611c15565b60405180910390fd5b80600160006101000a81548173ffffffffffffffffffffffffffffffffffffffff021916908373ffffffffffffffffffffffffffffffffffffffff16021790555050565b600080823b905060008111915050919050565b6000604051905090565b600080fd5b600080fd5b60007fffffffff0000000000000000000000000000000000000000000000000000000082169050919050565b61129c81611267565b81146112a757600080fd5b50565b6000813590506112b981611293565b92915050565b6000602082840312156112d5576112d461125d565b5b60006112e3848285016112aa565b91505092915050565b60008115159050919050565b611301816112ec565b82525050565b600060208201905061131c60008301846112f8565b92915050565b600073ffffffffffffffffffffffffffffffffffffffff82169050919050565b600061134d82611322565b9050919050565b61135d81611342565b811461136857600080fd5b50565b60008135905061137a81611354565b92915050565b6000602082840312156113965761139561125d565b5b60006113a48482850161136b565b91505092915050565b6113b681611342565b82525050565b60006020820190506113d160008301846113ad565b92915050565b60006060820190506113ec60008301866113ad565b6113f960208301856113ad565b61140660408301846112f8565b949350505050565b600080fd5b6000601f19601f8301169050919050565b7f4e487b7100000000000000000000000000000000000000000000000000000000600052604160045260246000fd5b61145c82611413565b810181811067ffffffffffffffff8211171561147b5761147a611424565b5b80604052505050565b600061148e611253565b905061149a8282611453565b919050565b600067ffffffffffffffff8211156114ba576114b9611424565b5b602082029050602081019050919050565b600080fd5b60006114e36114de8461149f565b611484565b90508083825260208201905060208402830185811115611506576115056114cb565b5b835b8181101561152f578061151b88826112aa565b845260208401935050602081019050611508565b5050509392505050565b600082601f83011261154e5761154d61140e565b5b813561155e8482602086016114d0565b91505092915050565b60006020828403121561157d5761157c61125d565b5b600082013567ffffffffffffffff81111561159b5761159a611262565b5b6115a784828501611539565b91505092915050565b6000819050919050565b7f4e487b7100000000000000000000000000000000000000000000000000000000600052601160045260246000fd5b60006115f4826115b0565b91506115ff836115b0565b9250828203905081811115611617576116166115ba565b5b92915050565b6000819050919050565b61163861163382611267565b61161d565b82525050565b6000819050919050565b6000819050919050565b61166361165e8261163e565b611648565b82525050565b60006116758285611627565b6004820191506116858284611652565b6020820191508190509392505050565b600082825260208201905092915050565b7f53706865726558206572726f723a2061646d696e207265717569726564000000600082015250565b60006116dc601d83611695565b91506116e7826116a6565b602082019050919050565b6000602082019050818103600083015261170b816116cf565b9050919050565b7f53706865726558206572726f723a206f70657261746f72207265717569726564600082015250565b6000611748602083611695565b915061175382611712565b602082019050919050565b600060208201905081810360008301526117778161173b565b9050919050565b600060408201905061179360008301856113ad565b6117a060208301846113ad565b9392505050565b7f4f776e61626c653a2063616c6c6572206973206e6f7420746865206f776e6572600082015250565b60006117dd602083611695565b91506117e8826117a7565b602082019050919050565b6000602082019050818103600083015261180c816117d0565b9050919050565b7f53706865726558206572726f723a206e6f74207468652070656e64696e67206160008201527f63636f756e740000000000000000000000000000000000000000000000000000602082015250565b600061186f602683611695565b915061187a82611813565b604082019050919050565b6000602082019050818103600083015261189e81611862565b9050919050565b7f4e487b7100000000000000000000000000000000000000000000000000000000600052603260045260246000fd5b60006118df826115b0565b91507fffffffffffffffffffffffffffffffffffffffffffffffffffffffffffffffff8203611911576119106115ba565b5b600182019050919050565b600081519050919050565b600082825260208201905092915050565b6000819050602082019050919050565b61195181611267565b82525050565b60006119638383611948565b60208301905092915050565b6000602082019050919050565b60006119878261191c565b6119918185611927565b935061199c83611938565b8060005b838110156119cd5781516119b48882611957565b97506119bf8361196f565b9250506001810190506119a0565b5085935050505092915050565b600060208201905081810360008301526119f4818461197c565b905092915050565b7f4f776e61626c653a206e6577206f776e657220697320746865207a65726f206160008201527f6464726573730000000000000000000000000000000000000000000000000000602082015250565b6000611a58602683611695565b9150611a63826119fc565b604082019050919050565b60006020820190508181036000830152611a8781611a4b565b9050919050565b611a9781611267565b82525050565b6000602082019050611ab26000830184611a8e565b92915050565b611ac1816112ec565b8114611acc57600080fd5b50565b600081519050611ade81611ab8565b92915050565b600060208284031215611afa57611af961125d565b5b6000611b0884828501611acf565b91505092915050565b7f53706865726558206572726f723a206e6f7420612053706865726558456e676960008201527f6e65000000000000000000000000000000000000000000000000000000000000602082015250565b6000611b6d602283611695565b9150611b7882611b11565b604082019050919050565b60006020820190508181036000830152611b9c81611b60565b9050919050565b7f5570677261646561626c65426561636f6e3a20696d706c656d656e746174696f60008201527f6e206973206e6f74206120636f6e747261637400000000000000000000000000602082015250565b6000611bff603383611695565b9150611c0a82611ba3565b604082019050919050565b60006020820190508181036000830152611c2e81611bf2565b905091905056fea2646970667358221220ee1529e60c71d61f4792eccd7479710c3228e3232859698404b09729be65c95564736f6c63430008130033",
  "linkReferences": {},
  "deployedLinkReferences": {}
}