{
  "_format": "hh-sol-artifact-1",
  "contractName": "SphereXProtectedSubProxy",
  "sourceName": "src/SphereXProtectedSubProxy.sol",
  "abi": [
    {
      "inputs": [],
      "stateMutability": "nonpayable",
      "type": "constructor"
    },
    {
      "anonymous": false,
      "inputs": [
        {
          "indexed": false,
          "internalType": "bytes4[]",
          "name": "patterns",
          "type": "bytes4[]"
        }
      ],
      "name": "AddedProtectedFuncSigs",
      "type": "event"
    },
    {
      "anonymous": false,
      "inputs": [
        {
          "indexed": false,
          "internalType": "address",
          "name": "oldEngineAddress",
          "type": "address"
        },
        {
          "indexed": false,
          "internalType": "address",
          "name": "newEngineAddress",
          "type": "address"
        }
      ],
      "name": "ChangedSpherexEngineAddress",
      "type": "event"
    },
    {
      "anonymous": false,
      "inputs": [
        {
          "indexed": false,
          "internalType": "address",
          "name": "oldSphereXAdmin",
          "type": "address"
        },
        {
          "indexed": false,
          "internalType": "address",
          "name": "newSphereXAdmin",
          "type": "address"
        }
      ],
      "name": "ChangedSpherexOperator",
      "type": "event"
    },
    {
      "anonymous": false,
      "inputs": [
        {
          "indexed": false,
          "internalType": "bytes4[]",
          "name": "patterns",
          "type": "bytes4[]"
        }
      ],
      "name": "RemovedProtectedFuncSigs",
      "type": "event"
    },
    {
      "anonymous": false,
      "inputs": [
        {
          "indexed": false,
          "internalType": "address",
          "name": "oldAdmin",
          "type": "address"
        },
        {
          "indexed": false,
          "internalType": "address",
          "name": "newAdmin",
          "type": "address"
        }
      ],
      "name": "SpherexAdminTransferCompleted",
      "type": "event"
    },
    {
      "anonymous": false,
      "inputs": [
        {
          "indexed": false,
          "internalType": "address",
          "name": "currentAdmin",
          "type": "address"
        },
        {
          "indexed": false,
          "internalType": "address",
          "name": "pendingAdmin",
          "type": "address"
        }
      ],
      "name": "SpherexAdminTransferStarted",
      "type": "event"
    },
    {
      "stateMutability": "payable",
      "type": "fallback"
    },
    {
      "inputs": [],
      "name": "acceptSphereXAdminRole",
      "outputs": [],
      "stateMutability": "nonpayable",
      "type": "function"
    },
    {
      "inputs": [
        {
          "internalType": "bytes4[]",
          "name": "keys",
          "type": "bytes4[]"
        }
      ],
      "name": "addProtectedFuncSigs",
      "outputs": [],
      "stateMutability": "nonpayable",
      "type": "function"
    },
    {
      "inputs": [
        {
          "internalType": "address",
          "name": "newSphereXEngine",
          "type": "address"
        }
      ],
      "name": "changeSphereXEngine",
      "outputs": [],
      "stateMutability": "nonpayable",
      "type": "function"
    },
    {
      "inputs": [
        {
          "internalType": "address",
          "name": "newSphereXOperator",
          "type": "address"
        }
      ],
      "name": "changeSphereXOperator",
      "outputs": [],
      "stateMutability": "nonpayable",
      "type": "function"
    },
    {
      "inputs": [
        {
          "internalType": "address",
          "name": "admin",
          "type": "address"
        },
        {
          "internalType": "address",
          "name": "operator",
          "type": "address"
        },
        {
          "internalType": "address",
          "name": "engine",
          "type": "address"
        },
        {
          "internalType": "address",
          "name": "_logic",
          "type": "address"
        },
        {
          "internalType": "bytes",
          "name": "data",
          "type": "bytes"
        }
      ],
      "name": "initialize",
      "outputs": [],
      "stateMutability": "nonpayable",
      "type": "function"
    },
    {
      "inputs": [],
      "name": "isInitialized",
      "outputs": [
        {
          "internalType": "bool",
          "name": "",
          "type": "bool"
        }
      ],
      "stateMutability": "view",
      "type": "function"
    },
    {
      "inputs": [
        {
          "internalType": "bytes4",
          "name": "func_sig",
          "type": "bytes4"
        }
      ],
      "name": "isProtectedFuncSig",
      "outputs": [
        {
          "internalType": "bool",
          "name": "value",
          "type": "bool"
        }
      ],
      "stateMutability": "view",
      "type": "function"
    },
    {
      "inputs": [],
      "name": "pendingSphereXAdmin",
      "outputs": [
        {
          "internalType": "address",
          "name": "",
          "type": "address"
        }
      ],
      "stateMutability": "view",
      "type": "function"
    },
    {
      "inputs": [
        {
          "internalType": "bytes4[]",
          "name": "keys",
          "type": "bytes4[]"
        }
      ],
      "name": "removeProtectedFuncSigs",
      "outputs": [],
      "stateMutability": "nonpayable",
      "type": "function"
    },
    {
      "inputs": [],
      "name": "sphereXAdmin",
      "outputs": [
        {
          "internalType": "address",
          "name": "",
          "type": "address"
        }
      ],
      "stateMutability": "view",
      "type": "function"
    },
    {
      "inputs": [],
      "name": "sphereXEngine",
      "outputs": [
        {
          "internalType": "address",
          "name": "",
          "type": "address"
        }
      ],
      "stateMutability": "view",
      "type": "function"
    },
    {
      "inputs": [],
      "name": "sphereXOperator",
      "outputs": [
        {
          "internalType": "address",
          "name": "",
          "type": "address"
        }
      ],
      "stateMutability": "view",
      "type": "function"
    },
    {
      "inputs": [
        {
          "internalType": "address",
          "name": "newAdmin",
          "type": "address"
        }
      ],
      "name": "transferSphereXAdminRole",
      "outputs": [],
      "stateMutability": "nonpayable",
      "type": "function"
    },
    {
      "inputs": [
        {
          "internalType": "address",
          "name": "newImplementation",
          "type": "address"
        }
      ],
      "name": "upgradeTo",
      "outputs": [],
      "stateMutability": "nonpayable",
      "type": "function"
    },
    {
      "stateMutability": "payable",
      "type": "receive"
    }
  ],
  "bytecode": "0x60a06040523073ffffffffffffffffffffffffffffffffffffffff1660809073ffffffffffffffffffffffffffffffffffffffff168152503480156200004457600080fd5b506000806000828282828282620000638383836200008260201b60201c565b5050505050505050506200007c6200021e60201b60201c565b6200061f565b620000c860017fca334bf49ef20e9cbff039feda3bc1c2a853aff17b1b5187e4aa1380ec55829d60001c620000b89190620003fb565b60001b846200023260201b60201c565b7f67ebaebcd2ca5a91a404e898110f221747e8d15567f2388a34794aab151cf3e6600084604051620000fc9291906200047b565b60405180910390a16200014a60017fadf90d75f0f2d657d5a22fa0f6e4dabb83c4598b77158eb4119cb38f1d86446360001c6200013a9190620003fb565b60001b836200023260201b60201c565b7f2ac55ae7ba47db34b5334622acafeb34a65daf143b47019273185d64c73a35a56000836040516200017e9291906200047b565b60405180910390a162000197816200023960201b60201c565b620001dd60017f1777adabd324f814e2b0e28f6edf876dce01d7d66358c9acfe87b1b5f38338d660001c620001cd9190620003fb565b60001b826200023260201b60201c565b7ff33499cccaa0611882086224cc48cd82ef54b66a4d2edf4ed67108dd516896d5600082604051620002119291906200047b565b60405180910390a1505050565b6200023060016200035560201b60201c565b565b8082555050565b600073ffffffffffffffffffffffffffffffffffffffff168173ffffffffffffffffffffffffffffffffffffffff1614806200031057508073ffffffffffffffffffffffffffffffffffffffff166301ffc9a77f53e41baa000000000000000000000000000000000000000000000000000000006040518263ffffffff1660e01b8152600401620002cb9190620004e5565b602060405180830381865afa158015620002e9573d6000803e3d6000fd5b505050506040513d601f19601f820116820180604052508101906200030f919062000544565b5b62000352576040517f08c379a00000000000000000000000000000000000000000000000000000000081526004016200034990620005fd565b60405180910390fd5b50565b806200039b60017fe63726706a35a364d262f7dea3b47d903dc7bcc0181e9d5ddb5f7b87b593cbb560001c6200038c9190620003fb565b60001b620003b860201b60201c565b60000160006101000a81548160ff02191690831515021790555050565b6000819050919050565b6000819050919050565b7f4e487b7100000000000000000000000000000000000000000000000000000000600052601160045260246000fd5b60006200040882620003c2565b91506200041583620003c2565b925082820390508181111562000430576200042f620003cc565b5b92915050565b600073ffffffffffffffffffffffffffffffffffffffff82169050919050565b6000620004638262000436565b9050919050565b620004758162000456565b82525050565b60006040820190506200049260008301856200046a565b620004a160208301846200046a565b9392505050565b60007fffffffff0000000000000000000000000000000000000000000000000000000082169050919050565b620004df81620004a8565b82525050565b6000602082019050620004fc6000830184620004d4565b92915050565b600080fd5b60008115159050919050565b6200051e8162000507565b81146200052a57600080fd5b50565b6000815190506200053e8162000513565b92915050565b6000602082840312156200055d576200055c62000502565b5b60006200056d848285016200052d565b91505092915050565b600082825260208201905092915050565b7f53706865726558206572726f723a206e6f7420612053706865726558456e676960008201527f6e65000000000000000000000000000000000000000000000000000000000000602082015250565b6000620005e560228362000576565b9150620005f28262000587565b604082019050919050565b600060208201905081810360008301526200061881620005d6565b9050919050565b6080516128976200063b6000396000610d2301526128976000f3fe6080604052600436106100e15760003560e01c80638426b9681161007f578063a7fdd04711610059578063a7fdd0471461029e578063cc5b7450146102c7578063daba7ef7146102f0578063e7e5db4f14610319576100f0565b80638426b9681461023157806399e80f3b146102485780639aa9019e14610273576100f0565b80633c231166116100bb5780633c2311661461018b5780634a936417146101b65780634c6c848f146101df5780634ee8f85814610208576100f0565b8063021a5fe5146100fa5780633659cfe614610137578063392e53cd14610160576100f0565b366100f0576100ee610344565b005b6100f8610344565b005b34801561010657600080fd5b50610121600480360381019061011c9190611949565b61035e565b60405161012e9190611991565b60405180910390f35b34801561014357600080fd5b5061015e60048036038101906101599190611a0a565b6103c8565b005b34801561016c57600080fd5b506101756103d3565b6040516101829190611991565b60405180910390f35b34801561019757600080fd5b506101a0610426565b6040516101ad9190611a46565b60405180910390f35b3480156101c257600080fd5b506101dd60048036038101906101d89190611ba7565b610468565b005b3480156101eb57600080fd5b5061020660048036038101906102019190611a0a565b6104eb565b005b34801561021457600080fd5b5061022f600480360381019061022a9190611a0a565b610654565b005b34801561023d57600080fd5b506102466107b4565b005b34801561025457600080fd5b5061025d6108ea565b60405161026a9190611a46565b60405180910390f35b34801561027f57600080fd5b5061028861092c565b6040516102959190611a46565b60405180910390f35b3480156102aa57600080fd5b506102c560048036038101906102c09190611d06565b61096e565b005b3480156102d357600080fd5b506102ee60048036038101906102e99190611d06565b610a93565b005b3480156102fc57600080fd5b5061031760048036038101906103129190611a0a565b610bb8565b005b34801561032557600080fd5b5061032e610cdf565b60405161033b9190611a46565b60405180910390f35b61034c610d21565b61035c610357610db1565b610dc0565b565b6000808260017f9a7afc584486ebd3e91191a9ac2c2e986b3aaa4084656fc915fe0843ff009c6b60001c6103929190611d88565b60001b6040516020016103a6929190611e08565b6040516020818303038152906040528051906020012090508054915050919050565b6103d0610344565b50565b600061041060017fe63726706a35a364d262f7dea3b47d903dc7bcc0181e9d5ddb5f7b87b593cbb560001c6104089190611d88565b60001b610e18565b60000160009054906101000a900460ff16905090565b600061046360017f1777adabd324f814e2b0e28f6edf876dce01d7d66358c9acfe87b1b5f38338d660001c61045b9190611d88565b60001b610e22565b905090565b6104706103d3565b156104b0576040517f08c379a00000000000000000000000000000000000000000000000000000000081526004016104a790611eb7565b60405180910390fd5b6104ba6001610e2d565b6104c5858585610e86565b6104ce82610ff6565b6000815111156104e4576104e28282611076565b505b5050505050565b61052660017fadf90d75f0f2d657d5a22fa0f6e4dabb83c4598b77158eb4119cb38f1d86446360001c61051e9190611d88565b60001b610e22565b73ffffffffffffffffffffffffffffffffffffffff163373ffffffffffffffffffffffffffffffffffffffff1614610593576040517f08c379a000000000000000000000000000000000000000000000000000000000815260040161058a90611f23565b60405180910390fd5b61059c816110a3565b60006105d960017f1777adabd324f814e2b0e28f6edf876dce01d7d66358c9acfe87b1b5f38338d660001c6105d19190611d88565b60001b610e22565b905061061760017f1777adabd324f814e2b0e28f6edf876dce01d7d66358c9acfe87b1b5f38338d660001c61060e9190611d88565b60001b836111b6565b7ff33499cccaa0611882086224cc48cd82ef54b66a4d2edf4ed67108dd516896d58183604051610648929190611f43565b60405180910390a15050565b61068f60017fca334bf49ef20e9cbff039feda3bc1c2a853aff17b1b5187e4aa1380ec55829d60001c6106879190611d88565b60001b610e22565b73ffffffffffffffffffffffffffffffffffffffff163373ffffffffffffffffffffffffffffffffffffffff16146106fc576040517f08c379a00000000000000000000000000000000000000000000000000000000081526004016106f390611fb8565b60405180910390fd5b600061073960017fadf90d75f0f2d657d5a22fa0f6e4dabb83c4598b77158eb4119cb38f1d86446360001c6107319190611d88565b60001b610e22565b905061077760017fadf90d75f0f2d657d5a22fa0f6e4dabb83c4598b77158eb4119cb38f1d86446360001c61076e9190611d88565b60001b836111b6565b7f2ac55ae7ba47db34b5334622acafeb34a65daf143b47019273185d64c73a35a581836040516107a8929190611f43565b60405180910390a15050565b3373ffffffffffffffffffffffffffffffffffffffff166107d361092c565b73ffffffffffffffffffffffffffffffffffffffff1614610829576040517f08c379a00000000000000000000000000000000000000000000000000000000081526004016108209061204a565b60405180910390fd5b60006108336108ea565b905061087160017fca334bf49ef20e9cbff039feda3bc1c2a853aff17b1b5187e4aa1380ec55829d60001c6108689190611d88565b60001b336111b6565b6108ae60017f3a517dd736309b905c692160a21b5439bdc56db1dc77d6982b66d44814e3fa9760001c6108a49190611d88565b60001b60006111b6565b7f67ebaebcd2ca5a91a404e898110f221747e8d15567f2388a34794aab151cf3e681336040516108df929190611f43565b60405180910390a150565b600061092760017fca334bf49ef20e9cbff039feda3bc1c2a853aff17b1b5187e4aa1380ec55829d60001c61091f9190611d88565b60001b610e22565b905090565b600061096960017f3a517dd736309b905c692160a21b5439bdc56db1dc77d6982b66d44814e3fa9760001c6109619190611d88565b60001b610e22565b905090565b6109a960017fadf90d75f0f2d657d5a22fa0f6e4dabb83c4598b77158eb4119cb38f1d86446360001c6109a19190611d88565b60001b610e22565b73ffffffffffffffffffffffffffffffffffffffff163373ffffffffffffffffffffffffffffffffffffffff1614610a16576040517f08c379a0000000000000000000000000000000000000000000000000000000008152600401610a0d90611f23565b60405180910390fd5b60005b8151811015610a5857610a47828281518110610a3857610a3761206a565b5b602002602001015160006111bd565b80610a5190612099565b9050610a19565b507f754b9f3148ad4cf227ecdf9a64810fa2d0b8682a2de15dfad5310a12b7281a5f81604051610a88919061219f565b60405180910390a150565b610ace60017fadf90d75f0f2d657d5a22fa0f6e4dabb83c4598b77158eb4119cb38f1d86446360001c610ac69190611d88565b60001b610e22565b73ffffffffffffffffffffffffffffffffffffffff163373ffffffffffffffffffffffffffffffffffffffff1614610b3b576040517f08c379a0000000000000000000000000000000000000000000000000000000008152600401610b3290611f23565b60405180910390fd5b60005b8151811015610b7d57610b6c828281518110610b5d57610b5c61206a565b5b602002602001015160016111bd565b80610b7690612099565b9050610b3e565b507f45fc6a4de33dfc2fa6f40e48f353bf7ff006086db3ecf80c077f788082cc7d5a81604051610bad919061219f565b60405180910390a150565b610bf360017fca334bf49ef20e9cbff039feda3bc1c2a853aff17b1b5187e4aa1380ec55829d60001c610beb9190611d88565b60001b610e22565b73ffffffffffffffffffffffffffffffffffffffff163373ffffffffffffffffffffffffffffffffffffffff1614610c60576040517f08c379a0000000000000000000000000000000000000000000000000000000008152600401610c5790611fb8565b60405180910390fd5b610c9c60017f3a517dd736309b905c692160a21b5439bdc56db1dc77d6982b66d44814e3fa9760001c610c939190611d88565b60001b826111b6565b7f5778f1547abbbb86090a43c32aec38334b31df4beeb6f8f3fa063f593b53a526610cc56108ea565b82604051610cd4929190611f43565b60405180910390a150565b6000610d1c60017fadf90d75f0f2d657d5a22fa0f6e4dabb83c4598b77158eb4119cb38f1d86446360001c610d149190611d88565b60001b610e22565b905090565b7f000000000000000000000000000000000000000000000000000000000000000073ffffffffffffffffffffffffffffffffffffffff163073ffffffffffffffffffffffffffffffffffffffff1603610daf576040517f08c379a0000000000000000000000000000000000000000000000000000000008152600401610da690612233565b60405180910390fd5b565b6000610dbb611224565b905090565b610ded6000357fffffffff000000000000000000000000000000000000000000000000000000001661035e565b15610e0c576000610dfd8261128a565b90506000815190508060208301f35b610e1581611336565b50565b6000819050919050565b600081549050919050565b80610e6960017fe63726706a35a364d262f7dea3b47d903dc7bcc0181e9d5ddb5f7b87b593cbb560001c610e619190611d88565b60001b610e18565b60000160006101000a81548160ff02191690831515021790555050565b610ec260017fca334bf49ef20e9cbff039feda3bc1c2a853aff17b1b5187e4aa1380ec55829d60001c610eb99190611d88565b60001b846111b6565b7f67ebaebcd2ca5a91a404e898110f221747e8d15567f2388a34794aab151cf3e6600084604051610ef4929190611f43565b60405180910390a1610f3860017fadf90d75f0f2d657d5a22fa0f6e4dabb83c4598b77158eb4119cb38f1d86446360001c610f2f9190611d88565b60001b836111b6565b7f2ac55ae7ba47db34b5334622acafeb34a65daf143b47019273185d64c73a35a5600083604051610f6a929190611f43565b60405180910390a1610f7b816110a3565b610fb760017f1777adabd324f814e2b0e28f6edf876dce01d7d66358c9acfe87b1b5f38338d660001c610fae9190611d88565b60001b826111b6565b7ff33499cccaa0611882086224cc48cd82ef54b66a4d2edf4ed67108dd516896d5600082604051610fe9929190611f43565b60405180910390a1505050565b8061103260017f3fa91f2555a723d9492031a1ea7e19bafb88d46accb27838b1930ba6a3553a4060001c61102a9190611d88565b60001b61135c565b60000160006101000a81548173ffffffffffffffffffffffffffffffffffffffff021916908373ffffffffffffffffffffffffffffffffffffffff16021790555050565b606061109b838360405180606001604052806027815260200161283b60279139611366565b905092915050565b600073ffffffffffffffffffffffffffffffffffffffff168173ffffffffffffffffffffffffffffffffffffffff16148061117457508073ffffffffffffffffffffffffffffffffffffffff166301ffc9a77f53e41baa000000000000000000000000000000000000000000000000000000006040518263ffffffff1660e01b81526004016111329190612262565b602060405180830381865afa15801561114f573d6000803e3d6000fd5b505050506040513d601f19601f8201168201806040525081019061117391906122a9565b5b6111b3576040517f08c379a00000000000000000000000000000000000000000000000000000000081526004016111aa90612348565b60405180910390fd5b50565b8082555050565b60008260017f9a7afc584486ebd3e91191a9ac2c2e986b3aaa4084656fc915fe0843ff009c6b60001c6111f09190611d88565b60001b604051602001611204929190611e08565b604051602081830303815290604052805190602001209050818155505050565b600061126160017f3fa91f2555a723d9492031a1ea7e19bafb88d46accb27838b1930ba6a3553a4060001c6112599190611d88565b60001b61135c565b60000160009054906101000a900473ffffffffffffffffffffffffffffffffffffffff16905090565b60606000357fffffffff000000000000000000000000000000000000000000000000000000001660e01c63ffffffff1660006112c7826001611433565b9050611318846000368080601f016020809104026020016040519081016040528093929190818152602001838380828437600081840152601f19601f82011690508083019250505050505050611076565b925061132f8261132790612372565b6001836115cf565b5050919050565b3660008037600080366000845af43d6000803e8060008114611357573d6000f35b3d6000fd5b6000819050919050565b60606113718461173b565b6113b0576040517f08c379a00000000000000000000000000000000000000000000000000000000081526004016113a79061242c565b60405180910390fd5b6000808573ffffffffffffffffffffffffffffffffffffffff16856040516113d891906124bd565b600060405180830381855af49150503d8060008114611413576040519150601f19603f3d011682016040523d82523d6000602084013e611418565b606091505b509150915061142882828661174e565b925050509392505050565b61143b6118bc565b600073ffffffffffffffffffffffffffffffffffffffff1661145b6117b5565b73ffffffffffffffffffffffffffffffffffffffff1603156115c95760006114816117b5565b9050821561151e578073ffffffffffffffffffffffffffffffffffffffff16638925ca5a85336000366040518563ffffffff1660e01b81526004016114c99493929190612521565b6000604051808303816000875af11580156114e8573d6000803e3d6000fd5b505050506040513d6000823e3d601f19601f820116820180604052508101906115119190612650565b82600001819052506115a8565b8073ffffffffffffffffffffffffffffffffffffffff16633e884943856040518263ffffffff1660e01b81526004016115579190612699565b6000604051808303816000875af1158015611576573d6000803e3d6000fd5b505050506040513d6000823e3d601f19601f8201168201806040525081019061159f9190612650565b82600001819052505b6115b582600001516117f7565b82602001819052505a826040018181525050505b92915050565b600073ffffffffffffffffffffffffffffffffffffffff166115ef6117b5565b73ffffffffffffffffffffffffffffffffffffffff1603156117365760005a826040015161161d9190611d88565b905060006116296117b5565b9050606061163a84600001516117f7565b905084156116bc578173ffffffffffffffffffffffffffffffffffffffff1663f0bd946887858760200151856040518563ffffffff1660e01b81526004016116859493929190612781565b600060405180830381600087803b15801561169f57600080fd5b505af11580156116b3573d6000803e3d6000fd5b50505050611732565b8173ffffffffffffffffffffffffffffffffffffffff166304e6279a87858760200151856040518563ffffffff1660e01b81526004016116ff9493929190612781565b600060405180830381600087803b15801561171957600080fd5b505af115801561172d573d6000803e3d6000fd5b505050505b5050505b505050565b600080823b905060008111915050919050565b6060831561175e578290506117ae565b6000835111156117715782518084602001fd5b816040517f08c379a00000000000000000000000000000000000000000000000000000000081526004016117a59190612818565b60405180910390fd5b9392505050565b60006117f260017f1777adabd324f814e2b0e28f6edf876dce01d7d66358c9acfe87b1b5f38338d660001c6117ea9190611d88565b60001b610e22565b905090565b606060008251905060008167ffffffffffffffff81111561181b5761181a611a7c565b5b6040519080825280602002602001820160405280156118495781602001602082028036833780820191505090505b50905060005b828110156118b157600085828151811061186c5761186b61206a565b5b60200260200101519050600081549050808484815181106118905761188f61206a565b5b602002602001018181525050505080806118a990612099565b91505061184f565b508092505050919050565b60405180606001604052806060815260200160608152602001600081525090565b6000604051905090565b600080fd5b600080fd5b60007fffffffff0000000000000000000000000000000000000000000000000000000082169050919050565b611926816118f1565b811461193157600080fd5b50565b6000813590506119438161191d565b92915050565b60006020828403121561195f5761195e6118e7565b5b600061196d84828501611934565b91505092915050565b60008115159050919050565b61198b81611976565b82525050565b60006020820190506119a66000830184611982565b92915050565b600073ffffffffffffffffffffffffffffffffffffffff82169050919050565b60006119d7826119ac565b9050919050565b6119e7816119cc565b81146119f257600080fd5b50565b600081359050611a04816119de565b92915050565b600060208284031215611a2057611a1f6118e7565b5b6000611a2e848285016119f5565b91505092915050565b611a40816119cc565b82525050565b6000602082019050611a5b6000830184611a37565b92915050565b600080fd5b600080fd5b6000601f19601f8301169050919050565b7f4e487b7100000000000000000000000000000000000000000000000000000000600052604160045260246000fd5b611ab482611a6b565b810181811067ffffffffffffffff82111715611ad357611ad2611a7c565b5b80604052505050565b6000611ae66118dd565b9050611af28282611aab565b919050565b600067ffffffffffffffff821115611b1257611b11611a7c565b5b611b1b82611a6b565b9050602081019050919050565b82818337600083830152505050565b6000611b4a611b4584611af7565b611adc565b905082815260208101848484011115611b6657611b65611a66565b5b611b71848285611b28565b509392505050565b600082601f830112611b8e57611b8d611a61565b5b8135611b9e848260208601611b37565b91505092915050565b600080600080600060a08688031215611bc357611bc26118e7565b5b6000611bd1888289016119f5565b9550506020611be2888289016119f5565b9450506040611bf3888289016119f5565b9350506060611c04888289016119f5565b925050608086013567ffffffffffffffff811115611c2557611c246118ec565b5b611c3188828901611b79565b9150509295509295909350565b600067ffffffffffffffff821115611c5957611c58611a7c565b5b602082029050602081019050919050565b600080fd5b6000611c82611c7d84611c3e565b611adc565b90508083825260208201905060208402830185811115611ca557611ca4611c6a565b5b835b81811015611cce5780611cba8882611934565b845260208401935050602081019050611ca7565b5050509392505050565b600082601f830112611ced57611cec611a61565b5b8135611cfd848260208601611c6f565b91505092915050565b600060208284031215611d1c57611d1b6118e7565b5b600082013567ffffffffffffffff811115611d3a57611d396118ec565b5b611d4684828501611cd8565b91505092915050565b6000819050919050565b7f4e487b7100000000000000000000000000000000000000000000000000000000600052601160045260246000fd5b6000611d9382611d4f565b9150611d9e83611d4f565b9250828203905081811115611db657611db5611d59565b5b92915050565b6000819050919050565b611dd7611dd2826118f1565b611dbc565b82525050565b6000819050919050565b6000819050919050565b611e02611dfd82611ddd565b611de7565b82525050565b6000611e148285611dc6565b600482019150611e248284611df1565b6020820191508190509392505050565b600082825260208201905092915050565b7f53706865726558496e697469616c697a61626c653a20636f6e7472616374206960008201527f7320616c726561647920696e697469616c697a65640000000000000000000000602082015250565b6000611ea1603583611e34565b9150611eac82611e45565b604082019050919050565b60006020820190508181036000830152611ed081611e94565b9050919050565b7f53706865726558206572726f723a206f70657261746f72207265717569726564600082015250565b6000611f0d602083611e34565b9150611f1882611ed7565b602082019050919050565b60006020820190508181036000830152611f3c81611f00565b9050919050565b6000604082019050611f586000830185611a37565b611f656020830184611a37565b9392505050565b7f53706865726558206572726f723a2061646d696e207265717569726564000000600082015250565b6000611fa2601d83611e34565b9150611fad82611f6c565b602082019050919050565b60006020820190508181036000830152611fd181611f95565b9050919050565b7f53706865726558206572726f723a206e6f74207468652070656e64696e67206160008201527f63636f756e740000000000000000000000000000000000000000000000000000602082015250565b6000612034602683611e34565b915061203f82611fd8565b604082019050919050565b6000602082019050818103600083015261206381612027565b9050919050565b7f4e487b7100000000000000000000000000000000000000000000000000000000600052603260045260246000fd5b60006120a482611d4f565b91507fffffffffffffffffffffffffffffffffffffffffffffffffffffffffffffffff82036120d6576120d5611d59565b5b600182019050919050565b600081519050919050565b600082825260208201905092915050565b6000819050602082019050919050565b612116816118f1565b82525050565b6000612128838361210d565b60208301905092915050565b6000602082019050919050565b600061214c826120e1565b61215681856120ec565b9350612161836120fd565b8060005b83811015612192578151612179888261211c565b975061218483612134565b925050600181019050612165565b5085935050505092915050565b600060208201905081810360008301526121b98184612141565b905092915050565b7f555550535570677261646561626c653a206d757374206e6f742062652063616c60008201527f6c6564207468726f7567682064656c656761746563616c6c0000000000000000602082015250565b600061221d603883611e34565b9150612228826121c1565b604082019050919050565b6000602082019050818103600083015261224c81612210565b9050919050565b61225c816118f1565b82525050565b60006020820190506122776000830184612253565b92915050565b61228681611976565b811461229157600080fd5b50565b6000815190506122a38161227d565b92915050565b6000602082840312156122bf576122be6118e7565b5b60006122cd84828501612294565b91505092915050565b7f53706865726558206572726f723a206e6f7420612053706865726558456e676960008201527f6e65000000000000000000000000000000000000000000000000000000000000602082015250565b6000612332602283611e34565b915061233d826122d6565b604082019050919050565b6000602082019050818103600083015261236181612325565b9050919050565b6000819050919050565b600061237d82612368565b91507f800000000000000000000000000000000000000000000000000000000000000082036123af576123ae611d59565b5b816000039050919050565b7f416464726573733a2064656c65676174652063616c6c20746f206e6f6e2d636f60008201527f6e74726163740000000000000000000000000000000000000000000000000000602082015250565b6000612416602683611e34565b9150612421826123ba565b604082019050919050565b6000602082019050818103600083015261244581612409565b9050919050565b600081519050919050565b600081905092915050565b60005b83811015612480578082015181840152602081019050612465565b60008484015250505050565b60006124978261244c565b6124a18185612457565b93506124b1818560208601612462565b80840191505092915050565b60006124c9828461248c565b915081905092915050565b6124dd81612368565b82525050565b600082825260208201905092915050565b600061250083856124e3565b935061250d838584611b28565b61251683611a6b565b840190509392505050565b600060608201905061253660008301876124d4565b6125436020830186611a37565b81810360408301526125568184866124f4565b905095945050505050565b600067ffffffffffffffff82111561257c5761257b611a7c565b5b602082029050602081019050919050565b61259681611ddd565b81146125a157600080fd5b50565b6000815190506125b38161258d565b92915050565b60006125cc6125c784612561565b611adc565b905080838252602082019050602084028301858111156125ef576125ee611c6a565b5b835b81811015612618578061260488826125a4565b8452602084019350506020810190506125f1565b5050509392505050565b600082601f83011261263757612636611a61565b5b81516126478482602086016125b9565b91505092915050565b600060208284031215612666576126656118e7565b5b600082015167ffffffffffffffff811115612684576126836118ec565b5b61269084828501612622565b91505092915050565b60006020820190506126ae60008301846124d4565b92915050565b6126bd81611d4f565b82525050565b600081519050919050565b600082825260208201905092915050565b6000819050602082019050919050565b6126f881611ddd565b82525050565b600061270a83836126ef565b60208301905092915050565b6000602082019050919050565b600061272e826126c3565b61273881856126ce565b9350612743836126df565b8060005b8381101561277457815161275b88826126fe565b975061276683612716565b925050600181019050612747565b5085935050505092915050565b600060808201905061279660008301876124d4565b6127a360208301866126b4565b81810360408301526127b58185612723565b905081810360608301526127c98184612723565b905095945050505050565b600081519050919050565b60006127ea826127d4565b6127f48185611e34565b9350612804818560208601612462565b61280d81611a6b565b840191505092915050565b6000602082019050818103600083015261283281846127df565b90509291505056fe416464726573733a206c6f772d6c6576656c2064656c65676174652063616c6c206661696c6564a26469706673582212207f5099ddd2ffe75cee3800c2f17ced6b28c532d5fe57259be7a71a4a8baa82a664736f6c63430008130033",
  "linkReferences": {},
  "deployedLinkReferences": {}
}